{
  "_format": "hh-sol-artifact-1",
  "contractName": "SnakeNFT",
  "sourceName": "contracts/SnakeNFT.sol",
  "abi": [
    {
      "inputs": [
        {
          "internalType": "string",
          "name": "_baseTokenURI",
          "type": "string"
        },
        {
          "internalType": "uint256",
          "name": "_totalSupply",
          "type": "uint256"
        }
      ],
      "stateMutability": "nonpayable",
      "type": "constructor"
    },
    {
      "anonymous": false,
      "inputs": [
        {
          "indexed": true,
          "internalType": "address",
          "name": "owner",
          "type": "address"
        },
        {
          "indexed": true,
          "internalType": "address",
          "name": "approved",
          "type": "address"
        },
        {
          "indexed": true,
          "internalType": "uint256",
          "name": "tokenId",
          "type": "uint256"
        }
      ],
      "name": "Approval",
      "type": "event"
    },
    {
      "anonymous": false,
      "inputs": [
        {
          "indexed": true,
          "internalType": "address",
          "name": "owner",
          "type": "address"
        },
        {
          "indexed": true,
          "internalType": "address",
          "name": "operator",
          "type": "address"
        },
        {
          "indexed": false,
          "internalType": "bool",
          "name": "approved",
          "type": "bool"
        }
      ],
      "name": "ApprovalForAll",
      "type": "event"
    },
    {
      "anonymous": false,
      "inputs": [
        {
          "indexed": true,
          "internalType": "address",
          "name": "previousOwner",
          "type": "address"
        },
        {
          "indexed": true,
          "internalType": "address",
          "name": "newOwner",
          "type": "address"
        }
      ],
      "name": "OwnershipTransferred",
      "type": "event"
    },
    {
      "anonymous": false,
      "inputs": [
        {
          "indexed": false,
          "internalType": "address",
          "name": "account",
          "type": "address"
        }
      ],
      "name": "Paused",
      "type": "event"
    },
    {
      "anonymous": false,
      "inputs": [
        {
          "indexed": true,
          "internalType": "address",
          "name": "from",
          "type": "address"
        },
        {
          "indexed": true,
          "internalType": "address",
          "name": "to",
          "type": "address"
        },
        {
          "indexed": true,
          "internalType": "uint256",
          "name": "tokenId",
          "type": "uint256"
        }
      ],
      "name": "Transfer",
      "type": "event"
    },
    {
      "anonymous": false,
      "inputs": [
        {
          "indexed": false,
          "internalType": "address",
          "name": "account",
          "type": "address"
        }
      ],
      "name": "Unpaused",
      "type": "event"
    },
    {
      "inputs": [
        {
          "internalType": "address",
          "name": "to",
          "type": "address"
        },
        {
          "internalType": "uint256",
          "name": "tokenId",
          "type": "uint256"
        }
      ],
      "name": "approve",
      "outputs": [],
      "stateMutability": "nonpayable",
      "type": "function"
    },
    {
      "inputs": [
        {
          "internalType": "address",
          "name": "owner",
          "type": "address"
        }
      ],
      "name": "balanceOf",
      "outputs": [
        {
          "internalType": "uint256",
          "name": "",
          "type": "uint256"
        }
      ],
      "stateMutability": "view",
      "type": "function"
    },
    {
      "inputs": [
        {
          "internalType": "uint256",
          "name": "tokenId",
          "type": "uint256"
        }
      ],
      "name": "getApproved",
      "outputs": [
        {
          "internalType": "address",
          "name": "",
          "type": "address"
        }
      ],
      "stateMutability": "view",
      "type": "function"
    },
    {
      "inputs": [
        {
          "internalType": "address",
          "name": "owner",
          "type": "address"
        },
        {
          "internalType": "address",
          "name": "operator",
          "type": "address"
        }
      ],
      "name": "isApprovedForAll",
      "outputs": [
        {
          "internalType": "bool",
          "name": "",
          "type": "bool"
        }
      ],
      "stateMutability": "view",
      "type": "function"
    },
    {
      "inputs": [
        {
          "internalType": "address",
          "name": "to",
          "type": "address"
        }
      ],
      "name": "mint",
      "outputs": [
        {
          "internalType": "uint256",
          "name": "",
          "type": "uint256"
        }
      ],
      "stateMutability": "nonpayable",
      "type": "function"
    },
    {
      "inputs": [],
      "name": "name",
      "outputs": [
        {
          "internalType": "string",
          "name": "",
          "type": "string"
        }
      ],
      "stateMutability": "view",
      "type": "function"
    },
    {
      "inputs": [],
      "name": "owner",
      "outputs": [
        {
          "internalType": "address",
          "name": "",
          "type": "address"
        }
      ],
      "stateMutability": "view",
      "type": "function"
    },
    {
      "inputs": [
        {
          "internalType": "uint256",
          "name": "tokenId",
          "type": "uint256"
        }
      ],
      "name": "ownerOf",
      "outputs": [
        {
          "internalType": "address",
          "name": "",
          "type": "address"
        }
      ],
      "stateMutability": "view",
      "type": "function"
    },
    {
      "inputs": [],
      "name": "pause",
      "outputs": [],
      "stateMutability": "nonpayable",
      "type": "function"
    },
    {
      "inputs": [],
      "name": "paused",
      "outputs": [
        {
          "internalType": "bool",
          "name": "",
          "type": "bool"
        }
      ],
      "stateMutability": "view",
      "type": "function"
    },
    {
      "inputs": [],
      "name": "renounceOwnership",
      "outputs": [],
      "stateMutability": "nonpayable",
      "type": "function"
    },
    {
      "inputs": [
        {
          "internalType": "address",
          "name": "from",
          "type": "address"
        },
        {
          "internalType": "address",
          "name": "to",
          "type": "address"
        },
        {
          "internalType": "uint256",
          "name": "tokenId",
          "type": "uint256"
        }
      ],
      "name": "safeTransferFrom",
      "outputs": [],
      "stateMutability": "nonpayable",
      "type": "function"
    },
    {
      "inputs": [
        {
          "internalType": "address",
          "name": "from",
          "type": "address"
        },
        {
          "internalType": "address",
          "name": "to",
          "type": "address"
        },
        {
          "internalType": "uint256",
          "name": "tokenId",
          "type": "uint256"
        },
        {
          "internalType": "bytes",
          "name": "_data",
          "type": "bytes"
        }
      ],
      "name": "safeTransferFrom",
      "outputs": [],
      "stateMutability": "nonpayable",
      "type": "function"
    },
    {
      "inputs": [
        {
          "internalType": "address",
          "name": "operator",
          "type": "address"
        },
        {
          "internalType": "bool",
          "name": "approved",
          "type": "bool"
        }
      ],
      "name": "setApprovalForAll",
      "outputs": [],
      "stateMutability": "nonpayable",
      "type": "function"
    },
    {
      "inputs": [
        {
          "internalType": "string",
          "name": "_baseTokenURI",
          "type": "string"
        }
      ],
      "name": "setBaseTokenURI",
      "outputs": [],
      "stateMutability": "nonpayable",
      "type": "function"
    },
    {
      "inputs": [
        {
          "internalType": "bytes4",
          "name": "interfaceId",
          "type": "bytes4"
        }
      ],
      "name": "supportsInterface",
      "outputs": [
        {
          "internalType": "bool",
          "name": "",
          "type": "bool"
        }
      ],
      "stateMutability": "view",
      "type": "function"
    },
    {
      "inputs": [],
      "name": "symbol",
      "outputs": [
        {
          "internalType": "string",
          "name": "",
          "type": "string"
        }
      ],
      "stateMutability": "view",
      "type": "function"
    },
    {
      "inputs": [
        {
          "internalType": "uint256",
          "name": "tokenId",
          "type": "uint256"
        }
      ],
      "name": "tokenURI",
      "outputs": [
        {
          "internalType": "string",
          "name": "",
          "type": "string"
        }
      ],
      "stateMutability": "view",
      "type": "function"
    },
    {
      "inputs": [],
      "name": "totalMinted",
      "outputs": [
        {
          "internalType": "uint256",
          "name": "",
          "type": "uint256"
        }
      ],
      "stateMutability": "view",
      "type": "function"
    },
    {
      "inputs": [],
      "name": "totalSupply",
      "outputs": [
        {
          "internalType": "uint256",
          "name": "",
          "type": "uint256"
        }
      ],
      "stateMutability": "view",
      "type": "function"
    },
    {
      "inputs": [
        {
          "internalType": "address",
          "name": "from",
          "type": "address"
        },
        {
          "internalType": "address",
          "name": "to",
          "type": "address"
        },
        {
          "internalType": "uint256",
          "name": "tokenId",
          "type": "uint256"
        }
      ],
      "name": "transferFrom",
      "outputs": [],
      "stateMutability": "nonpayable",
      "type": "function"
    },
    {
      "inputs": [
        {
          "internalType": "address",
          "name": "newOwner",
          "type": "address"
        }
      ],
      "name": "transferOwnership",
      "outputs": [],
      "stateMutability": "nonpayable",
      "type": "function"
    },
    {
      "inputs": [],
      "name": "unpause",
      "outputs": [],
      "stateMutability": "nonpayable",
      "type": "function"
    }
  ],
  "bytecode": "0x60806040526000600a553480156200001657600080fd5b50604051620039283803806200392883398181016040528101906200003c919062000346565b6040518060400160405280600881526020017f536e616b654e46540000000000000000000000000000000000000000000000008152506040518060400160405280600581526020017f534e414b450000000000000000000000000000000000000000000000000000008152508160009080519060200190620000c09291906200020d565b508060019080519060200190620000d99291906200020d565b5050506000600660006101000a81548160ff021916908315150217905550620001176200010b6200013f60201b60201c565b6200014760201b60201c565b81600890805190602001906200012f9291906200020d565b5080600981905550505062000534565b600033905090565b6000600660019054906101000a900473ffffffffffffffffffffffffffffffffffffffff16905081600660016101000a81548173ffffffffffffffffffffffffffffffffffffffff021916908373ffffffffffffffffffffffffffffffffffffffff1602179055508173ffffffffffffffffffffffffffffffffffffffff168173ffffffffffffffffffffffffffffffffffffffff167f8be0079c531659141344cd1fd0a4f28419497f9722a3daafe3b4186f6b6457e060405160405180910390a35050565b8280546200021b906200043f565b90600052602060002090601f0160209004810192826200023f57600085556200028b565b82601f106200025a57805160ff19168380011785556200028b565b828001600101855582156200028b579182015b828111156200028a5782518255916020019190600101906200026d565b5b5090506200029a91906200029e565b5090565b5b80821115620002b95760008160009055506001016200029f565b5090565b6000620002d4620002ce84620003c9565b620003a0565b905082815260208101848484011115620002ed57600080fd5b620002fa84828562000409565b509392505050565b600082601f8301126200031457600080fd5b815162000326848260208601620002bd565b91505092915050565b60008151905062000340816200051a565b92915050565b600080604083850312156200035a57600080fd5b600083015167ffffffffffffffff8111156200037557600080fd5b620003838582860162000302565b925050602062000396858286016200032f565b9150509250929050565b6000620003ac620003bf565b9050620003ba828262000475565b919050565b6000604051905090565b600067ffffffffffffffff821115620003e757620003e6620004da565b5b620003f28262000509565b9050602081019050919050565b6000819050919050565b60005b83811015620004295780820151818401526020810190506200040c565b8381111562000439576000848401525b50505050565b600060028204905060018216806200045857607f821691505b602082108114156200046f576200046e620004ab565b5b50919050565b620004808262000509565b810181811067ffffffffffffffff82111715620004a257620004a1620004da565b5b80604052505050565b7f4e487b7100000000000000000000000000000000000000000000000000000000600052602260045260246000fd5b7f4e487b7100000000000000000000000000000000000000000000000000000000600052604160045260246000fd5b6000601f19601f8301169050919050565b6200052581620003ff565b81146200053157600080fd5b50565b6133e480620005446000396000f3fe608060405234801561001057600080fd5b506004361061014d5760003560e01c80636a627842116100c3578063a22cb4651161007c578063a22cb46514610366578063a2309ff814610382578063b88d4fde146103a0578063c87b56dd146103bc578063e985e9c5146103ec578063f2fde38b1461041c5761014d565b80636a627842146102b657806370a08231146102e6578063715018a6146103165780638456cb59146103205780638da5cb5b1461032a57806395d89b41146103485761014d565b806323b872dd1161011557806323b872dd1461020a57806330176e13146102265780633f4ba83a1461024257806342842e0e1461024c5780635c975abb146102685780636352211e146102865761014d565b806301ffc9a71461015257806306fdde0314610182578063081812fc146101a0578063095ea7b3146101d057806318160ddd146101ec575b600080fd5b61016c6004803603810190610167919061227a565b610438565b604051610179919061274d565b60405180910390f35b61018a61051a565b6040516101979190612768565b60405180910390f35b6101ba60048036038101906101b5919061230d565b6105ac565b6040516101c791906126e6565b60405180910390f35b6101ea60048036038101906101e5919061223e565b610631565b005b6101f4610749565b6040516102019190612a0a565b60405180910390f35b610224600480360381019061021f9190612138565b61074f565b005b610240600480360381019061023b91906122cc565b6107af565b005b61024a610845565b005b61026660048036038101906102619190612138565b6108cb565b005b6102706108eb565b60405161027d919061274d565b60405180910390f35b6102a0600480360381019061029b919061230d565b610902565b6040516102ad91906126e6565b60405180910390f35b6102d060048036038101906102cb91906120d3565b6109b4565b6040516102dd9190612a0a565b60405180910390f35b61030060048036038101906102fb91906120d3565b610a42565b60405161030d9190612a0a565b60405180910390f35b61031e610afa565b005b610328610b82565b005b610332610c08565b60405161033f91906126e6565b60405180910390f35b610350610c32565b60405161035d9190612768565b60405180910390f35b610380600480360381019061037b9190612202565b610cc4565b005b61038a610cda565b6040516103979190612a0a565b60405180910390f35b6103ba60048036038101906103b59190612187565b610ce0565b005b6103d660048036038101906103d1919061230d565b610d42565b6040516103e39190612768565b60405180910390f35b610406600480360381019061040191906120fc565b610de9565b604051610413919061274d565b60405180910390f35b610436600480360381019061043191906120d3565b610e7d565b005b60007f80ac58cd000000000000000000000000000000000000000000000000000000007bffffffffffffffffffffffffffffffffffffffffffffffffffffffff1916827bffffffffffffffffffffffffffffffffffffffffffffffffffffffff1916148061050357507f5b5e139f000000000000000000000000000000000000000000000000000000007bffffffffffffffffffffffffffffffffffffffffffffffffffffffff1916827bffffffffffffffffffffffffffffffffffffffffffffffffffffffff1916145b80610513575061051282610f75565b5b9050919050565b60606000805461052990612c60565b80601f016020809104026020016040519081016040528092919081815260200182805461055590612c60565b80156105a25780601f10610577576101008083540402835291602001916105a2565b820191906000526020600020905b81548152906001019060200180831161058557829003601f168201915b5050505050905090565b60006105b782610fdf565b6105f6576040517f08c379a00000000000000000000000000000000000000000000000000000000081526004016105ed9061296a565b60405180910390fd5b6004600083815260200190815260200160002060009054906101000a900473ffffffffffffffffffffffffffffffffffffffff169050919050565b600061063c82610902565b90508073ffffffffffffffffffffffffffffffffffffffff168373ffffffffffffffffffffffffffffffffffffffff1614156106ad576040517f08c379a00000000000000000000000000000000000000000000000000000000081526004016106a4906129ca565b60405180910390fd5b8073ffffffffffffffffffffffffffffffffffffffff166106cc61104b565b73ffffffffffffffffffffffffffffffffffffffff1614806106fb57506106fa816106f561104b565b610de9565b5b61073a576040517f08c379a0000000000000000000000000000000000000000000000000000000008152600401610731906128ea565b60405180910390fd5b6107448383611053565b505050565b60095481565b61076061075a61104b565b8261110c565b61079f576040517f08c379a0000000000000000000000000000000000000000000000000000000008152600401610796906129ea565b60405180910390fd5b6107aa8383836111ea565b505050565b6107b761104b565b73ffffffffffffffffffffffffffffffffffffffff166107d5610c08565b73ffffffffffffffffffffffffffffffffffffffff161461082b576040517f08c379a00000000000000000000000000000000000000000000000000000000081526004016108229061298a565b60405180910390fd5b8060089080519060200190610841929190611ef7565b5050565b61084d61104b565b73ffffffffffffffffffffffffffffffffffffffff1661086b610c08565b73ffffffffffffffffffffffffffffffffffffffff16146108c1576040517f08c379a00000000000000000000000000000000000000000000000000000000081526004016108b89061298a565b60405180910390fd5b6108c9611451565b565b6108e683838360405180602001604052806000815250610ce0565b505050565b6000600660009054906101000a900460ff16905090565b6000806002600084815260200190815260200160002060009054906101000a900473ffffffffffffffffffffffffffffffffffffffff169050600073ffffffffffffffffffffffffffffffffffffffff168173ffffffffffffffffffffffffffffffffffffffff1614156109ab576040517f08c379a00000000000000000000000000000000000000000000000000000000081526004016109a29061292a565b60405180910390fd5b80915050919050565b6000600954600a54106109fc576040517f08c379a00000000000000000000000000000000000000000000000000000000081526004016109f3906128aa565b60405180910390fd5b610a0660076114f3565b610a1982610a146007611509565b611517565b600a6000815480929190610a2c90612cc3565b9190505550610a3b6007611509565b9050919050565b60008073ffffffffffffffffffffffffffffffffffffffff168273ffffffffffffffffffffffffffffffffffffffff161415610ab3576040517f08c379a0000000000000000000000000000000000000000000000000000000008152600401610aaa9061290a565b60405180910390fd5b600360008373ffffffffffffffffffffffffffffffffffffffff1673ffffffffffffffffffffffffffffffffffffffff168152602001908152602001600020549050919050565b610b0261104b565b73ffffffffffffffffffffffffffffffffffffffff16610b20610c08565b73ffffffffffffffffffffffffffffffffffffffff1614610b76576040517f08c379a0000000000000000000000000000000000000000000000000000000008152600401610b6d9061298a565b60405180910390fd5b610b806000611535565b565b610b8a61104b565b73ffffffffffffffffffffffffffffffffffffffff16610ba8610c08565b73ffffffffffffffffffffffffffffffffffffffff1614610bfe576040517f08c379a0000000000000000000000000000000000000000000000000000000008152600401610bf59061298a565b60405180910390fd5b610c066115fb565b565b6000600660019054906101000a900473ffffffffffffffffffffffffffffffffffffffff16905090565b606060018054610c4190612c60565b80601f0160208091040260200160405190810160405280929190818152602001828054610c6d90612c60565b8015610cba5780601f10610c8f57610100808354040283529160200191610cba565b820191906000526020600020905b815481529060010190602001808311610c9d57829003601f168201915b5050505050905090565b610cd6610ccf61104b565b838361169e565b5050565b600a5481565b610cf1610ceb61104b565b8361110c565b610d30576040517f08c379a0000000000000000000000000000000000000000000000000000000008152600401610d27906129ea565b60405180910390fd5b610d3c8484848461180b565b50505050565b6060610d4d82610fdf565b610d8c576040517f08c379a0000000000000000000000000000000000000000000000000000000008152600401610d83906129aa565b60405180910390fd5b6000610d96611867565b90506000815111610db65760405180602001604052806000815250610de1565b80610dc0846118f9565b604051602001610dd19291906126c2565b6040516020818303038152906040525b915050919050565b6000600560008473ffffffffffffffffffffffffffffffffffffffff1673ffffffffffffffffffffffffffffffffffffffff16815260200190815260200160002060008373ffffffffffffffffffffffffffffffffffffffff1673ffffffffffffffffffffffffffffffffffffffff16815260200190815260200160002060009054906101000a900460ff16905092915050565b610e8561104b565b73ffffffffffffffffffffffffffffffffffffffff16610ea3610c08565b73ffffffffffffffffffffffffffffffffffffffff1614610ef9576040517f08c379a0000000000000000000000000000000000000000000000000000000008152600401610ef09061298a565b60405180910390fd5b600073ffffffffffffffffffffffffffffffffffffffff168173ffffffffffffffffffffffffffffffffffffffff161415610f69576040517f08c379a0000000000000000000000000000000000000000000000000000000008152600401610f60906127ea565b60405180910390fd5b610f7281611535565b50565b60007f01ffc9a7000000000000000000000000000000000000000000000000000000007bffffffffffffffffffffffffffffffffffffffffffffffffffffffff1916827bffffffffffffffffffffffffffffffffffffffffffffffffffffffff1916149050919050565b60008073ffffffffffffffffffffffffffffffffffffffff166002600084815260200190815260200160002060009054906101000a900473ffffffffffffffffffffffffffffffffffffffff1673ffffffffffffffffffffffffffffffffffffffff1614159050919050565b600033905090565b816004600083815260200190815260200160002060006101000a81548173ffffffffffffffffffffffffffffffffffffffff021916908373ffffffffffffffffffffffffffffffffffffffff160217905550808273ffffffffffffffffffffffffffffffffffffffff166110c683610902565b73ffffffffffffffffffffffffffffffffffffffff167f8c5be1e5ebec7d5bd14f71427d1e84f3dd0314c0f7b2291e5b200ac8c7c3b92560405160405180910390a45050565b600061111782610fdf565b611156576040517f08c379a000000000000000000000000000000000000000000000000000000000815260040161114d9061288a565b60405180910390fd5b600061116183610902565b90508073ffffffffffffffffffffffffffffffffffffffff168473ffffffffffffffffffffffffffffffffffffffff1614806111d057508373ffffffffffffffffffffffffffffffffffffffff166111b8846105ac565b73ffffffffffffffffffffffffffffffffffffffff16145b806111e157506111e08185610de9565b5b91505092915050565b8273ffffffffffffffffffffffffffffffffffffffff1661120a82610902565b73ffffffffffffffffffffffffffffffffffffffff1614611260576040517f08c379a00000000000000000000000000000000000000000000000000000000081526004016112579061280a565b60405180910390fd5b600073ffffffffffffffffffffffffffffffffffffffff168273ffffffffffffffffffffffffffffffffffffffff1614156112d0576040517f08c379a00000000000000000000000000000000000000000000000000000000081526004016112c79061284a565b60405180910390fd5b6112db838383611aa6565b6112e6600082611053565b6001600360008573ffffffffffffffffffffffffffffffffffffffff1673ffffffffffffffffffffffffffffffffffffffff16815260200190815260200160002060008282546113369190612b76565b925050819055506001600360008473ffffffffffffffffffffffffffffffffffffffff1673ffffffffffffffffffffffffffffffffffffffff168152602001908152602001600020600082825461138d9190612aef565b92505081905550816002600083815260200190815260200160002060006101000a81548173ffffffffffffffffffffffffffffffffffffffff021916908373ffffffffffffffffffffffffffffffffffffffff160217905550808273ffffffffffffffffffffffffffffffffffffffff168473ffffffffffffffffffffffffffffffffffffffff167fddf252ad1be2c89b69c2b068fc378daa952ba7f163c4a11628f55a4df523b3ef60405160405180910390a461144c838383611afe565b505050565b6114596108eb565b611498576040517f08c379a000000000000000000000000000000000000000000000000000000000815260040161148f906127aa565b60405180910390fd5b6000600660006101000a81548160ff0219169083151502179055507f5db9ee0a495bf2e6ff9c91a7834c1ba4fdd244a5e8aa4e537bd38aeae4b073aa6114dc61104b565b6040516114e991906126e6565b60405180910390a1565b6001816000016000828254019250508190555050565b600081600001549050919050565b611531828260405180602001604052806000815250611b03565b5050565b6000600660019054906101000a900473ffffffffffffffffffffffffffffffffffffffff16905081600660016101000a81548173ffffffffffffffffffffffffffffffffffffffff021916908373ffffffffffffffffffffffffffffffffffffffff1602179055508173ffffffffffffffffffffffffffffffffffffffff168173ffffffffffffffffffffffffffffffffffffffff167f8be0079c531659141344cd1fd0a4f28419497f9722a3daafe3b4186f6b6457e060405160405180910390a35050565b6116036108eb565b15611643576040517f08c379a000000000000000000000000000000000000000000000000000000000815260040161163a906128ca565b60405180910390fd5b6001600660006101000a81548160ff0219169083151502179055507f62e78cea01bee320cd4e420270b5ea74000d11b0c9f74754ebdbfc544b05a25861168761104b565b60405161169491906126e6565b60405180910390a1565b8173ffffffffffffffffffffffffffffffffffffffff168373ffffffffffffffffffffffffffffffffffffffff16141561170d576040517f08c379a00000000000000000000000000000000000000000000000000000000081526004016117049061286a565b60405180910390fd5b80600560008573ffffffffffffffffffffffffffffffffffffffff1673ffffffffffffffffffffffffffffffffffffffff16815260200190815260200160002060008473ffffffffffffffffffffffffffffffffffffffff1673ffffffffffffffffffffffffffffffffffffffff16815260200190815260200160002060006101000a81548160ff0219169083151502179055508173ffffffffffffffffffffffffffffffffffffffff168373ffffffffffffffffffffffffffffffffffffffff167f17307eab39ab6107e8899845ad3d59bd9653f200f220920489ca2b5937696c31836040516117fe919061274d565b60405180910390a3505050565b6118168484846111ea565b61182284848484611b5e565b611861576040517f08c379a0000000000000000000000000000000000000000000000000000000008152600401611858906127ca565b60405180910390fd5b50505050565b60606008805461187690612c60565b80601f01602080910402602001604051908101604052809291908181526020018280546118a290612c60565b80156118ef5780601f106118c4576101008083540402835291602001916118ef565b820191906000526020600020905b8154815290600101906020018083116118d257829003601f168201915b5050505050905090565b60606000821415611941576040518060400160405280600181526020017f30000000000000000000000000000000000000000000000000000000000000008152509050611aa1565b600082905060005b6000821461197357808061195c90612cc3565b915050600a8261196c9190612b45565b9150611949565b60008167ffffffffffffffff8111156119b5577f4e487b7100000000000000000000000000000000000000000000000000000000600052604160045260246000fd5b6040519080825280601f01601f1916602001820160405280156119e75781602001600182028036833780820191505090505b5090505b60008514611a9a57600182611a009190612b76565b9150600a85611a0f9190612d0c565b6030611a1b9190612aef565b60f81b818381518110611a57577f4e487b7100000000000000000000000000000000000000000000000000000000600052603260045260246000fd5b60200101907effffffffffffffffffffffffffffffffffffffffffffffffffffffffffffff1916908160001a905350600a85611a939190612b45565b94506119eb565b8093505050505b919050565b611ab1838383611cf5565b611ab96108eb565b15611af9576040517f08c379a0000000000000000000000000000000000000000000000000000000008152600401611af09061278a565b60405180910390fd5b505050565b505050565b611b0d8383611cfa565b611b1a6000848484611b5e565b611b59576040517f08c379a0000000000000000000000000000000000000000000000000000000008152600401611b50906127ca565b60405180910390fd5b505050565b6000611b7f8473ffffffffffffffffffffffffffffffffffffffff16611ed4565b15611ce8578373ffffffffffffffffffffffffffffffffffffffff1663150b7a02611ba861104b565b8786866040518563ffffffff1660e01b8152600401611bca9493929190612701565b602060405180830381600087803b158015611be457600080fd5b505af1925050508015611c1557506040513d601f19601f82011682018060405250810190611c1291906122a3565b60015b611c98573d8060008114611c45576040519150601f19603f3d011682016040523d82523d6000602084013e611c4a565b606091505b50600081511415611c90576040517f08c379a0000000000000000000000000000000000000000000000000000000008152600401611c87906127ca565b60405180910390fd5b805181602001fd5b63150b7a0260e01b7bffffffffffffffffffffffffffffffffffffffffffffffffffffffff1916817bffffffffffffffffffffffffffffffffffffffffffffffffffffffff191614915050611ced565b600190505b949350505050565b505050565b600073ffffffffffffffffffffffffffffffffffffffff168273ffffffffffffffffffffffffffffffffffffffff161415611d6a576040517f08c379a0000000000000000000000000000000000000000000000000000000008152600401611d619061294a565b60405180910390fd5b611d7381610fdf565b15611db3576040517f08c379a0000000000000000000000000000000000000000000000000000000008152600401611daa9061282a565b60405180910390fd5b611dbf60008383611aa6565b6001600360008473ffffffffffffffffffffffffffffffffffffffff1673ffffffffffffffffffffffffffffffffffffffff1681526020019081526020016000206000828254611e0f9190612aef565b92505081905550816002600083815260200190815260200160002060006101000a81548173ffffffffffffffffffffffffffffffffffffffff021916908373ffffffffffffffffffffffffffffffffffffffff160217905550808273ffffffffffffffffffffffffffffffffffffffff16600073ffffffffffffffffffffffffffffffffffffffff167fddf252ad1be2c89b69c2b068fc378daa952ba7f163c4a11628f55a4df523b3ef60405160405180910390a4611ed060008383611afe565b5050565b6000808273ffffffffffffffffffffffffffffffffffffffff163b119050919050565b828054611f0390612c60565b90600052602060002090601f016020900481019282611f255760008555611f6c565b82601f10611f3e57805160ff1916838001178555611f6c565b82800160010185558215611f6c579182015b82811115611f6b578251825591602001919060010190611f50565b5b509050611f799190611f7d565b5090565b5b80821115611f96576000816000905550600101611f7e565b5090565b6000611fad611fa884612a4a565b612a25565b905082815260208101848484011115611fc557600080fd5b611fd0848285612c1e565b509392505050565b6000611feb611fe684612a7b565b612a25565b90508281526020810184848401111561200357600080fd5b61200e848285612c1e565b509392505050565b60008135905061202581613352565b92915050565b60008135905061203a81613369565b92915050565b60008135905061204f81613380565b92915050565b60008151905061206481613380565b92915050565b600082601f83011261207b57600080fd5b813561208b848260208601611f9a565b91505092915050565b600082601f8301126120a557600080fd5b81356120b5848260208601611fd8565b91505092915050565b6000813590506120cd81613397565b92915050565b6000602082840312156120e557600080fd5b60006120f384828501612016565b91505092915050565b6000806040838503121561210f57600080fd5b600061211d85828601612016565b925050602061212e85828601612016565b9150509250929050565b60008060006060848603121561214d57600080fd5b600061215b86828701612016565b935050602061216c86828701612016565b925050604061217d868287016120be565b9150509250925092565b6000806000806080858703121561219d57600080fd5b60006121ab87828801612016565b94505060206121bc87828801612016565b93505060406121cd878288016120be565b925050606085013567ffffffffffffffff8111156121ea57600080fd5b6121f68782880161206a565b91505092959194509250565b6000806040838503121561221557600080fd5b600061222385828601612016565b92505060206122348582860161202b565b9150509250929050565b6000806040838503121561225157600080fd5b600061225f85828601612016565b9250506020612270858286016120be565b9150509250929050565b60006020828403121561228c57600080fd5b600061229a84828501612040565b91505092915050565b6000602082840312156122b557600080fd5b60006122c384828501612055565b91505092915050565b6000602082840312156122de57600080fd5b600082013567ffffffffffffffff8111156122f857600080fd5b61230484828501612094565b91505092915050565b60006020828403121561231f57600080fd5b600061232d848285016120be565b91505092915050565b61233f81612baa565b82525050565b61234e81612bbc565b82525050565b600061235f82612aac565b6123698185612ac2565b9350612379818560208601612c2d565b61238281612df9565b840191505092915050565b600061239882612ab7565b6123a28185612ad3565b93506123b2818560208601612c2d565b6123bb81612df9565b840191505092915050565b60006123d182612ab7565b6123db8185612ae4565b93506123eb818560208601612c2d565b80840191505092915050565b6000612404602b83612ad3565b915061240f82612e0a565b604082019050919050565b6000612427601483612ad3565b915061243282612e59565b602082019050919050565b600061244a603283612ad3565b915061245582612e82565b604082019050919050565b600061246d602683612ad3565b915061247882612ed1565b604082019050919050565b6000612490602583612ad3565b915061249b82612f20565b604082019050919050565b60006124b3601c83612ad3565b91506124be82612f6f565b602082019050919050565b60006124d6602483612ad3565b91506124e182612f98565b604082019050919050565b60006124f9601983612ad3565b915061250482612fe7565b602082019050919050565b600061251c602c83612ad3565b915061252782613010565b604082019050919050565b600061253f602f83612ad3565b915061254a8261305f565b604082019050919050565b6000612562601083612ad3565b915061256d826130ae565b602082019050919050565b6000612585603883612ad3565b9150612590826130d7565b604082019050919050565b60006125a8602a83612ad3565b91506125b382613126565b604082019050919050565b60006125cb602983612ad3565b91506125d682613175565b604082019050919050565b60006125ee602083612ad3565b91506125f9826131c4565b602082019050919050565b6000612611602c83612ad3565b915061261c826131ed565b604082019050919050565b6000612634602083612ad3565b915061263f8261323c565b602082019050919050565b6000612657602f83612ad3565b915061266282613265565b604082019050919050565b600061267a602183612ad3565b9150612685826132b4565b604082019050919050565b600061269d603183612ad3565b91506126a882613303565b604082019050919050565b6126bc81612c14565b82525050565b60006126ce82856123c6565b91506126da82846123c6565b91508190509392505050565b60006020820190506126fb6000830184612336565b92915050565b60006080820190506127166000830187612336565b6127236020830186612336565b61273060408301856126b3565b81810360608301526127428184612354565b905095945050505050565b60006020820190506127626000830184612345565b92915050565b60006020820190508181036000830152612782818461238d565b905092915050565b600060208201905081810360008301526127a3816123f7565b9050919050565b600060208201905081810360008301526127c38161241a565b9050919050565b600060208201905081810360008301526127e38161243d565b9050919050565b6000602082019050818103600083015261280381612460565b9050919050565b6000602082019050818103600083015261282381612483565b9050919050565b60006020820190508181036000830152612843816124a6565b9050919050565b60006020820190508181036000830152612863816124c9565b9050919050565b60006020820190508181036000830152612883816124ec565b9050919050565b600060208201905081810360008301526128a38161250f565b9050919050565b600060208201905081810360008301526128c381612532565b9050919050565b600060208201905081810360008301526128e381612555565b9050919050565b6000602082019050818103600083015261290381612578565b9050919050565b600060208201905081810360008301526129238161259b565b9050919050565b60006020820190508181036000830152612943816125be565b9050919050565b60006020820190508181036000830152612963816125e1565b9050919050565b6000602082019050818103600083015261298381612604565b9050919050565b600060208201905081810360008301526129a381612627565b9050919050565b600060208201905081810360008301526129c38161264a565b9050919050565b600060208201905081810360008301526129e38161266d565b9050919050565b60006020820190508181036000830152612a0381612690565b9050919050565b6000602082019050612a1f60008301846126b3565b92915050565b6000612a2f612a40565b9050612a3b8282612c92565b919050565b6000604051905090565b600067ffffffffffffffff821115612a6557612a64612dca565b5b612a6e82612df9565b9050602081019050919050565b600067ffffffffffffffff821115612a9657612a95612dca565b5b612a9f82612df9565b9050602081019050919050565b600081519050919050565b600081519050919050565b600082825260208201905092915050565b600082825260208201905092915050565b600081905092915050565b6000612afa82612c14565b9150612b0583612c14565b9250827fffffffffffffffffffffffffffffffffffffffffffffffffffffffffffffffff03821115612b3a57612b39612d3d565b5b828201905092915050565b6000612b5082612c14565b9150612b5b83612c14565b925082612b6b57612b6a612d6c565b5b828204905092915050565b6000612b8182612c14565b9150612b8c83612c14565b925082821015612b9f57612b9e612d3d565b5b828203905092915050565b6000612bb582612bf4565b9050919050565b60008115159050919050565b60007fffffffff0000000000000000000000000000000000000000000000000000000082169050919050565b600073ffffffffffffffffffffffffffffffffffffffff82169050919050565b6000819050919050565b82818337600083830152505050565b60005b83811015612c4b578082015181840152602081019050612c30565b83811115612c5a576000848401525b50505050565b60006002820490506001821680612c7857607f821691505b60208210811415612c8c57612c8b612d9b565b5b50919050565b612c9b82612df9565b810181811067ffffffffffffffff82111715612cba57612cb9612dca565b5b80604052505050565b6000612cce82612c14565b91507fffffffffffffffffffffffffffffffffffffffffffffffffffffffffffffffff821415612d0157612d00612d3d565b5b600182019050919050565b6000612d1782612c14565b9150612d2283612c14565b925082612d3257612d31612d6c565b5b828206905092915050565b7f4e487b7100000000000000000000000000000000000000000000000000000000600052601160045260246000fd5b7f4e487b7100000000000000000000000000000000000000000000000000000000600052601260045260246000fd5b7f4e487b7100000000000000000000000000000000000000000000000000000000600052602260045260246000fd5b7f4e487b7100000000000000000000000000000000000000000000000000000000600052604160045260246000fd5b6000601f19601f8301169050919050565b7f4552433732315061757361626c653a20746f6b656e207472616e73666572207760008201527f68696c6520706175736564000000000000000000000000000000000000000000602082015250565b7f5061757361626c653a206e6f7420706175736564000000000000000000000000600082015250565b7f4552433732313a207472616e7366657220746f206e6f6e20455243373231526560008201527f63656976657220696d706c656d656e7465720000000000000000000000000000602082015250565b7f4f776e61626c653a206e6577206f776e657220697320746865207a65726f206160008201527f6464726573730000000000000000000000000000000000000000000000000000602082015250565b7f4552433732313a207472616e736665722066726f6d20696e636f72726563742060008201527f6f776e6572000000000000000000000000000000000000000000000000000000602082015250565b7f4552433732313a20746f6b656e20616c7265616479206d696e74656400000000600082015250565b7f4552433732313a207472616e7366657220746f20746865207a65726f2061646460008201527f7265737300000000000000000000000000000000000000000000000000000000602082015250565b7f4552433732313a20617070726f766520746f2063616c6c657200000000000000600082015250565b7f4552433732313a206f70657261746f7220717565727920666f72206e6f6e657860008201527f697374656e7420746f6b656e0000000000000000000000000000000000000000602082015250565b7f546f74616c20737570706c792065786365656465642c206e6f206d6f7265206160008201527f7661696c61626c6520746f6b656e730000000000000000000000000000000000602082015250565b7f5061757361626c653a2070617573656400000000000000000000000000000000600082015250565b7f4552433732313a20617070726f76652063616c6c6572206973206e6f74206f7760008201527f6e6572206e6f7220617070726f76656420666f7220616c6c0000000000000000602082015250565b7f4552433732313a2062616c616e636520717565727920666f7220746865207a6560008201527f726f206164647265737300000000000000000000000000000000000000000000602082015250565b7f4552433732313a206f776e657220717565727920666f72206e6f6e657869737460008201527f656e7420746f6b656e0000000000000000000000000000000000000000000000602082015250565b7f4552433732313a206d696e7420746f20746865207a65726f2061646472657373600082015250565b7f4552433732313a20617070726f76656420717565727920666f72206e6f6e657860008201527f697374656e7420746f6b656e0000000000000000000000000000000000000000602082015250565b7f4f776e61626c653a2063616c6c6572206973206e6f7420746865206f776e6572600082015250565b7f4552433732314d657461646174613a2055524920717565727920666f72206e6f60008201527f6e6578697374656e7420746f6b656e0000000000000000000000000000000000602082015250565b7f4552433732313a20617070726f76616c20746f2063757272656e74206f776e6560008201527f7200000000000000000000000000000000000000000000000000000000000000602082015250565b7f4552433732313a207472616e736665722063616c6c6572206973206e6f74206f60008201527f776e6572206e6f7220617070726f766564000000000000000000000000000000602082015250565b61335b81612baa565b811461336657600080fd5b50565b61337281612bbc565b811461337d57600080fd5b50565b61338981612bc8565b811461339457600080fd5b50565b6133a081612c14565b81146133ab57600080fd5b5056fea264697066735822122024ff723f9ef56c65671f8a9b4ac54ec6a3178a4b5862ed179ef0f6d57c9c87b364736f6c63430008010033",
  "linkReferences": {},
  "deployedLinkReferences": {}
}