{
  "_format": "hh-sol-artifact-1",
  "contractName": "SnakeNFT",
  "sourceName": "contracts/SnakeNFT.sol",
  "abi": [
    {
      "inputs": [
        {
          "internalType": "string",
          "name": "_baseTokenURI",
          "type": "string"
        },
        {
          "internalType": "uint256",
          "name": "_totalSupply",
          "type": "uint256"
        }
      ],
      "stateMutability": "nonpayable",
      "type": "constructor"
    },
    {
      "anonymous": false,
      "inputs": [
        {
          "indexed": true,
          "internalType": "address",
          "name": "owner",
          "type": "address"
        },
        {
          "indexed": true,
          "internalType": "address",
          "name": "approved",
          "type": "address"
        },
        {
          "indexed": true,
          "internalType": "uint256",
          "name": "tokenId",
          "type": "uint256"
        }
      ],
      "name": "Approval",
      "type": "event"
    },
    {
      "anonymous": false,
      "inputs": [
        {
          "indexed": true,
          "internalType": "address",
          "name": "owner",
          "type": "address"
        },
        {
          "indexed": true,
          "internalType": "address",
          "name": "operator",
          "type": "address"
        },
        {
          "indexed": false,
          "internalType": "bool",
          "name": "approved",
          "type": "bool"
        }
      ],
      "name": "ApprovalForAll",
      "type": "event"
    },
    {
      "anonymous": false,
      "inputs": [
        {
          "indexed": true,
          "internalType": "address",
          "name": "previousOwner",
          "type": "address"
        },
        {
          "indexed": true,
          "internalType": "address",
          "name": "newOwner",
          "type": "address"
        }
      ],
      "name": "OwnershipTransferred",
      "type": "event"
    },
    {
      "anonymous": false,
      "inputs": [
        {
          "indexed": false,
          "internalType": "address",
          "name": "account",
          "type": "address"
        }
      ],
      "name": "Paused",
      "type": "event"
    },
    {
      "anonymous": false,
      "inputs": [
        {
          "indexed": true,
          "internalType": "address",
          "name": "from",
          "type": "address"
        },
        {
          "indexed": true,
          "internalType": "address",
          "name": "to",
          "type": "address"
        },
        {
          "indexed": true,
          "internalType": "uint256",
          "name": "tokenId",
          "type": "uint256"
        }
      ],
      "name": "Transfer",
      "type": "event"
    },
    {
      "anonymous": false,
      "inputs": [
        {
          "indexed": false,
          "internalType": "address",
          "name": "account",
          "type": "address"
        }
      ],
      "name": "Unpaused",
      "type": "event"
    },
    {
      "inputs": [
        {
          "internalType": "address",
          "name": "to",
          "type": "address"
        },
        {
          "internalType": "uint256",
          "name": "tokenId",
          "type": "uint256"
        }
      ],
      "name": "approve",
      "outputs": [],
      "stateMutability": "nonpayable",
      "type": "function"
    },
    {
      "inputs": [
        {
          "internalType": "address",
          "name": "owner",
          "type": "address"
        }
      ],
      "name": "balanceOf",
      "outputs": [
        {
          "internalType": "uint256",
          "name": "",
          "type": "uint256"
        }
      ],
      "stateMutability": "view",
      "type": "function"
    },
    {
      "inputs": [
        {
          "internalType": "uint256",
          "name": "tokenId",
          "type": "uint256"
        }
      ],
      "name": "getApproved",
      "outputs": [
        {
          "internalType": "address",
          "name": "",
          "type": "address"
        }
      ],
      "stateMutability": "view",
      "type": "function"
    },
    {
      "inputs": [
        {
          "internalType": "address",
          "name": "owner",
          "type": "address"
        },
        {
          "internalType": "address",
          "name": "operator",
          "type": "address"
        }
      ],
      "name": "isApprovedForAll",
      "outputs": [
        {
          "internalType": "bool",
          "name": "",
          "type": "bool"
        }
      ],
      "stateMutability": "view",
      "type": "function"
    },
    {
      "inputs": [
        {
          "internalType": "address",
          "name": "to",
          "type": "address"
        }
      ],
      "name": "mint",
      "outputs": [
        {
          "internalType": "uint256",
          "name": "",
          "type": "uint256"
        }
      ],
      "stateMutability": "nonpayable",
      "type": "function"
    },
    {
      "inputs": [],
      "name": "name",
      "outputs": [
        {
          "internalType": "string",
          "name": "",
          "type": "string"
        }
      ],
      "stateMutability": "view",
      "type": "function"
    },
    {
      "inputs": [],
      "name": "owner",
      "outputs": [
        {
          "internalType": "address",
          "name": "",
          "type": "address"
        }
      ],
      "stateMutability": "view",
      "type": "function"
    },
    {
      "inputs": [
        {
          "internalType": "uint256",
          "name": "tokenId",
          "type": "uint256"
        }
      ],
      "name": "ownerOf",
      "outputs": [
        {
          "internalType": "address",
          "name": "",
          "type": "address"
        }
      ],
      "stateMutability": "view",
      "type": "function"
    },
    {
      "inputs": [],
      "name": "pause",
      "outputs": [],
      "stateMutability": "nonpayable",
      "type": "function"
    },
    {
      "inputs": [],
      "name": "paused",
      "outputs": [
        {
          "internalType": "bool",
          "name": "",
          "type": "bool"
        }
      ],
      "stateMutability": "view",
      "type": "function"
    },
    {
      "inputs": [],
      "name": "renounceOwnership",
      "outputs": [],
      "stateMutability": "nonpayable",
      "type": "function"
    },
    {
      "inputs": [
        {
          "internalType": "address",
          "name": "from",
          "type": "address"
        },
        {
          "internalType": "address",
          "name": "to",
          "type": "address"
        },
        {
          "internalType": "uint256",
          "name": "tokenId",
          "type": "uint256"
        }
      ],
      "name": "safeTransferFrom",
      "outputs": [],
      "stateMutability": "nonpayable",
      "type": "function"
    },
    {
      "inputs": [
        {
          "internalType": "address",
          "name": "from",
          "type": "address"
        },
        {
          "internalType": "address",
          "name": "to",
          "type": "address"
        },
        {
          "internalType": "uint256",
          "name": "tokenId",
          "type": "uint256"
        },
        {
          "internalType": "bytes",
          "name": "_data",
          "type": "bytes"
        }
      ],
      "name": "safeTransferFrom",
      "outputs": [],
      "stateMutability": "nonpayable",
      "type": "function"
    },
    {
      "inputs": [
        {
          "internalType": "address",
          "name": "operator",
          "type": "address"
        },
        {
          "internalType": "bool",
          "name": "approved",
          "type": "bool"
        }
      ],
      "name": "setApprovalForAll",
      "outputs": [],
      "stateMutability": "nonpayable",
      "type": "function"
    },
    {
      "inputs": [
        {
          "internalType": "string",
          "name": "_baseTokenURI",
          "type": "string"
        }
      ],
      "name": "setBaseTokenURI",
      "outputs": [],
      "stateMutability": "nonpayable",
      "type": "function"
    },
    {
      "inputs": [
        {
          "internalType": "bytes4",
          "name": "interfaceId",
          "type": "bytes4"
        }
      ],
      "name": "supportsInterface",
      "outputs": [
        {
          "internalType": "bool",
          "name": "",
          "type": "bool"
        }
      ],
      "stateMutability": "view",
      "type": "function"
    },
    {
      "inputs": [],
      "name": "symbol",
      "outputs": [
        {
          "internalType": "string",
          "name": "",
          "type": "string"
        }
      ],
      "stateMutability": "view",
      "type": "function"
    },
    {
      "inputs": [
        {
          "internalType": "uint256",
          "name": "tokenId",
          "type": "uint256"
        }
      ],
      "name": "tokenURI",
      "outputs": [
        {
          "internalType": "string",
          "name": "",
          "type": "string"
        }
      ],
      "stateMutability": "view",
      "type": "function"
    },
    {
      "inputs": [],
      "name": "totalMinted",
      "outputs": [
        {
          "internalType": "uint256",
          "name": "",
          "type": "uint256"
        }
      ],
      "stateMutability": "view",
      "type": "function"
    },
    {
      "inputs": [],
      "name": "totalSupply",
      "outputs": [
        {
          "internalType": "uint256",
          "name": "",
          "type": "uint256"
        }
      ],
      "stateMutability": "view",
      "type": "function"
    },
    {
      "inputs": [
        {
          "internalType": "address",
          "name": "from",
          "type": "address"
        },
        {
          "internalType": "address",
          "name": "to",
          "type": "address"
        },
        {
          "internalType": "uint256",
          "name": "tokenId",
          "type": "uint256"
        }
      ],
      "name": "transferFrom",
      "outputs": [],
      "stateMutability": "nonpayable",
      "type": "function"
    },
    {
      "inputs": [
        {
          "internalType": "address",
          "name": "newOwner",
          "type": "address"
        }
      ],
      "name": "transferOwnership",
      "outputs": [],
      "stateMutability": "nonpayable",
      "type": "function"
    },
    {
      "inputs": [],
      "name": "unpause",
      "outputs": [],
      "stateMutability": "nonpayable",
      "type": "function"
    }
  ],
  "bytecode": "0x60806040526000600a553480156200001657600080fd5b50604051620038863803806200388683398181016040528101906200003c919062000346565b6040518060400160405280600881526020017f536e616b654e46540000000000000000000000000000000000000000000000008152506040518060400160405280600581526020017f534e414b450000000000000000000000000000000000000000000000000000008152508160009080519060200190620000c09291906200020d565b508060019080519060200190620000d99291906200020d565b505050620000fc620000f06200013f60201b60201c565b6200014760201b60201c565b6000600660146101000a81548160ff02191690831515021790555081600890805190602001906200012f9291906200020d565b5080600981905550505062000534565b600033905090565b6000600660009054906101000a900473ffffffffffffffffffffffffffffffffffffffff16905081600660006101000a81548173ffffffffffffffffffffffffffffffffffffffff021916908373ffffffffffffffffffffffffffffffffffffffff1602179055508173ffffffffffffffffffffffffffffffffffffffff168173ffffffffffffffffffffffffffffffffffffffff167f8be0079c531659141344cd1fd0a4f28419497f9722a3daafe3b4186f6b6457e060405160405180910390a35050565b8280546200021b906200043f565b90600052602060002090601f0160209004810192826200023f57600085556200028b565b82601f106200025a57805160ff19168380011785556200028b565b828001600101855582156200028b579182015b828111156200028a5782518255916020019190600101906200026d565b5b5090506200029a91906200029e565b5090565b5b80821115620002b95760008160009055506001016200029f565b5090565b6000620002d4620002ce84620003c9565b620003a0565b905082815260208101848484011115620002ed57600080fd5b620002fa84828562000409565b509392505050565b600082601f8301126200031457600080fd5b815162000326848260208601620002bd565b91505092915050565b60008151905062000340816200051a565b92915050565b600080604083850312156200035a57600080fd5b600083015167ffffffffffffffff8111156200037557600080fd5b620003838582860162000302565b925050602062000396858286016200032f565b9150509250929050565b6000620003ac620003bf565b9050620003ba828262000475565b919050565b6000604051905090565b600067ffffffffffffffff821115620003e757620003e6620004da565b5b620003f28262000509565b9050602081019050919050565b6000819050919050565b60005b83811015620004295780820151818401526020810190506200040c565b8381111562000439576000848401525b50505050565b600060028204905060018216806200045857607f821691505b602082108114156200046f576200046e620004ab565b5b50919050565b620004808262000509565b810181811067ffffffffffffffff82111715620004a257620004a1620004da565b5b80604052505050565b7f4e487b7100000000000000000000000000000000000000000000000000000000600052602260045260246000fd5b7f4e487b7100000000000000000000000000000000000000000000000000000000600052604160045260246000fd5b6000601f19601f8301169050919050565b6200052581620003ff565b81146200053157600080fd5b50565b61334280620005446000396000f3fe608060405234801561001057600080fd5b506004361061014d5760003560e01c80636a627842116100c3578063a22cb4651161007c578063a22cb46514610366578063a2309ff814610382578063b88d4fde146103a0578063c87b56dd146103bc578063e985e9c5146103ec578063f2fde38b1461041c5761014d565b80636a627842146102b657806370a08231146102e6578063715018a6146103165780638456cb59146103205780638da5cb5b1461032a57806395d89b41146103485761014d565b806323b872dd1161011557806323b872dd1461020a57806330176e13146102265780633f4ba83a1461024257806342842e0e1461024c5780635c975abb146102685780636352211e146102865761014d565b806301ffc9a71461015257806306fdde0314610182578063081812fc146101a0578063095ea7b3146101d057806318160ddd146101ec575b600080fd5b61016c6004803603810190610167919061226a565b610438565b604051610179919061271a565b60405180910390f35b61018a61051a565b6040516101979190612735565b60405180910390f35b6101ba60048036038101906101b591906122fd565b6105ac565b6040516101c791906126b3565b60405180910390f35b6101ea60048036038101906101e5919061222e565b610631565b005b6101f4610749565b60405161020191906129b7565b60405180910390f35b610224600480360381019061021f9190612128565b61074f565b005b610240600480360381019061023b91906122bc565b6107af565b005b61024a610845565b005b61026660048036038101906102619190612128565b6108cb565b005b6102706108eb565b60405161027d919061271a565b60405180910390f35b6102a0600480360381019061029b91906122fd565b610902565b6040516102ad91906126b3565b60405180910390f35b6102d060048036038101906102cb91906120c3565b6109b4565b6040516102dd91906129b7565b60405180910390f35b61030060048036038101906102fb91906120c3565b610a8a565b60405161030d91906129b7565b60405180910390f35b61031e610b42565b005b610328610bca565b005b610332610c50565b60405161033f91906126b3565b60405180910390f35b610350610c7a565b60405161035d9190612735565b60405180910390f35b610380600480360381019061037b91906121f2565b610d0c565b005b61038a610d22565b60405161039791906129b7565b60405180910390f35b6103ba60048036038101906103b59190612177565b610d28565b005b6103d660048036038101906103d191906122fd565b610d8a565b6040516103e39190612735565b60405180910390f35b610406600480360381019061040191906120ec565b610e31565b604051610413919061271a565b60405180910390f35b610436600480360381019061043191906120c3565b610ec5565b005b60007f80ac58cd000000000000000000000000000000000000000000000000000000007bffffffffffffffffffffffffffffffffffffffffffffffffffffffff1916827bffffffffffffffffffffffffffffffffffffffffffffffffffffffff1916148061050357507f5b5e139f000000000000000000000000000000000000000000000000000000007bffffffffffffffffffffffffffffffffffffffffffffffffffffffff1916827bffffffffffffffffffffffffffffffffffffffffffffffffffffffff1916145b80610513575061051282610fbd565b5b9050919050565b60606000805461052990612c0d565b80601f016020809104026020016040519081016040528092919081815260200182805461055590612c0d565b80156105a25780601f10610577576101008083540402835291602001916105a2565b820191906000526020600020905b81548152906001019060200180831161058557829003601f168201915b5050505050905090565b60006105b782611027565b6105f6576040517f08c379a00000000000000000000000000000000000000000000000000000000081526004016105ed90612917565b60405180910390fd5b6004600083815260200190815260200160002060009054906101000a900473ffffffffffffffffffffffffffffffffffffffff169050919050565b600061063c82610902565b90508073ffffffffffffffffffffffffffffffffffffffff168373ffffffffffffffffffffffffffffffffffffffff1614156106ad576040517f08c379a00000000000000000000000000000000000000000000000000000000081526004016106a490612977565b60405180910390fd5b8073ffffffffffffffffffffffffffffffffffffffff166106cc611093565b73ffffffffffffffffffffffffffffffffffffffff1614806106fb57506106fa816106f5611093565b610e31565b5b61073a576040517f08c379a000000000000000000000000000000000000000000000000000000000815260040161073190612897565b60405180910390fd5b610744838361109b565b505050565b60095481565b61076061075a611093565b82611154565b61079f576040517f08c379a000000000000000000000000000000000000000000000000000000000815260040161079690612997565b60405180910390fd5b6107aa838383611232565b505050565b6107b7611093565b73ffffffffffffffffffffffffffffffffffffffff166107d5610c50565b73ffffffffffffffffffffffffffffffffffffffff161461082b576040517f08c379a000000000000000000000000000000000000000000000000000000000815260040161082290612937565b60405180910390fd5b8060089080519060200190610841929190611ee7565b5050565b61084d611093565b73ffffffffffffffffffffffffffffffffffffffff1661086b610c50565b73ffffffffffffffffffffffffffffffffffffffff16146108c1576040517f08c379a00000000000000000000000000000000000000000000000000000000081526004016108b890612937565b60405180910390fd5b6108c9611499565b565b6108e683838360405180602001604052806000815250610d28565b505050565b6000600660149054906101000a900460ff16905090565b6000806002600084815260200190815260200160002060009054906101000a900473ffffffffffffffffffffffffffffffffffffffff169050600073ffffffffffffffffffffffffffffffffffffffff168173ffffffffffffffffffffffffffffffffffffffff1614156109ab576040517f08c379a00000000000000000000000000000000000000000000000000000000081526004016109a2906128d7565b60405180910390fd5b80915050919050565b60006109be6108eb565b156109fe576040517f08c379a00000000000000000000000000000000000000000000000000000000081526004016109f590612877565b60405180910390fd5b600954600a5410610a44576040517f08c379a0000000000000000000000000000000000000000000000000000000008152600401610a3b90612857565b60405180910390fd5b610a4e600761153b565b610a6182610a5c6007611551565b61155f565b600a6000815480929190610a7490612c70565b9190505550610a836007611551565b9050919050565b60008073ffffffffffffffffffffffffffffffffffffffff168273ffffffffffffffffffffffffffffffffffffffff161415610afb576040517f08c379a0000000000000000000000000000000000000000000000000000000008152600401610af2906128b7565b60405180910390fd5b600360008373ffffffffffffffffffffffffffffffffffffffff1673ffffffffffffffffffffffffffffffffffffffff168152602001908152602001600020549050919050565b610b4a611093565b73ffffffffffffffffffffffffffffffffffffffff16610b68610c50565b73ffffffffffffffffffffffffffffffffffffffff1614610bbe576040517f08c379a0000000000000000000000000000000000000000000000000000000008152600401610bb590612937565b60405180910390fd5b610bc8600061157d565b565b610bd2611093565b73ffffffffffffffffffffffffffffffffffffffff16610bf0610c50565b73ffffffffffffffffffffffffffffffffffffffff1614610c46576040517f08c379a0000000000000000000000000000000000000000000000000000000008152600401610c3d90612937565b60405180910390fd5b610c4e611643565b565b6000600660009054906101000a900473ffffffffffffffffffffffffffffffffffffffff16905090565b606060018054610c8990612c0d565b80601f0160208091040260200160405190810160405280929190818152602001828054610cb590612c0d565b8015610d025780601f10610cd757610100808354040283529160200191610d02565b820191906000526020600020905b815481529060010190602001808311610ce557829003601f168201915b5050505050905090565b610d1e610d17611093565b83836116e6565b5050565b600a5481565b610d39610d33611093565b83611154565b610d78576040517f08c379a0000000000000000000000000000000000000000000000000000000008152600401610d6f90612997565b60405180910390fd5b610d8484848484611853565b50505050565b6060610d9582611027565b610dd4576040517f08c379a0000000000000000000000000000000000000000000000000000000008152600401610dcb90612957565b60405180910390fd5b6000610dde6118af565b90506000815111610dfe5760405180602001604052806000815250610e29565b80610e0884611941565b604051602001610e1992919061268f565b6040516020818303038152906040525b915050919050565b6000600560008473ffffffffffffffffffffffffffffffffffffffff1673ffffffffffffffffffffffffffffffffffffffff16815260200190815260200160002060008373ffffffffffffffffffffffffffffffffffffffff1673ffffffffffffffffffffffffffffffffffffffff16815260200190815260200160002060009054906101000a900460ff16905092915050565b610ecd611093565b73ffffffffffffffffffffffffffffffffffffffff16610eeb610c50565b73ffffffffffffffffffffffffffffffffffffffff1614610f41576040517f08c379a0000000000000000000000000000000000000000000000000000000008152600401610f3890612937565b60405180910390fd5b600073ffffffffffffffffffffffffffffffffffffffff168173ffffffffffffffffffffffffffffffffffffffff161415610fb1576040517f08c379a0000000000000000000000000000000000000000000000000000000008152600401610fa890612797565b60405180910390fd5b610fba8161157d565b50565b60007f01ffc9a7000000000000000000000000000000000000000000000000000000007bffffffffffffffffffffffffffffffffffffffffffffffffffffffff1916827bffffffffffffffffffffffffffffffffffffffffffffffffffffffff1916149050919050565b60008073ffffffffffffffffffffffffffffffffffffffff166002600084815260200190815260200160002060009054906101000a900473ffffffffffffffffffffffffffffffffffffffff1673ffffffffffffffffffffffffffffffffffffffff1614159050919050565b600033905090565b816004600083815260200190815260200160002060006101000a81548173ffffffffffffffffffffffffffffffffffffffff021916908373ffffffffffffffffffffffffffffffffffffffff160217905550808273ffffffffffffffffffffffffffffffffffffffff1661110e83610902565b73ffffffffffffffffffffffffffffffffffffffff167f8c5be1e5ebec7d5bd14f71427d1e84f3dd0314c0f7b2291e5b200ac8c7c3b92560405160405180910390a45050565b600061115f82611027565b61119e576040517f08c379a000000000000000000000000000000000000000000000000000000000815260040161119590612837565b60405180910390fd5b60006111a983610902565b90508073ffffffffffffffffffffffffffffffffffffffff168473ffffffffffffffffffffffffffffffffffffffff16148061121857508373ffffffffffffffffffffffffffffffffffffffff16611200846105ac565b73ffffffffffffffffffffffffffffffffffffffff16145b8061122957506112288185610e31565b5b91505092915050565b8273ffffffffffffffffffffffffffffffffffffffff1661125282610902565b73ffffffffffffffffffffffffffffffffffffffff16146112a8576040517f08c379a000000000000000000000000000000000000000000000000000000000815260040161129f906127b7565b60405180910390fd5b600073ffffffffffffffffffffffffffffffffffffffff168273ffffffffffffffffffffffffffffffffffffffff161415611318576040517f08c379a000000000000000000000000000000000000000000000000000000000815260040161130f906127f7565b60405180910390fd5b611323838383611aee565b61132e60008261109b565b6001600360008573ffffffffffffffffffffffffffffffffffffffff1673ffffffffffffffffffffffffffffffffffffffff168152602001908152602001600020600082825461137e9190612b23565b925050819055506001600360008473ffffffffffffffffffffffffffffffffffffffff1673ffffffffffffffffffffffffffffffffffffffff16815260200190815260200160002060008282546113d59190612a9c565b92505081905550816002600083815260200190815260200160002060006101000a81548173ffffffffffffffffffffffffffffffffffffffff021916908373ffffffffffffffffffffffffffffffffffffffff160217905550808273ffffffffffffffffffffffffffffffffffffffff168473ffffffffffffffffffffffffffffffffffffffff167fddf252ad1be2c89b69c2b068fc378daa952ba7f163c4a11628f55a4df523b3ef60405160405180910390a4611494838383611af3565b505050565b6114a16108eb565b6114e0576040517f08c379a00000000000000000000000000000000000000000000000000000000081526004016114d790612757565b60405180910390fd5b6000600660146101000a81548160ff0219169083151502179055507f5db9ee0a495bf2e6ff9c91a7834c1ba4fdd244a5e8aa4e537bd38aeae4b073aa611524611093565b60405161153191906126b3565b60405180910390a1565b6001816000016000828254019250508190555050565b600081600001549050919050565b611579828260405180602001604052806000815250611af8565b5050565b6000600660009054906101000a900473ffffffffffffffffffffffffffffffffffffffff16905081600660006101000a81548173ffffffffffffffffffffffffffffffffffffffff021916908373ffffffffffffffffffffffffffffffffffffffff1602179055508173ffffffffffffffffffffffffffffffffffffffff168173ffffffffffffffffffffffffffffffffffffffff167f8be0079c531659141344cd1fd0a4f28419497f9722a3daafe3b4186f6b6457e060405160405180910390a35050565b61164b6108eb565b1561168b576040517f08c379a000000000000000000000000000000000000000000000000000000000815260040161168290612877565b60405180910390fd5b6001600660146101000a81548160ff0219169083151502179055507f62e78cea01bee320cd4e420270b5ea74000d11b0c9f74754ebdbfc544b05a2586116cf611093565b6040516116dc91906126b3565b60405180910390a1565b8173ffffffffffffffffffffffffffffffffffffffff168373ffffffffffffffffffffffffffffffffffffffff161415611755576040517f08c379a000000000000000000000000000000000000000000000000000000000815260040161174c90612817565b60405180910390fd5b80600560008573ffffffffffffffffffffffffffffffffffffffff1673ffffffffffffffffffffffffffffffffffffffff16815260200190815260200160002060008473ffffffffffffffffffffffffffffffffffffffff1673ffffffffffffffffffffffffffffffffffffffff16815260200190815260200160002060006101000a81548160ff0219169083151502179055508173ffffffffffffffffffffffffffffffffffffffff168373ffffffffffffffffffffffffffffffffffffffff167f17307eab39ab6107e8899845ad3d59bd9653f200f220920489ca2b5937696c3183604051611846919061271a565b60405180910390a3505050565b61185e848484611232565b61186a84848484611b53565b6118a9576040517f08c379a00000000000000000000000000000000000000000000000000000000081526004016118a090612777565b60405180910390fd5b50505050565b6060600880546118be90612c0d565b80601f01602080910402602001604051908101604052809291908181526020018280546118ea90612c0d565b80156119375780601f1061190c57610100808354040283529160200191611937565b820191906000526020600020905b81548152906001019060200180831161191a57829003601f168201915b5050505050905090565b60606000821415611989576040518060400160405280600181526020017f30000000000000000000000000000000000000000000000000000000000000008152509050611ae9565b600082905060005b600082146119bb5780806119a490612c70565b915050600a826119b49190612af2565b9150611991565b60008167ffffffffffffffff8111156119fd577f4e487b7100000000000000000000000000000000000000000000000000000000600052604160045260246000fd5b6040519080825280601f01601f191660200182016040528015611a2f5781602001600182028036833780820191505090505b5090505b60008514611ae257600182611a489190612b23565b9150600a85611a579190612cb9565b6030611a639190612a9c565b60f81b818381518110611a9f577f4e487b7100000000000000000000000000000000000000000000000000000000600052603260045260246000fd5b60200101907effffffffffffffffffffffffffffffffffffffffffffffffffffffffffffff1916908160001a905350600a85611adb9190612af2565b9450611a33565b8093505050505b919050565b505050565b505050565b611b028383611cea565b611b0f6000848484611b53565b611b4e576040517f08c379a0000000000000000000000000000000000000000000000000000000008152600401611b4590612777565b60405180910390fd5b505050565b6000611b748473ffffffffffffffffffffffffffffffffffffffff16611ec4565b15611cdd578373ffffffffffffffffffffffffffffffffffffffff1663150b7a02611b9d611093565b8786866040518563ffffffff1660e01b8152600401611bbf94939291906126ce565b602060405180830381600087803b158015611bd957600080fd5b505af1925050508015611c0a57506040513d601f19601f82011682018060405250810190611c079190612293565b60015b611c8d573d8060008114611c3a576040519150601f19603f3d011682016040523d82523d6000602084013e611c3f565b606091505b50600081511415611c85576040517f08c379a0000000000000000000000000000000000000000000000000000000008152600401611c7c90612777565b60405180910390fd5b805181602001fd5b63150b7a0260e01b7bffffffffffffffffffffffffffffffffffffffffffffffffffffffff1916817bffffffffffffffffffffffffffffffffffffffffffffffffffffffff191614915050611ce2565b600190505b949350505050565b600073ffffffffffffffffffffffffffffffffffffffff168273ffffffffffffffffffffffffffffffffffffffff161415611d5a576040517f08c379a0000000000000000000000000000000000000000000000000000000008152600401611d51906128f7565b60405180910390fd5b611d6381611027565b15611da3576040517f08c379a0000000000000000000000000000000000000000000000000000000008152600401611d9a906127d7565b60405180910390fd5b611daf60008383611aee565b6001600360008473ffffffffffffffffffffffffffffffffffffffff1673ffffffffffffffffffffffffffffffffffffffff1681526020019081526020016000206000828254611dff9190612a9c565b92505081905550816002600083815260200190815260200160002060006101000a81548173ffffffffffffffffffffffffffffffffffffffff021916908373ffffffffffffffffffffffffffffffffffffffff160217905550808273ffffffffffffffffffffffffffffffffffffffff16600073ffffffffffffffffffffffffffffffffffffffff167fddf252ad1be2c89b69c2b068fc378daa952ba7f163c4a11628f55a4df523b3ef60405160405180910390a4611ec060008383611af3565b5050565b6000808273ffffffffffffffffffffffffffffffffffffffff163b119050919050565b828054611ef390612c0d565b90600052602060002090601f016020900481019282611f155760008555611f5c565b82601f10611f2e57805160ff1916838001178555611f5c565b82800160010185558215611f5c579182015b82811115611f5b578251825591602001919060010190611f40565b5b509050611f699190611f6d565b5090565b5b80821115611f86576000816000905550600101611f6e565b5090565b6000611f9d611f98846129f7565b6129d2565b905082815260208101848484011115611fb557600080fd5b611fc0848285612bcb565b509392505050565b6000611fdb611fd684612a28565b6129d2565b905082815260208101848484011115611ff357600080fd5b611ffe848285612bcb565b509392505050565b600081359050612015816132b0565b92915050565b60008135905061202a816132c7565b92915050565b60008135905061203f816132de565b92915050565b600081519050612054816132de565b92915050565b600082601f83011261206b57600080fd5b813561207b848260208601611f8a565b91505092915050565b600082601f83011261209557600080fd5b81356120a5848260208601611fc8565b91505092915050565b6000813590506120bd816132f5565b92915050565b6000602082840312156120d557600080fd5b60006120e384828501612006565b91505092915050565b600080604083850312156120ff57600080fd5b600061210d85828601612006565b925050602061211e85828601612006565b9150509250929050565b60008060006060848603121561213d57600080fd5b600061214b86828701612006565b935050602061215c86828701612006565b925050604061216d868287016120ae565b9150509250925092565b6000806000806080858703121561218d57600080fd5b600061219b87828801612006565b94505060206121ac87828801612006565b93505060406121bd878288016120ae565b925050606085013567ffffffffffffffff8111156121da57600080fd5b6121e68782880161205a565b91505092959194509250565b6000806040838503121561220557600080fd5b600061221385828601612006565b92505060206122248582860161201b565b9150509250929050565b6000806040838503121561224157600080fd5b600061224f85828601612006565b9250506020612260858286016120ae565b9150509250929050565b60006020828403121561227c57600080fd5b600061228a84828501612030565b91505092915050565b6000602082840312156122a557600080fd5b60006122b384828501612045565b91505092915050565b6000602082840312156122ce57600080fd5b600082013567ffffffffffffffff8111156122e857600080fd5b6122f484828501612084565b91505092915050565b60006020828403121561230f57600080fd5b600061231d848285016120ae565b91505092915050565b61232f81612b57565b82525050565b61233e81612b69565b82525050565b600061234f82612a59565b6123598185612a6f565b9350612369818560208601612bda565b61237281612da6565b840191505092915050565b600061238882612a64565b6123928185612a80565b93506123a2818560208601612bda565b6123ab81612da6565b840191505092915050565b60006123c182612a64565b6123cb8185612a91565b93506123db818560208601612bda565b80840191505092915050565b60006123f4601483612a80565b91506123ff82612db7565b602082019050919050565b6000612417603283612a80565b915061242282612de0565b604082019050919050565b600061243a602683612a80565b915061244582612e2f565b604082019050919050565b600061245d602583612a80565b915061246882612e7e565b604082019050919050565b6000612480601c83612a80565b915061248b82612ecd565b602082019050919050565b60006124a3602483612a80565b91506124ae82612ef6565b604082019050919050565b60006124c6601983612a80565b91506124d182612f45565b602082019050919050565b60006124e9602c83612a80565b91506124f482612f6e565b604082019050919050565b600061250c602f83612a80565b915061251782612fbd565b604082019050919050565b600061252f601083612a80565b915061253a8261300c565b602082019050919050565b6000612552603883612a80565b915061255d82613035565b604082019050919050565b6000612575602a83612a80565b915061258082613084565b604082019050919050565b6000612598602983612a80565b91506125a3826130d3565b604082019050919050565b60006125bb602083612a80565b91506125c682613122565b602082019050919050565b60006125de602c83612a80565b91506125e98261314b565b604082019050919050565b6000612601602083612a80565b915061260c8261319a565b602082019050919050565b6000612624602f83612a80565b915061262f826131c3565b604082019050919050565b6000612647602183612a80565b915061265282613212565b604082019050919050565b600061266a603183612a80565b915061267582613261565b604082019050919050565b61268981612bc1565b82525050565b600061269b82856123b6565b91506126a782846123b6565b91508190509392505050565b60006020820190506126c86000830184612326565b92915050565b60006080820190506126e36000830187612326565b6126f06020830186612326565b6126fd6040830185612680565b818103606083015261270f8184612344565b905095945050505050565b600060208201905061272f6000830184612335565b92915050565b6000602082019050818103600083015261274f818461237d565b905092915050565b60006020820190508181036000830152612770816123e7565b9050919050565b600060208201905081810360008301526127908161240a565b9050919050565b600060208201905081810360008301526127b08161242d565b9050919050565b600060208201905081810360008301526127d081612450565b9050919050565b600060208201905081810360008301526127f081612473565b9050919050565b6000602082019050818103600083015261281081612496565b9050919050565b60006020820190508181036000830152612830816124b9565b9050919050565b60006020820190508181036000830152612850816124dc565b9050919050565b60006020820190508181036000830152612870816124ff565b9050919050565b6000602082019050818103600083015261289081612522565b9050919050565b600060208201905081810360008301526128b081612545565b9050919050565b600060208201905081810360008301526128d081612568565b9050919050565b600060208201905081810360008301526128f08161258b565b9050919050565b60006020820190508181036000830152612910816125ae565b9050919050565b60006020820190508181036000830152612930816125d1565b9050919050565b60006020820190508181036000830152612950816125f4565b9050919050565b6000602082019050818103600083015261297081612617565b9050919050565b600060208201905081810360008301526129908161263a565b9050919050565b600060208201905081810360008301526129b08161265d565b9050919050565b60006020820190506129cc6000830184612680565b92915050565b60006129dc6129ed565b90506129e88282612c3f565b919050565b6000604051905090565b600067ffffffffffffffff821115612a1257612a11612d77565b5b612a1b82612da6565b9050602081019050919050565b600067ffffffffffffffff821115612a4357612a42612d77565b5b612a4c82612da6565b9050602081019050919050565b600081519050919050565b600081519050919050565b600082825260208201905092915050565b600082825260208201905092915050565b600081905092915050565b6000612aa782612bc1565b9150612ab283612bc1565b9250827fffffffffffffffffffffffffffffffffffffffffffffffffffffffffffffffff03821115612ae757612ae6612cea565b5b828201905092915050565b6000612afd82612bc1565b9150612b0883612bc1565b925082612b1857612b17612d19565b5b828204905092915050565b6000612b2e82612bc1565b9150612b3983612bc1565b925082821015612b4c57612b4b612cea565b5b828203905092915050565b6000612b6282612ba1565b9050919050565b60008115159050919050565b60007fffffffff0000000000000000000000000000000000000000000000000000000082169050919050565b600073ffffffffffffffffffffffffffffffffffffffff82169050919050565b6000819050919050565b82818337600083830152505050565b60005b83811015612bf8578082015181840152602081019050612bdd565b83811115612c07576000848401525b50505050565b60006002820490506001821680612c2557607f821691505b60208210811415612c3957612c38612d48565b5b50919050565b612c4882612da6565b810181811067ffffffffffffffff82111715612c6757612c66612d77565b5b80604052505050565b6000612c7b82612bc1565b91507fffffffffffffffffffffffffffffffffffffffffffffffffffffffffffffffff821415612cae57612cad612cea565b5b600182019050919050565b6000612cc482612bc1565b9150612ccf83612bc1565b925082612cdf57612cde612d19565b5b828206905092915050565b7f4e487b7100000000000000000000000000000000000000000000000000000000600052601160045260246000fd5b7f4e487b7100000000000000000000000000000000000000000000000000000000600052601260045260246000fd5b7f4e487b7100000000000000000000000000000000000000000000000000000000600052602260045260246000fd5b7f4e487b7100000000000000000000000000000000000000000000000000000000600052604160045260246000fd5b6000601f19601f8301169050919050565b7f5061757361626c653a206e6f7420706175736564000000000000000000000000600082015250565b7f4552433732313a207472616e7366657220746f206e6f6e20455243373231526560008201527f63656976657220696d706c656d656e7465720000000000000000000000000000602082015250565b7f4f776e61626c653a206e6577206f776e657220697320746865207a65726f206160008201527f6464726573730000000000000000000000000000000000000000000000000000602082015250565b7f4552433732313a207472616e736665722066726f6d20696e636f72726563742060008201527f6f776e6572000000000000000000000000000000000000000000000000000000602082015250565b7f4552433732313a20746f6b656e20616c7265616479206d696e74656400000000600082015250565b7f4552433732313a207472616e7366657220746f20746865207a65726f2061646460008201527f7265737300000000000000000000000000000000000000000000000000000000602082015250565b7f4552433732313a20617070726f766520746f2063616c6c657200000000000000600082015250565b7f4552433732313a206f70657261746f7220717565727920666f72206e6f6e657860008201527f697374656e7420746f6b656e0000000000000000000000000000000000000000602082015250565b7f546f74616c20737570706c792065786365656465642c206e6f206d6f7265206160008201527f7661696c61626c6520746f6b656e730000000000000000000000000000000000602082015250565b7f5061757361626c653a2070617573656400000000000000000000000000000000600082015250565b7f4552433732313a20617070726f76652063616c6c6572206973206e6f74206f7760008201527f6e6572206e6f7220617070726f76656420666f7220616c6c0000000000000000602082015250565b7f4552433732313a2062616c616e636520717565727920666f7220746865207a6560008201527f726f206164647265737300000000000000000000000000000000000000000000602082015250565b7f4552433732313a206f776e657220717565727920666f72206e6f6e657869737460008201527f656e7420746f6b656e0000000000000000000000000000000000000000000000602082015250565b7f4552433732313a206d696e7420746f20746865207a65726f2061646472657373600082015250565b7f4552433732313a20617070726f76656420717565727920666f72206e6f6e657860008201527f697374656e7420746f6b656e0000000000000000000000000000000000000000602082015250565b7f4f776e61626c653a2063616c6c6572206973206e6f7420746865206f776e6572600082015250565b7f4552433732314d657461646174613a2055524920717565727920666f72206e6f60008201527f6e6578697374656e7420746f6b656e0000000000000000000000000000000000602082015250565b7f4552433732313a20617070726f76616c20746f2063757272656e74206f776e6560008201527f7200000000000000000000000000000000000000000000000000000000000000602082015250565b7f4552433732313a207472616e736665722063616c6c6572206973206e6f74206f60008201527f776e6572206e6f7220617070726f766564000000000000000000000000000000602082015250565b6132b981612b57565b81146132c457600080fd5b50565b6132d081612b69565b81146132db57600080fd5b50565b6132e781612b75565b81146132f257600080fd5b50565b6132fe81612bc1565b811461330957600080fd5b5056fea2646970667358221220d1f11de423059443f3a0e464635fa0d166b04becb7f93e284457f39cc9fa0bff64736f6c63430008010033",
  "linkReferences": {},
  "deployedLinkReferences": {}
}