{
  "_format": "hh-sol-artifact-1",
  "contractName": "SnakeNFT",
  "sourceName": "contracts/SnakeNFT.sol",
  "abi": [
    {
      "inputs": [],
      "stateMutability": "nonpayable",
      "type": "constructor"
    },
    {
      "anonymous": false,
      "inputs": [
        {
          "indexed": true,
          "internalType": "address",
          "name": "owner",
          "type": "address"
        },
        {
          "indexed": true,
          "internalType": "address",
          "name": "approved",
          "type": "address"
        },
        {
          "indexed": true,
          "internalType": "uint256",
          "name": "tokenId",
          "type": "uint256"
        }
      ],
      "name": "Approval",
      "type": "event"
    },
    {
      "anonymous": false,
      "inputs": [
        {
          "indexed": true,
          "internalType": "address",
          "name": "owner",
          "type": "address"
        },
        {
          "indexed": true,
          "internalType": "address",
          "name": "operator",
          "type": "address"
        },
        {
          "indexed": false,
          "internalType": "bool",
          "name": "approved",
          "type": "bool"
        }
      ],
      "name": "ApprovalForAll",
      "type": "event"
    },
    {
      "anonymous": false,
      "inputs": [
        {
          "indexed": true,
          "internalType": "address",
          "name": "from",
          "type": "address"
        },
        {
          "indexed": true,
          "internalType": "address",
          "name": "to",
          "type": "address"
        },
        {
          "indexed": true,
          "internalType": "uint256",
          "name": "tokenId",
          "type": "uint256"
        }
      ],
      "name": "Transfer",
      "type": "event"
    },
    {
      "inputs": [
        {
          "internalType": "address",
          "name": "to",
          "type": "address"
        },
        {
          "internalType": "uint256",
          "name": "tokenId",
          "type": "uint256"
        }
      ],
      "name": "approve",
      "outputs": [],
      "stateMutability": "nonpayable",
      "type": "function"
    },
    {
      "inputs": [
        {
          "internalType": "address",
          "name": "owner",
          "type": "address"
        }
      ],
      "name": "balanceOf",
      "outputs": [
        {
          "internalType": "uint256",
          "name": "",
          "type": "uint256"
        }
      ],
      "stateMutability": "view",
      "type": "function"
    },
    {
      "inputs": [
        {
          "internalType": "uint256",
          "name": "tokenId",
          "type": "uint256"
        }
      ],
      "name": "getApproved",
      "outputs": [
        {
          "internalType": "address",
          "name": "",
          "type": "address"
        }
      ],
      "stateMutability": "view",
      "type": "function"
    },
    {
      "inputs": [
        {
          "internalType": "address",
          "name": "owner",
          "type": "address"
        },
        {
          "internalType": "address",
          "name": "operator",
          "type": "address"
        }
      ],
      "name": "isApprovedForAll",
      "outputs": [
        {
          "internalType": "bool",
          "name": "",
          "type": "bool"
        }
      ],
      "stateMutability": "view",
      "type": "function"
    },
    {
      "inputs": [
        {
          "internalType": "address",
          "name": "to",
          "type": "address"
        }
      ],
      "name": "mint",
      "outputs": [
        {
          "internalType": "uint256",
          "name": "",
          "type": "uint256"
        }
      ],
      "stateMutability": "nonpayable",
      "type": "function"
    },
    {
      "inputs": [],
      "name": "name",
      "outputs": [
        {
          "internalType": "string",
          "name": "",
          "type": "string"
        }
      ],
      "stateMutability": "view",
      "type": "function"
    },
    {
      "inputs": [
        {
          "internalType": "uint256",
          "name": "tokenId",
          "type": "uint256"
        }
      ],
      "name": "ownerOf",
      "outputs": [
        {
          "internalType": "address",
          "name": "",
          "type": "address"
        }
      ],
      "stateMutability": "view",
      "type": "function"
    },
    {
      "inputs": [
        {
          "internalType": "address",
          "name": "from",
          "type": "address"
        },
        {
          "internalType": "address",
          "name": "to",
          "type": "address"
        },
        {
          "internalType": "uint256",
          "name": "tokenId",
          "type": "uint256"
        }
      ],
      "name": "safeTransferFrom",
      "outputs": [],
      "stateMutability": "nonpayable",
      "type": "function"
    },
    {
      "inputs": [
        {
          "internalType": "address",
          "name": "from",
          "type": "address"
        },
        {
          "internalType": "address",
          "name": "to",
          "type": "address"
        },
        {
          "internalType": "uint256",
          "name": "tokenId",
          "type": "uint256"
        },
        {
          "internalType": "bytes",
          "name": "_data",
          "type": "bytes"
        }
      ],
      "name": "safeTransferFrom",
      "outputs": [],
      "stateMutability": "nonpayable",
      "type": "function"
    },
    {
      "inputs": [
        {
          "internalType": "address",
          "name": "operator",
          "type": "address"
        },
        {
          "internalType": "bool",
          "name": "approved",
          "type": "bool"
        }
      ],
      "name": "setApprovalForAll",
      "outputs": [],
      "stateMutability": "nonpayable",
      "type": "function"
    },
    {
      "inputs": [
        {
          "internalType": "string",
          "name": "uri_",
          "type": "string"
        }
      ],
      "name": "setBaseTokenURI",
      "outputs": [],
      "stateMutability": "nonpayable",
      "type": "function"
    },
    {
      "inputs": [
        {
          "internalType": "bytes4",
          "name": "interfaceId",
          "type": "bytes4"
        }
      ],
      "name": "supportsInterface",
      "outputs": [
        {
          "internalType": "bool",
          "name": "",
          "type": "bool"
        }
      ],
      "stateMutability": "view",
      "type": "function"
    },
    {
      "inputs": [],
      "name": "symbol",
      "outputs": [
        {
          "internalType": "string",
          "name": "",
          "type": "string"
        }
      ],
      "stateMutability": "view",
      "type": "function"
    },
    {
      "inputs": [
        {
          "internalType": "uint256",
          "name": "tokenId",
          "type": "uint256"
        }
      ],
      "name": "tokenURI",
      "outputs": [
        {
          "internalType": "string",
          "name": "",
          "type": "string"
        }
      ],
      "stateMutability": "view",
      "type": "function"
    },
    {
      "inputs": [
        {
          "internalType": "address",
          "name": "from",
          "type": "address"
        },
        {
          "internalType": "address",
          "name": "to",
          "type": "address"
        },
        {
          "internalType": "uint256",
          "name": "tokenId",
          "type": "uint256"
        }
      ],
      "name": "transferFrom",
      "outputs": [],
      "stateMutability": "nonpayable",
      "type": "function"
    }
  ],
  "bytecode": "0x60806040523480156200001157600080fd5b506040518060400160405280600881526020017f536e616b654e46540000000000000000000000000000000000000000000000008152506040518060400160405280600581526020017f534e414b4500000000000000000000000000000000000000000000000000000081525081600090805190602001906200009692919062000106565b508060019080519060200190620000af92919062000106565b5050506040518060400160405280601881526020017f594f55525f4150495f55524c2f6170692f6572633732312f000000000000000081525060079080519060200190620000ff92919062000106565b506200021b565b8280546200011490620001b6565b90600052602060002090601f01602090048101928262000138576000855562000184565b82601f106200015357805160ff191683800117855562000184565b8280016001018555821562000184579182015b828111156200018357825182559160200191906001019062000166565b5b50905062000193919062000197565b5090565b5b80821115620001b257600081600090555060010162000198565b5090565b60006002820490506001821680620001cf57607f821691505b60208210811415620001e657620001e5620001ec565b5b50919050565b7f4e487b7100000000000000000000000000000000000000000000000000000000600052602260045260246000fd5b6129e0806200022b6000396000f3fe608060405234801561001057600080fd5b50600436106100f55760003560e01c80636352211e11610097578063a22cb46511610066578063a22cb46514610296578063b88d4fde146102b2578063c87b56dd146102ce578063e985e9c5146102fe576100f5565b80636352211e146101e85780636a6278421461021857806370a082311461024857806395d89b4114610278576100f5565b8063095ea7b3116100d3578063095ea7b31461017857806323b872dd1461019457806330176e13146101b057806342842e0e146101cc576100f5565b806301ffc9a7146100fa57806306fdde031461012a578063081812fc14610148575b600080fd5b610114600480360381019061010f9190611b70565b61032e565b6040516101219190611f71565b60405180910390f35b610132610410565b60405161013f9190611f8c565b60405180910390f35b610162600480360381019061015d9190611c03565b6104a2565b60405161016f9190611f0a565b60405180910390f35b610192600480360381019061018d9190611b34565b610527565b005b6101ae60048036038101906101a99190611a2e565b61063f565b005b6101ca60048036038101906101c59190611bc2565b61069f565b005b6101e660048036038101906101e19190611a2e565b6106b9565b005b61020260048036038101906101fd9190611c03565b6106d9565b60405161020f9190611f0a565b60405180910390f35b610232600480360381019061022d91906119c9565b61078b565b60405161023f919061216e565b60405180910390f35b610262600480360381019061025d91906119c9565b6107d1565b60405161026f919061216e565b60405180910390f35b610280610889565b60405161028d9190611f8c565b60405180910390f35b6102b060048036038101906102ab9190611af8565b61091b565b005b6102cc60048036038101906102c79190611a7d565b610931565b005b6102e860048036038101906102e39190611c03565b610993565b6040516102f59190611f8c565b60405180910390f35b610318600480360381019061031391906119f2565b610a3a565b6040516103259190611f71565b60405180910390f35b60007f80ac58cd000000000000000000000000000000000000000000000000000000007bffffffffffffffffffffffffffffffffffffffffffffffffffffffff1916827bffffffffffffffffffffffffffffffffffffffffffffffffffffffff191614806103f957507f5b5e139f000000000000000000000000000000000000000000000000000000007bffffffffffffffffffffffffffffffffffffffffffffffffffffffff1916827bffffffffffffffffffffffffffffffffffffffffffffffffffffffff1916145b80610409575061040882610ace565b5b9050919050565b60606000805461041f906123c4565b80601f016020809104026020016040519081016040528092919081815260200182805461044b906123c4565b80156104985780601f1061046d57610100808354040283529160200191610498565b820191906000526020600020905b81548152906001019060200180831161047b57829003601f168201915b5050505050905090565b60006104ad82610b38565b6104ec576040517f08c379a00000000000000000000000000000000000000000000000000000000081526004016104e3906120ee565b60405180910390fd5b6004600083815260200190815260200160002060009054906101000a900473ffffffffffffffffffffffffffffffffffffffff169050919050565b6000610532826106d9565b90508073ffffffffffffffffffffffffffffffffffffffff168373ffffffffffffffffffffffffffffffffffffffff1614156105a3576040517f08c379a000000000000000000000000000000000000000000000000000000000815260040161059a9061212e565b60405180910390fd5b8073ffffffffffffffffffffffffffffffffffffffff166105c2610ba4565b73ffffffffffffffffffffffffffffffffffffffff1614806105f157506105f0816105eb610ba4565b610a3a565b5b610630576040517f08c379a00000000000000000000000000000000000000000000000000000000081526004016106279061206e565b60405180910390fd5b61063a8383610bac565b505050565b61065061064a610ba4565b82610c65565b61068f576040517f08c379a00000000000000000000000000000000000000000000000000000000081526004016106869061214e565b60405180910390fd5b61069a838383610d43565b505050565b80600790805190602001906106b59291906117ed565b5050565b6106d483838360405180602001604052806000815250610931565b505050565b6000806002600084815260200190815260200160002060009054906101000a900473ffffffffffffffffffffffffffffffffffffffff169050600073ffffffffffffffffffffffffffffffffffffffff168173ffffffffffffffffffffffffffffffffffffffff161415610782576040517f08c379a0000000000000000000000000000000000000000000000000000000008152600401610779906120ae565b60405180910390fd5b80915050919050565b600060036107996006610faa565b106107a357600080fd5b6107ad6006610fb8565b6107c0826107bb6006610faa565b610fce565b6107ca6006610faa565b9050919050565b60008073ffffffffffffffffffffffffffffffffffffffff168273ffffffffffffffffffffffffffffffffffffffff161415610842576040517f08c379a00000000000000000000000000000000000000000000000000000000081526004016108399061208e565b60405180910390fd5b600360008373ffffffffffffffffffffffffffffffffffffffff1673ffffffffffffffffffffffffffffffffffffffff168152602001908152602001600020549050919050565b606060018054610898906123c4565b80601f01602080910402602001604051908101604052809291908181526020018280546108c4906123c4565b80156109115780601f106108e657610100808354040283529160200191610911565b820191906000526020600020905b8154815290600101906020018083116108f457829003601f168201915b5050505050905090565b61092d610926610ba4565b8383610fec565b5050565b61094261093c610ba4565b83610c65565b610981576040517f08c379a00000000000000000000000000000000000000000000000000000000081526004016109789061214e565b60405180910390fd5b61098d84848484611159565b50505050565b606061099e82610b38565b6109dd576040517f08c379a00000000000000000000000000000000000000000000000000000000081526004016109d49061210e565b60405180910390fd5b60006109e76111b5565b90506000815111610a075760405180602001604052806000815250610a32565b80610a1184611247565b604051602001610a22929190611ee6565b6040516020818303038152906040525b915050919050565b6000600560008473ffffffffffffffffffffffffffffffffffffffff1673ffffffffffffffffffffffffffffffffffffffff16815260200190815260200160002060008373ffffffffffffffffffffffffffffffffffffffff1673ffffffffffffffffffffffffffffffffffffffff16815260200190815260200160002060009054906101000a900460ff16905092915050565b60007f01ffc9a7000000000000000000000000000000000000000000000000000000007bffffffffffffffffffffffffffffffffffffffffffffffffffffffff1916827bffffffffffffffffffffffffffffffffffffffffffffffffffffffff1916149050919050565b60008073ffffffffffffffffffffffffffffffffffffffff166002600084815260200190815260200160002060009054906101000a900473ffffffffffffffffffffffffffffffffffffffff1673ffffffffffffffffffffffffffffffffffffffff1614159050919050565b600033905090565b816004600083815260200190815260200160002060006101000a81548173ffffffffffffffffffffffffffffffffffffffff021916908373ffffffffffffffffffffffffffffffffffffffff160217905550808273ffffffffffffffffffffffffffffffffffffffff16610c1f836106d9565b73ffffffffffffffffffffffffffffffffffffffff167f8c5be1e5ebec7d5bd14f71427d1e84f3dd0314c0f7b2291e5b200ac8c7c3b92560405160405180910390a45050565b6000610c7082610b38565b610caf576040517f08c379a0000000000000000000000000000000000000000000000000000000008152600401610ca69061204e565b60405180910390fd5b6000610cba836106d9565b90508073ffffffffffffffffffffffffffffffffffffffff168473ffffffffffffffffffffffffffffffffffffffff161480610d2957508373ffffffffffffffffffffffffffffffffffffffff16610d11846104a2565b73ffffffffffffffffffffffffffffffffffffffff16145b80610d3a5750610d398185610a3a565b5b91505092915050565b8273ffffffffffffffffffffffffffffffffffffffff16610d63826106d9565b73ffffffffffffffffffffffffffffffffffffffff1614610db9576040517f08c379a0000000000000000000000000000000000000000000000000000000008152600401610db090611fce565b60405180910390fd5b600073ffffffffffffffffffffffffffffffffffffffff168273ffffffffffffffffffffffffffffffffffffffff161415610e29576040517f08c379a0000000000000000000000000000000000000000000000000000000008152600401610e209061200e565b60405180910390fd5b610e348383836113f4565b610e3f600082610bac565b6001600360008573ffffffffffffffffffffffffffffffffffffffff1673ffffffffffffffffffffffffffffffffffffffff1681526020019081526020016000206000828254610e8f91906122da565b925050819055506001600360008473ffffffffffffffffffffffffffffffffffffffff1673ffffffffffffffffffffffffffffffffffffffff1681526020019081526020016000206000828254610ee69190612253565b92505081905550816002600083815260200190815260200160002060006101000a81548173ffffffffffffffffffffffffffffffffffffffff021916908373ffffffffffffffffffffffffffffffffffffffff160217905550808273ffffffffffffffffffffffffffffffffffffffff168473ffffffffffffffffffffffffffffffffffffffff167fddf252ad1be2c89b69c2b068fc378daa952ba7f163c4a11628f55a4df523b3ef60405160405180910390a4610fa58383836113f9565b505050565b600081600001549050919050565b6001816000016000828254019250508190555050565b610fe88282604051806020016040528060008152506113fe565b5050565b8173ffffffffffffffffffffffffffffffffffffffff168373ffffffffffffffffffffffffffffffffffffffff16141561105b576040517f08c379a00000000000000000000000000000000000000000000000000000000081526004016110529061202e565b60405180910390fd5b80600560008573ffffffffffffffffffffffffffffffffffffffff1673ffffffffffffffffffffffffffffffffffffffff16815260200190815260200160002060008473ffffffffffffffffffffffffffffffffffffffff1673ffffffffffffffffffffffffffffffffffffffff16815260200190815260200160002060006101000a81548160ff0219169083151502179055508173ffffffffffffffffffffffffffffffffffffffff168373ffffffffffffffffffffffffffffffffffffffff167f17307eab39ab6107e8899845ad3d59bd9653f200f220920489ca2b5937696c318360405161114c9190611f71565b60405180910390a3505050565b611164848484610d43565b61117084848484611459565b6111af576040517f08c379a00000000000000000000000000000000000000000000000000000000081526004016111a690611fae565b60405180910390fd5b50505050565b6060600780546111c4906123c4565b80601f01602080910402602001604051908101604052809291908181526020018280546111f0906123c4565b801561123d5780601f106112125761010080835404028352916020019161123d565b820191906000526020600020905b81548152906001019060200180831161122057829003601f168201915b5050505050905090565b6060600082141561128f576040518060400160405280600181526020017f300000000000000000000000000000000000000000000000000000000000000081525090506113ef565b600082905060005b600082146112c15780806112aa90612427565b915050600a826112ba91906122a9565b9150611297565b60008167ffffffffffffffff811115611303577f4e487b7100000000000000000000000000000000000000000000000000000000600052604160045260246000fd5b6040519080825280601f01601f1916602001820160405280156113355781602001600182028036833780820191505090505b5090505b600085146113e85760018261134e91906122da565b9150600a8561135d9190612470565b60306113699190612253565b60f81b8183815181106113a5577f4e487b7100000000000000000000000000000000000000000000000000000000600052603260045260246000fd5b60200101907effffffffffffffffffffffffffffffffffffffffffffffffffffffffffffff1916908160001a905350600a856113e191906122a9565b9450611339565b8093505050505b919050565b505050565b505050565b61140883836115f0565b6114156000848484611459565b611454576040517f08c379a000000000000000000000000000000000000000000000000000000000815260040161144b90611fae565b60405180910390fd5b505050565b600061147a8473ffffffffffffffffffffffffffffffffffffffff166117ca565b156115e3578373ffffffffffffffffffffffffffffffffffffffff1663150b7a026114a3610ba4565b8786866040518563ffffffff1660e01b81526004016114c59493929190611f25565b602060405180830381600087803b1580156114df57600080fd5b505af192505050801561151057506040513d601f19601f8201168201806040525081019061150d9190611b99565b60015b611593573d8060008114611540576040519150601f19603f3d011682016040523d82523d6000602084013e611545565b606091505b5060008151141561158b576040517f08c379a000000000000000000000000000000000000000000000000000000000815260040161158290611fae565b60405180910390fd5b805181602001fd5b63150b7a0260e01b7bffffffffffffffffffffffffffffffffffffffffffffffffffffffff1916817bffffffffffffffffffffffffffffffffffffffffffffffffffffffff1916149150506115e8565b600190505b949350505050565b600073ffffffffffffffffffffffffffffffffffffffff168273ffffffffffffffffffffffffffffffffffffffff161415611660576040517f08c379a0000000000000000000000000000000000000000000000000000000008152600401611657906120ce565b60405180910390fd5b61166981610b38565b156116a9576040517f08c379a00000000000000000000000000000000000000000000000000000000081526004016116a090611fee565b60405180910390fd5b6116b5600083836113f4565b6001600360008473ffffffffffffffffffffffffffffffffffffffff1673ffffffffffffffffffffffffffffffffffffffff16815260200190815260200160002060008282546117059190612253565b92505081905550816002600083815260200190815260200160002060006101000a81548173ffffffffffffffffffffffffffffffffffffffff021916908373ffffffffffffffffffffffffffffffffffffffff160217905550808273ffffffffffffffffffffffffffffffffffffffff16600073ffffffffffffffffffffffffffffffffffffffff167fddf252ad1be2c89b69c2b068fc378daa952ba7f163c4a11628f55a4df523b3ef60405160405180910390a46117c6600083836113f9565b5050565b6000808273ffffffffffffffffffffffffffffffffffffffff163b119050919050565b8280546117f9906123c4565b90600052602060002090601f01602090048101928261181b5760008555611862565b82601f1061183457805160ff1916838001178555611862565b82800160010185558215611862579182015b82811115611861578251825591602001919060010190611846565b5b50905061186f9190611873565b5090565b5b8082111561188c576000816000905550600101611874565b5090565b60006118a361189e846121ae565b612189565b9050828152602081018484840111156118bb57600080fd5b6118c6848285612382565b509392505050565b60006118e16118dc846121df565b612189565b9050828152602081018484840111156118f957600080fd5b611904848285612382565b509392505050565b60008135905061191b8161294e565b92915050565b60008135905061193081612965565b92915050565b6000813590506119458161297c565b92915050565b60008151905061195a8161297c565b92915050565b600082601f83011261197157600080fd5b8135611981848260208601611890565b91505092915050565b600082601f83011261199b57600080fd5b81356119ab8482602086016118ce565b91505092915050565b6000813590506119c381612993565b92915050565b6000602082840312156119db57600080fd5b60006119e98482850161190c565b91505092915050565b60008060408385031215611a0557600080fd5b6000611a138582860161190c565b9250506020611a248582860161190c565b9150509250929050565b600080600060608486031215611a4357600080fd5b6000611a518682870161190c565b9350506020611a628682870161190c565b9250506040611a73868287016119b4565b9150509250925092565b60008060008060808587031215611a9357600080fd5b6000611aa18782880161190c565b9450506020611ab28782880161190c565b9350506040611ac3878288016119b4565b925050606085013567ffffffffffffffff811115611ae057600080fd5b611aec87828801611960565b91505092959194509250565b60008060408385031215611b0b57600080fd5b6000611b198582860161190c565b9250506020611b2a85828601611921565b9150509250929050565b60008060408385031215611b4757600080fd5b6000611b558582860161190c565b9250506020611b66858286016119b4565b9150509250929050565b600060208284031215611b8257600080fd5b6000611b9084828501611936565b91505092915050565b600060208284031215611bab57600080fd5b6000611bb98482850161194b565b91505092915050565b600060208284031215611bd457600080fd5b600082013567ffffffffffffffff811115611bee57600080fd5b611bfa8482850161198a565b91505092915050565b600060208284031215611c1557600080fd5b6000611c23848285016119b4565b91505092915050565b611c358161230e565b82525050565b611c4481612320565b82525050565b6000611c5582612210565b611c5f8185612226565b9350611c6f818560208601612391565b611c788161255d565b840191505092915050565b6000611c8e8261221b565b611c988185612237565b9350611ca8818560208601612391565b611cb18161255d565b840191505092915050565b6000611cc78261221b565b611cd18185612248565b9350611ce1818560208601612391565b80840191505092915050565b6000611cfa603283612237565b9150611d058261256e565b604082019050919050565b6000611d1d602583612237565b9150611d28826125bd565b604082019050919050565b6000611d40601c83612237565b9150611d4b8261260c565b602082019050919050565b6000611d63602483612237565b9150611d6e82612635565b604082019050919050565b6000611d86601983612237565b9150611d9182612684565b602082019050919050565b6000611da9602c83612237565b9150611db4826126ad565b604082019050919050565b6000611dcc603883612237565b9150611dd7826126fc565b604082019050919050565b6000611def602a83612237565b9150611dfa8261274b565b604082019050919050565b6000611e12602983612237565b9150611e1d8261279a565b604082019050919050565b6000611e35602083612237565b9150611e40826127e9565b602082019050919050565b6000611e58602c83612237565b9150611e6382612812565b604082019050919050565b6000611e7b602f83612237565b9150611e8682612861565b604082019050919050565b6000611e9e602183612237565b9150611ea9826128b0565b604082019050919050565b6000611ec1603183612237565b9150611ecc826128ff565b604082019050919050565b611ee081612378565b82525050565b6000611ef28285611cbc565b9150611efe8284611cbc565b91508190509392505050565b6000602082019050611f1f6000830184611c2c565b92915050565b6000608082019050611f3a6000830187611c2c565b611f476020830186611c2c565b611f546040830185611ed7565b8181036060830152611f668184611c4a565b905095945050505050565b6000602082019050611f866000830184611c3b565b92915050565b60006020820190508181036000830152611fa68184611c83565b905092915050565b60006020820190508181036000830152611fc781611ced565b9050919050565b60006020820190508181036000830152611fe781611d10565b9050919050565b6000602082019050818103600083015261200781611d33565b9050919050565b6000602082019050818103600083015261202781611d56565b9050919050565b6000602082019050818103600083015261204781611d79565b9050919050565b6000602082019050818103600083015261206781611d9c565b9050919050565b6000602082019050818103600083015261208781611dbf565b9050919050565b600060208201905081810360008301526120a781611de2565b9050919050565b600060208201905081810360008301526120c781611e05565b9050919050565b600060208201905081810360008301526120e781611e28565b9050919050565b6000602082019050818103600083015261210781611e4b565b9050919050565b6000602082019050818103600083015261212781611e6e565b9050919050565b6000602082019050818103600083015261214781611e91565b9050919050565b6000602082019050818103600083015261216781611eb4565b9050919050565b60006020820190506121836000830184611ed7565b92915050565b60006121936121a4565b905061219f82826123f6565b919050565b6000604051905090565b600067ffffffffffffffff8211156121c9576121c861252e565b5b6121d28261255d565b9050602081019050919050565b600067ffffffffffffffff8211156121fa576121f961252e565b5b6122038261255d565b9050602081019050919050565b600081519050919050565b600081519050919050565b600082825260208201905092915050565b600082825260208201905092915050565b600081905092915050565b600061225e82612378565b915061226983612378565b9250827fffffffffffffffffffffffffffffffffffffffffffffffffffffffffffffffff0382111561229e5761229d6124a1565b5b828201905092915050565b60006122b482612378565b91506122bf83612378565b9250826122cf576122ce6124d0565b5b828204905092915050565b60006122e582612378565b91506122f083612378565b925082821015612303576123026124a1565b5b828203905092915050565b600061231982612358565b9050919050565b60008115159050919050565b60007fffffffff0000000000000000000000000000000000000000000000000000000082169050919050565b600073ffffffffffffffffffffffffffffffffffffffff82169050919050565b6000819050919050565b82818337600083830152505050565b60005b838110156123af578082015181840152602081019050612394565b838111156123be576000848401525b50505050565b600060028204905060018216806123dc57607f821691505b602082108114156123f0576123ef6124ff565b5b50919050565b6123ff8261255d565b810181811067ffffffffffffffff8211171561241e5761241d61252e565b5b80604052505050565b600061243282612378565b91507fffffffffffffffffffffffffffffffffffffffffffffffffffffffffffffffff821415612465576124646124a1565b5b600182019050919050565b600061247b82612378565b915061248683612378565b925082612496576124956124d0565b5b828206905092915050565b7f4e487b7100000000000000000000000000000000000000000000000000000000600052601160045260246000fd5b7f4e487b7100000000000000000000000000000000000000000000000000000000600052601260045260246000fd5b7f4e487b7100000000000000000000000000000000000000000000000000000000600052602260045260246000fd5b7f4e487b7100000000000000000000000000000000000000000000000000000000600052604160045260246000fd5b6000601f19601f8301169050919050565b7f4552433732313a207472616e7366657220746f206e6f6e20455243373231526560008201527f63656976657220696d706c656d656e7465720000000000000000000000000000602082015250565b7f4552433732313a207472616e736665722066726f6d20696e636f72726563742060008201527f6f776e6572000000000000000000000000000000000000000000000000000000602082015250565b7f4552433732313a20746f6b656e20616c7265616479206d696e74656400000000600082015250565b7f4552433732313a207472616e7366657220746f20746865207a65726f2061646460008201527f7265737300000000000000000000000000000000000000000000000000000000602082015250565b7f4552433732313a20617070726f766520746f2063616c6c657200000000000000600082015250565b7f4552433732313a206f70657261746f7220717565727920666f72206e6f6e657860008201527f697374656e7420746f6b656e0000000000000000000000000000000000000000602082015250565b7f4552433732313a20617070726f76652063616c6c6572206973206e6f74206f7760008201527f6e6572206e6f7220617070726f76656420666f7220616c6c0000000000000000602082015250565b7f4552433732313a2062616c616e636520717565727920666f7220746865207a6560008201527f726f206164647265737300000000000000000000000000000000000000000000602082015250565b7f4552433732313a206f776e657220717565727920666f72206e6f6e657869737460008201527f656e7420746f6b656e0000000000000000000000000000000000000000000000602082015250565b7f4552433732313a206d696e7420746f20746865207a65726f2061646472657373600082015250565b7f4552433732313a20617070726f76656420717565727920666f72206e6f6e657860008201527f697374656e7420746f6b656e0000000000000000000000000000000000000000602082015250565b7f4552433732314d657461646174613a2055524920717565727920666f72206e6f60008201527f6e6578697374656e7420746f6b656e0000000000000000000000000000000000602082015250565b7f4552433732313a20617070726f76616c20746f2063757272656e74206f776e6560008201527f7200000000000000000000000000000000000000000000000000000000000000602082015250565b7f4552433732313a207472616e736665722063616c6c6572206973206e6f74206f60008201527f776e6572206e6f7220617070726f766564000000000000000000000000000000602082015250565b6129578161230e565b811461296257600080fd5b50565b61296e81612320565b811461297957600080fd5b50565b6129858161232c565b811461299057600080fd5b50565b61299c81612378565b81146129a757600080fd5b5056fea2646970667358221220385c5c5b69e57f7974dcdfc3bf07b58d7e6dfab17a071a9105ad6c5b161232bd64736f6c63430008010033",
  "linkReferences": {},
  "deployedLinkReferences": {}
}