{
  "_format": "hh-sol-artifact-1",
  "contractName": "SnakeNFT",
  "sourceName": "contracts/SnakeNFT.sol",
  "abi": [
    {
      "inputs": [
        {
          "internalType": "string",
          "name": "_baseTokenURI",
          "type": "string"
        }
      ],
      "stateMutability": "nonpayable",
      "type": "constructor"
    },
    {
      "anonymous": false,
      "inputs": [
        {
          "indexed": true,
          "internalType": "address",
          "name": "owner",
          "type": "address"
        },
        {
          "indexed": true,
          "internalType": "address",
          "name": "approved",
          "type": "address"
        },
        {
          "indexed": true,
          "internalType": "uint256",
          "name": "tokenId",
          "type": "uint256"
        }
      ],
      "name": "Approval",
      "type": "event"
    },
    {
      "anonymous": false,
      "inputs": [
        {
          "indexed": true,
          "internalType": "address",
          "name": "owner",
          "type": "address"
        },
        {
          "indexed": true,
          "internalType": "address",
          "name": "operator",
          "type": "address"
        },
        {
          "indexed": false,
          "internalType": "bool",
          "name": "approved",
          "type": "bool"
        }
      ],
      "name": "ApprovalForAll",
      "type": "event"
    },
    {
      "anonymous": false,
      "inputs": [
        {
          "indexed": true,
          "internalType": "address",
          "name": "previousOwner",
          "type": "address"
        },
        {
          "indexed": true,
          "internalType": "address",
          "name": "newOwner",
          "type": "address"
        }
      ],
      "name": "OwnershipTransferred",
      "type": "event"
    },
    {
      "anonymous": false,
      "inputs": [
        {
          "indexed": true,
          "internalType": "address",
          "name": "from",
          "type": "address"
        },
        {
          "indexed": true,
          "internalType": "address",
          "name": "to",
          "type": "address"
        },
        {
          "indexed": true,
          "internalType": "uint256",
          "name": "tokenId",
          "type": "uint256"
        }
      ],
      "name": "Transfer",
      "type": "event"
    },
    {
      "inputs": [
        {
          "internalType": "address",
          "name": "to",
          "type": "address"
        },
        {
          "internalType": "uint256",
          "name": "tokenId",
          "type": "uint256"
        }
      ],
      "name": "approve",
      "outputs": [],
      "stateMutability": "nonpayable",
      "type": "function"
    },
    {
      "inputs": [
        {
          "internalType": "address",
          "name": "owner",
          "type": "address"
        }
      ],
      "name": "balanceOf",
      "outputs": [
        {
          "internalType": "uint256",
          "name": "",
          "type": "uint256"
        }
      ],
      "stateMutability": "view",
      "type": "function"
    },
    {
      "inputs": [
        {
          "internalType": "uint256",
          "name": "tokenId",
          "type": "uint256"
        }
      ],
      "name": "getApproved",
      "outputs": [
        {
          "internalType": "address",
          "name": "",
          "type": "address"
        }
      ],
      "stateMutability": "view",
      "type": "function"
    },
    {
      "inputs": [
        {
          "internalType": "address",
          "name": "owner",
          "type": "address"
        },
        {
          "internalType": "address",
          "name": "operator",
          "type": "address"
        }
      ],
      "name": "isApprovedForAll",
      "outputs": [
        {
          "internalType": "bool",
          "name": "",
          "type": "bool"
        }
      ],
      "stateMutability": "view",
      "type": "function"
    },
    {
      "inputs": [
        {
          "internalType": "address",
          "name": "to",
          "type": "address"
        }
      ],
      "name": "mint",
      "outputs": [
        {
          "internalType": "uint256",
          "name": "",
          "type": "uint256"
        }
      ],
      "stateMutability": "nonpayable",
      "type": "function"
    },
    {
      "inputs": [],
      "name": "name",
      "outputs": [
        {
          "internalType": "string",
          "name": "",
          "type": "string"
        }
      ],
      "stateMutability": "view",
      "type": "function"
    },
    {
      "inputs": [],
      "name": "owner",
      "outputs": [
        {
          "internalType": "address",
          "name": "",
          "type": "address"
        }
      ],
      "stateMutability": "view",
      "type": "function"
    },
    {
      "inputs": [
        {
          "internalType": "uint256",
          "name": "tokenId",
          "type": "uint256"
        }
      ],
      "name": "ownerOf",
      "outputs": [
        {
          "internalType": "address",
          "name": "",
          "type": "address"
        }
      ],
      "stateMutability": "view",
      "type": "function"
    },
    {
      "inputs": [],
      "name": "renounceOwnership",
      "outputs": [],
      "stateMutability": "nonpayable",
      "type": "function"
    },
    {
      "inputs": [
        {
          "internalType": "address",
          "name": "from",
          "type": "address"
        },
        {
          "internalType": "address",
          "name": "to",
          "type": "address"
        },
        {
          "internalType": "uint256",
          "name": "tokenId",
          "type": "uint256"
        }
      ],
      "name": "safeTransferFrom",
      "outputs": [],
      "stateMutability": "nonpayable",
      "type": "function"
    },
    {
      "inputs": [
        {
          "internalType": "address",
          "name": "from",
          "type": "address"
        },
        {
          "internalType": "address",
          "name": "to",
          "type": "address"
        },
        {
          "internalType": "uint256",
          "name": "tokenId",
          "type": "uint256"
        },
        {
          "internalType": "bytes",
          "name": "_data",
          "type": "bytes"
        }
      ],
      "name": "safeTransferFrom",
      "outputs": [],
      "stateMutability": "nonpayable",
      "type": "function"
    },
    {
      "inputs": [
        {
          "internalType": "address",
          "name": "operator",
          "type": "address"
        },
        {
          "internalType": "bool",
          "name": "approved",
          "type": "bool"
        }
      ],
      "name": "setApprovalForAll",
      "outputs": [],
      "stateMutability": "nonpayable",
      "type": "function"
    },
    {
      "inputs": [
        {
          "internalType": "string",
          "name": "_baseTokenURI",
          "type": "string"
        }
      ],
      "name": "setBaseTokenURI",
      "outputs": [],
      "stateMutability": "nonpayable",
      "type": "function"
    },
    {
      "inputs": [
        {
          "internalType": "bytes4",
          "name": "interfaceId",
          "type": "bytes4"
        }
      ],
      "name": "supportsInterface",
      "outputs": [
        {
          "internalType": "bool",
          "name": "",
          "type": "bool"
        }
      ],
      "stateMutability": "view",
      "type": "function"
    },
    {
      "inputs": [],
      "name": "symbol",
      "outputs": [
        {
          "internalType": "string",
          "name": "",
          "type": "string"
        }
      ],
      "stateMutability": "view",
      "type": "function"
    },
    {
      "inputs": [
        {
          "internalType": "uint256",
          "name": "tokenId",
          "type": "uint256"
        }
      ],
      "name": "tokenURI",
      "outputs": [
        {
          "internalType": "string",
          "name": "",
          "type": "string"
        }
      ],
      "stateMutability": "view",
      "type": "function"
    },
    {
      "inputs": [
        {
          "internalType": "address",
          "name": "from",
          "type": "address"
        },
        {
          "internalType": "address",
          "name": "to",
          "type": "address"
        },
        {
          "internalType": "uint256",
          "name": "tokenId",
          "type": "uint256"
        }
      ],
      "name": "transferFrom",
      "outputs": [],
      "stateMutability": "nonpayable",
      "type": "function"
    },
    {
      "inputs": [
        {
          "internalType": "address",
          "name": "newOwner",
          "type": "address"
        }
      ],
      "name": "transferOwnership",
      "outputs": [],
      "stateMutability": "nonpayable",
      "type": "function"
    }
  ],
  "bytecode": "0x60806040523480156200001157600080fd5b50604051620032fb380380620032fb833981810160405281019062000037919062000307565b6040518060400160405280600881526020017f536e616b654e46540000000000000000000000000000000000000000000000008152506040518060400160405280600581526020017f534e414b450000000000000000000000000000000000000000000000000000008152508160009080519060200190620000bb929190620001e5565b508060019080519060200190620000d4929190620001e5565b505050620000f7620000eb6200011760201b60201c565b6200011f60201b60201c565b80600890805190602001906200010f929190620001e5565b5050620004bc565b600033905090565b6000600660009054906101000a900473ffffffffffffffffffffffffffffffffffffffff16905081600660006101000a81548173ffffffffffffffffffffffffffffffffffffffff021916908373ffffffffffffffffffffffffffffffffffffffff1602179055508173ffffffffffffffffffffffffffffffffffffffff168173ffffffffffffffffffffffffffffffffffffffff167f8be0079c531659141344cd1fd0a4f28419497f9722a3daafe3b4186f6b6457e060405160405180910390a35050565b828054620001f390620003e1565b90600052602060002090601f01602090048101928262000217576000855562000263565b82601f106200023257805160ff191683800117855562000263565b8280016001018555821562000263579182015b828111156200026257825182559160200191906001019062000245565b5b50905062000272919062000276565b5090565b5b808211156200029157600081600090555060010162000277565b5090565b6000620002ac620002a68462000375565b6200034c565b905082815260208101848484011115620002c557600080fd5b620002d2848285620003ab565b509392505050565b600082601f830112620002ec57600080fd5b8151620002fe84826020860162000295565b91505092915050565b6000602082840312156200031a57600080fd5b600082015167ffffffffffffffff8111156200033557600080fd5b6200034384828501620002da565b91505092915050565b6000620003586200036b565b905062000366828262000417565b919050565b6000604051905090565b600067ffffffffffffffff8211156200039357620003926200047c565b5b6200039e82620004ab565b9050602081019050919050565b60005b83811015620003cb578082015181840152602081019050620003ae565b83811115620003db576000848401525b50505050565b60006002820490506001821680620003fa57607f821691505b602082108114156200041157620004106200044d565b5b50919050565b6200042282620004ab565b810181811067ffffffffffffffff821117156200044457620004436200047c565b5b80604052505050565b7f4e487b7100000000000000000000000000000000000000000000000000000000600052602260045260246000fd5b7f4e487b7100000000000000000000000000000000000000000000000000000000600052604160045260246000fd5b6000601f19601f8301169050919050565b612e2f80620004cc6000396000f3fe608060405234801561001057600080fd5b50600436106101165760003560e01c806370a08231116100a2578063a22cb46511610071578063a22cb465146102df578063b88d4fde146102fb578063c87b56dd14610317578063e985e9c514610347578063f2fde38b1461037757610116565b806370a0823114610269578063715018a6146102995780638da5cb5b146102a357806395d89b41146102c157610116565b806323b872dd116100e957806323b872dd146101b557806330176e13146101d157806342842e0e146101ed5780636352211e146102095780636a6278421461023957610116565b806301ffc9a71461011b57806306fdde031461014b578063081812fc14610169578063095ea7b314610199575b600080fd5b61013560048036038101906101309190611ec1565b610393565b6040516101429190612308565b60405180910390f35b610153610475565b6040516101609190612323565b60405180910390f35b610183600480360381019061017e9190611f54565b610507565b60405161019091906122a1565b60405180910390f35b6101b360048036038101906101ae9190611e85565b61058c565b005b6101cf60048036038101906101ca9190611d7f565b6106a4565b005b6101eb60048036038101906101e69190611f13565b610704565b005b61020760048036038101906102029190611d7f565b61079a565b005b610223600480360381019061021e9190611f54565b6107ba565b60405161023091906122a1565b60405180910390f35b610253600480360381019061024e9190611d1a565b61086c565b6040516102609190612545565b60405180910390f35b610283600480360381019061027e9190611d1a565b6108b2565b6040516102909190612545565b60405180910390f35b6102a161096a565b005b6102ab6109f2565b6040516102b891906122a1565b60405180910390f35b6102c9610a1c565b6040516102d69190612323565b60405180910390f35b6102f960048036038101906102f49190611e49565b610aae565b005b61031560048036038101906103109190611dce565b610ac4565b005b610331600480360381019061032c9190611f54565b610b26565b60405161033e9190612323565b60405180910390f35b610361600480360381019061035c9190611d43565b610bcd565b60405161036e9190612308565b60405180910390f35b610391600480360381019061038c9190611d1a565b610c61565b005b60007f80ac58cd000000000000000000000000000000000000000000000000000000007bffffffffffffffffffffffffffffffffffffffffffffffffffffffff1916827bffffffffffffffffffffffffffffffffffffffffffffffffffffffff1916148061045e57507f5b5e139f000000000000000000000000000000000000000000000000000000007bffffffffffffffffffffffffffffffffffffffffffffffffffffffff1916827bffffffffffffffffffffffffffffffffffffffffffffffffffffffff1916145b8061046e575061046d82610d59565b5b9050919050565b6060600080546104849061279b565b80601f01602080910402602001604051908101604052809291908181526020018280546104b09061279b565b80156104fd5780601f106104d2576101008083540402835291602001916104fd565b820191906000526020600020905b8154815290600101906020018083116104e057829003601f168201915b5050505050905090565b600061051282610dc3565b610551576040517f08c379a0000000000000000000000000000000000000000000000000000000008152600401610548906124a5565b60405180910390fd5b6004600083815260200190815260200160002060009054906101000a900473ffffffffffffffffffffffffffffffffffffffff169050919050565b6000610597826107ba565b90508073ffffffffffffffffffffffffffffffffffffffff168373ffffffffffffffffffffffffffffffffffffffff161415610608576040517f08c379a00000000000000000000000000000000000000000000000000000000081526004016105ff90612505565b60405180910390fd5b8073ffffffffffffffffffffffffffffffffffffffff16610627610e2f565b73ffffffffffffffffffffffffffffffffffffffff161480610656575061065581610650610e2f565b610bcd565b5b610695576040517f08c379a000000000000000000000000000000000000000000000000000000000815260040161068c90612425565b60405180910390fd5b61069f8383610e37565b505050565b6106b56106af610e2f565b82610ef0565b6106f4576040517f08c379a00000000000000000000000000000000000000000000000000000000081526004016106eb90612525565b60405180910390fd5b6106ff838383610fce565b505050565b61070c610e2f565b73ffffffffffffffffffffffffffffffffffffffff1661072a6109f2565b73ffffffffffffffffffffffffffffffffffffffff1614610780576040517f08c379a0000000000000000000000000000000000000000000000000000000008152600401610777906124c5565b60405180910390fd5b8060089080519060200190610796929190611b3e565b5050565b6107b583838360405180602001604052806000815250610ac4565b505050565b6000806002600084815260200190815260200160002060009054906101000a900473ffffffffffffffffffffffffffffffffffffffff169050600073ffffffffffffffffffffffffffffffffffffffff168173ffffffffffffffffffffffffffffffffffffffff161415610863576040517f08c379a000000000000000000000000000000000000000000000000000000000815260040161085a90612465565b60405180910390fd5b80915050919050565b6000600361087a6007611235565b1061088457600080fd5b61088e6007611243565b6108a18261089c6007611235565b611259565b6108ab6007611235565b9050919050565b60008073ffffffffffffffffffffffffffffffffffffffff168273ffffffffffffffffffffffffffffffffffffffff161415610923576040517f08c379a000000000000000000000000000000000000000000000000000000000815260040161091a90612445565b60405180910390fd5b600360008373ffffffffffffffffffffffffffffffffffffffff1673ffffffffffffffffffffffffffffffffffffffff168152602001908152602001600020549050919050565b610972610e2f565b73ffffffffffffffffffffffffffffffffffffffff166109906109f2565b73ffffffffffffffffffffffffffffffffffffffff16146109e6576040517f08c379a00000000000000000000000000000000000000000000000000000000081526004016109dd906124c5565b60405180910390fd5b6109f06000611277565b565b6000600660009054906101000a900473ffffffffffffffffffffffffffffffffffffffff16905090565b606060018054610a2b9061279b565b80601f0160208091040260200160405190810160405280929190818152602001828054610a579061279b565b8015610aa45780601f10610a7957610100808354040283529160200191610aa4565b820191906000526020600020905b815481529060010190602001808311610a8757829003601f168201915b5050505050905090565b610ac0610ab9610e2f565b838361133d565b5050565b610ad5610acf610e2f565b83610ef0565b610b14576040517f08c379a0000000000000000000000000000000000000000000000000000000008152600401610b0b90612525565b60405180910390fd5b610b20848484846114aa565b50505050565b6060610b3182610dc3565b610b70576040517f08c379a0000000000000000000000000000000000000000000000000000000008152600401610b67906124e5565b60405180910390fd5b6000610b7a611506565b90506000815111610b9a5760405180602001604052806000815250610bc5565b80610ba484611598565b604051602001610bb592919061227d565b6040516020818303038152906040525b915050919050565b6000600560008473ffffffffffffffffffffffffffffffffffffffff1673ffffffffffffffffffffffffffffffffffffffff16815260200190815260200160002060008373ffffffffffffffffffffffffffffffffffffffff1673ffffffffffffffffffffffffffffffffffffffff16815260200190815260200160002060009054906101000a900460ff16905092915050565b610c69610e2f565b73ffffffffffffffffffffffffffffffffffffffff16610c876109f2565b73ffffffffffffffffffffffffffffffffffffffff1614610cdd576040517f08c379a0000000000000000000000000000000000000000000000000000000008152600401610cd4906124c5565b60405180910390fd5b600073ffffffffffffffffffffffffffffffffffffffff168173ffffffffffffffffffffffffffffffffffffffff161415610d4d576040517f08c379a0000000000000000000000000000000000000000000000000000000008152600401610d4490612365565b60405180910390fd5b610d5681611277565b50565b60007f01ffc9a7000000000000000000000000000000000000000000000000000000007bffffffffffffffffffffffffffffffffffffffffffffffffffffffff1916827bffffffffffffffffffffffffffffffffffffffffffffffffffffffff1916149050919050565b60008073ffffffffffffffffffffffffffffffffffffffff166002600084815260200190815260200160002060009054906101000a900473ffffffffffffffffffffffffffffffffffffffff1673ffffffffffffffffffffffffffffffffffffffff1614159050919050565b600033905090565b816004600083815260200190815260200160002060006101000a81548173ffffffffffffffffffffffffffffffffffffffff021916908373ffffffffffffffffffffffffffffffffffffffff160217905550808273ffffffffffffffffffffffffffffffffffffffff16610eaa836107ba565b73ffffffffffffffffffffffffffffffffffffffff167f8c5be1e5ebec7d5bd14f71427d1e84f3dd0314c0f7b2291e5b200ac8c7c3b92560405160405180910390a45050565b6000610efb82610dc3565b610f3a576040517f08c379a0000000000000000000000000000000000000000000000000000000008152600401610f3190612405565b60405180910390fd5b6000610f45836107ba565b90508073ffffffffffffffffffffffffffffffffffffffff168473ffffffffffffffffffffffffffffffffffffffff161480610fb457508373ffffffffffffffffffffffffffffffffffffffff16610f9c84610507565b73ffffffffffffffffffffffffffffffffffffffff16145b80610fc55750610fc48185610bcd565b5b91505092915050565b8273ffffffffffffffffffffffffffffffffffffffff16610fee826107ba565b73ffffffffffffffffffffffffffffffffffffffff1614611044576040517f08c379a000000000000000000000000000000000000000000000000000000000815260040161103b90612385565b60405180910390fd5b600073ffffffffffffffffffffffffffffffffffffffff168273ffffffffffffffffffffffffffffffffffffffff1614156110b4576040517f08c379a00000000000000000000000000000000000000000000000000000000081526004016110ab906123c5565b60405180910390fd5b6110bf838383611745565b6110ca600082610e37565b6001600360008573ffffffffffffffffffffffffffffffffffffffff1673ffffffffffffffffffffffffffffffffffffffff168152602001908152602001600020600082825461111a91906126b1565b925050819055506001600360008473ffffffffffffffffffffffffffffffffffffffff1673ffffffffffffffffffffffffffffffffffffffff1681526020019081526020016000206000828254611171919061262a565b92505081905550816002600083815260200190815260200160002060006101000a81548173ffffffffffffffffffffffffffffffffffffffff021916908373ffffffffffffffffffffffffffffffffffffffff160217905550808273ffffffffffffffffffffffffffffffffffffffff168473ffffffffffffffffffffffffffffffffffffffff167fddf252ad1be2c89b69c2b068fc378daa952ba7f163c4a11628f55a4df523b3ef60405160405180910390a461123083838361174a565b505050565b600081600001549050919050565b6001816000016000828254019250508190555050565b61127382826040518060200160405280600081525061174f565b5050565b6000600660009054906101000a900473ffffffffffffffffffffffffffffffffffffffff16905081600660006101000a81548173ffffffffffffffffffffffffffffffffffffffff021916908373ffffffffffffffffffffffffffffffffffffffff1602179055508173ffffffffffffffffffffffffffffffffffffffff168173ffffffffffffffffffffffffffffffffffffffff167f8be0079c531659141344cd1fd0a4f28419497f9722a3daafe3b4186f6b6457e060405160405180910390a35050565b8173ffffffffffffffffffffffffffffffffffffffff168373ffffffffffffffffffffffffffffffffffffffff1614156113ac576040517f08c379a00000000000000000000000000000000000000000000000000000000081526004016113a3906123e5565b60405180910390fd5b80600560008573ffffffffffffffffffffffffffffffffffffffff1673ffffffffffffffffffffffffffffffffffffffff16815260200190815260200160002060008473ffffffffffffffffffffffffffffffffffffffff1673ffffffffffffffffffffffffffffffffffffffff16815260200190815260200160002060006101000a81548160ff0219169083151502179055508173ffffffffffffffffffffffffffffffffffffffff168373ffffffffffffffffffffffffffffffffffffffff167f17307eab39ab6107e8899845ad3d59bd9653f200f220920489ca2b5937696c318360405161149d9190612308565b60405180910390a3505050565b6114b5848484610fce565b6114c1848484846117aa565b611500576040517f08c379a00000000000000000000000000000000000000000000000000000000081526004016114f790612345565b60405180910390fd5b50505050565b6060600880546115159061279b565b80601f01602080910402602001604051908101604052809291908181526020018280546115419061279b565b801561158e5780601f106115635761010080835404028352916020019161158e565b820191906000526020600020905b81548152906001019060200180831161157157829003601f168201915b5050505050905090565b606060008214156115e0576040518060400160405280600181526020017f30000000000000000000000000000000000000000000000000000000000000008152509050611740565b600082905060005b600082146116125780806115fb906127fe565b915050600a8261160b9190612680565b91506115e8565b60008167ffffffffffffffff811115611654577f4e487b7100000000000000000000000000000000000000000000000000000000600052604160045260246000fd5b6040519080825280601f01601f1916602001820160405280156116865781602001600182028036833780820191505090505b5090505b600085146117395760018261169f91906126b1565b9150600a856116ae9190612847565b60306116ba919061262a565b60f81b8183815181106116f6577f4e487b7100000000000000000000000000000000000000000000000000000000600052603260045260246000fd5b60200101907effffffffffffffffffffffffffffffffffffffffffffffffffffffffffffff1916908160001a905350600a856117329190612680565b945061168a565b8093505050505b919050565b505050565b505050565b6117598383611941565b61176660008484846117aa565b6117a5576040517f08c379a000000000000000000000000000000000000000000000000000000000815260040161179c90612345565b60405180910390fd5b505050565b60006117cb8473ffffffffffffffffffffffffffffffffffffffff16611b1b565b15611934578373ffffffffffffffffffffffffffffffffffffffff1663150b7a026117f4610e2f565b8786866040518563ffffffff1660e01b815260040161181694939291906122bc565b602060405180830381600087803b15801561183057600080fd5b505af192505050801561186157506040513d601f19601f8201168201806040525081019061185e9190611eea565b60015b6118e4573d8060008114611891576040519150601f19603f3d011682016040523d82523d6000602084013e611896565b606091505b506000815114156118dc576040517f08c379a00000000000000000000000000000000000000000000000000000000081526004016118d390612345565b60405180910390fd5b805181602001fd5b63150b7a0260e01b7bffffffffffffffffffffffffffffffffffffffffffffffffffffffff1916817bffffffffffffffffffffffffffffffffffffffffffffffffffffffff191614915050611939565b600190505b949350505050565b600073ffffffffffffffffffffffffffffffffffffffff168273ffffffffffffffffffffffffffffffffffffffff1614156119b1576040517f08c379a00000000000000000000000000000000000000000000000000000000081526004016119a890612485565b60405180910390fd5b6119ba81610dc3565b156119fa576040517f08c379a00000000000000000000000000000000000000000000000000000000081526004016119f1906123a5565b60405180910390fd5b611a0660008383611745565b6001600360008473ffffffffffffffffffffffffffffffffffffffff1673ffffffffffffffffffffffffffffffffffffffff1681526020019081526020016000206000828254611a56919061262a565b92505081905550816002600083815260200190815260200160002060006101000a81548173ffffffffffffffffffffffffffffffffffffffff021916908373ffffffffffffffffffffffffffffffffffffffff160217905550808273ffffffffffffffffffffffffffffffffffffffff16600073ffffffffffffffffffffffffffffffffffffffff167fddf252ad1be2c89b69c2b068fc378daa952ba7f163c4a11628f55a4df523b3ef60405160405180910390a4611b176000838361174a565b5050565b6000808273ffffffffffffffffffffffffffffffffffffffff163b119050919050565b828054611b4a9061279b565b90600052602060002090601f016020900481019282611b6c5760008555611bb3565b82601f10611b8557805160ff1916838001178555611bb3565b82800160010185558215611bb3579182015b82811115611bb2578251825591602001919060010190611b97565b5b509050611bc09190611bc4565b5090565b5b80821115611bdd576000816000905550600101611bc5565b5090565b6000611bf4611bef84612585565b612560565b905082815260208101848484011115611c0c57600080fd5b611c17848285612759565b509392505050565b6000611c32611c2d846125b6565b612560565b905082815260208101848484011115611c4a57600080fd5b611c55848285612759565b509392505050565b600081359050611c6c81612d9d565b92915050565b600081359050611c8181612db4565b92915050565b600081359050611c9681612dcb565b92915050565b600081519050611cab81612dcb565b92915050565b600082601f830112611cc257600080fd5b8135611cd2848260208601611be1565b91505092915050565b600082601f830112611cec57600080fd5b8135611cfc848260208601611c1f565b91505092915050565b600081359050611d1481612de2565b92915050565b600060208284031215611d2c57600080fd5b6000611d3a84828501611c5d565b91505092915050565b60008060408385031215611d5657600080fd5b6000611d6485828601611c5d565b9250506020611d7585828601611c5d565b9150509250929050565b600080600060608486031215611d9457600080fd5b6000611da286828701611c5d565b9350506020611db386828701611c5d565b9250506040611dc486828701611d05565b9150509250925092565b60008060008060808587031215611de457600080fd5b6000611df287828801611c5d565b9450506020611e0387828801611c5d565b9350506040611e1487828801611d05565b925050606085013567ffffffffffffffff811115611e3157600080fd5b611e3d87828801611cb1565b91505092959194509250565b60008060408385031215611e5c57600080fd5b6000611e6a85828601611c5d565b9250506020611e7b85828601611c72565b9150509250929050565b60008060408385031215611e9857600080fd5b6000611ea685828601611c5d565b9250506020611eb785828601611d05565b9150509250929050565b600060208284031215611ed357600080fd5b6000611ee184828501611c87565b91505092915050565b600060208284031215611efc57600080fd5b6000611f0a84828501611c9c565b91505092915050565b600060208284031215611f2557600080fd5b600082013567ffffffffffffffff811115611f3f57600080fd5b611f4b84828501611cdb565b91505092915050565b600060208284031215611f6657600080fd5b6000611f7484828501611d05565b91505092915050565b611f86816126e5565b82525050565b611f95816126f7565b82525050565b6000611fa6826125e7565b611fb081856125fd565b9350611fc0818560208601612768565b611fc981612934565b840191505092915050565b6000611fdf826125f2565b611fe9818561260e565b9350611ff9818560208601612768565b61200281612934565b840191505092915050565b6000612018826125f2565b612022818561261f565b9350612032818560208601612768565b80840191505092915050565b600061204b60328361260e565b915061205682612945565b604082019050919050565b600061206e60268361260e565b915061207982612994565b604082019050919050565b600061209160258361260e565b915061209c826129e3565b604082019050919050565b60006120b4601c8361260e565b91506120bf82612a32565b602082019050919050565b60006120d760248361260e565b91506120e282612a5b565b604082019050919050565b60006120fa60198361260e565b915061210582612aaa565b602082019050919050565b600061211d602c8361260e565b915061212882612ad3565b604082019050919050565b600061214060388361260e565b915061214b82612b22565b604082019050919050565b6000612163602a8361260e565b915061216e82612b71565b604082019050919050565b600061218660298361260e565b915061219182612bc0565b604082019050919050565b60006121a960208361260e565b91506121b482612c0f565b602082019050919050565b60006121cc602c8361260e565b91506121d782612c38565b604082019050919050565b60006121ef60208361260e565b91506121fa82612c87565b602082019050919050565b6000612212602f8361260e565b915061221d82612cb0565b604082019050919050565b600061223560218361260e565b915061224082612cff565b604082019050919050565b600061225860318361260e565b915061226382612d4e565b604082019050919050565b6122778161274f565b82525050565b6000612289828561200d565b9150612295828461200d565b91508190509392505050565b60006020820190506122b66000830184611f7d565b92915050565b60006080820190506122d16000830187611f7d565b6122de6020830186611f7d565b6122eb604083018561226e565b81810360608301526122fd8184611f9b565b905095945050505050565b600060208201905061231d6000830184611f8c565b92915050565b6000602082019050818103600083015261233d8184611fd4565b905092915050565b6000602082019050818103600083015261235e8161203e565b9050919050565b6000602082019050818103600083015261237e81612061565b9050919050565b6000602082019050818103600083015261239e81612084565b9050919050565b600060208201905081810360008301526123be816120a7565b9050919050565b600060208201905081810360008301526123de816120ca565b9050919050565b600060208201905081810360008301526123fe816120ed565b9050919050565b6000602082019050818103600083015261241e81612110565b9050919050565b6000602082019050818103600083015261243e81612133565b9050919050565b6000602082019050818103600083015261245e81612156565b9050919050565b6000602082019050818103600083015261247e81612179565b9050919050565b6000602082019050818103600083015261249e8161219c565b9050919050565b600060208201905081810360008301526124be816121bf565b9050919050565b600060208201905081810360008301526124de816121e2565b9050919050565b600060208201905081810360008301526124fe81612205565b9050919050565b6000602082019050818103600083015261251e81612228565b9050919050565b6000602082019050818103600083015261253e8161224b565b9050919050565b600060208201905061255a600083018461226e565b92915050565b600061256a61257b565b905061257682826127cd565b919050565b6000604051905090565b600067ffffffffffffffff8211156125a05761259f612905565b5b6125a982612934565b9050602081019050919050565b600067ffffffffffffffff8211156125d1576125d0612905565b5b6125da82612934565b9050602081019050919050565b600081519050919050565b600081519050919050565b600082825260208201905092915050565b600082825260208201905092915050565b600081905092915050565b60006126358261274f565b91506126408361274f565b9250827fffffffffffffffffffffffffffffffffffffffffffffffffffffffffffffffff0382111561267557612674612878565b5b828201905092915050565b600061268b8261274f565b91506126968361274f565b9250826126a6576126a56128a7565b5b828204905092915050565b60006126bc8261274f565b91506126c78361274f565b9250828210156126da576126d9612878565b5b828203905092915050565b60006126f08261272f565b9050919050565b60008115159050919050565b60007fffffffff0000000000000000000000000000000000000000000000000000000082169050919050565b600073ffffffffffffffffffffffffffffffffffffffff82169050919050565b6000819050919050565b82818337600083830152505050565b60005b8381101561278657808201518184015260208101905061276b565b83811115612795576000848401525b50505050565b600060028204905060018216806127b357607f821691505b602082108114156127c7576127c66128d6565b5b50919050565b6127d682612934565b810181811067ffffffffffffffff821117156127f5576127f4612905565b5b80604052505050565b60006128098261274f565b91507fffffffffffffffffffffffffffffffffffffffffffffffffffffffffffffffff82141561283c5761283b612878565b5b600182019050919050565b60006128528261274f565b915061285d8361274f565b92508261286d5761286c6128a7565b5b828206905092915050565b7f4e487b7100000000000000000000000000000000000000000000000000000000600052601160045260246000fd5b7f4e487b7100000000000000000000000000000000000000000000000000000000600052601260045260246000fd5b7f4e487b7100000000000000000000000000000000000000000000000000000000600052602260045260246000fd5b7f4e487b7100000000000000000000000000000000000000000000000000000000600052604160045260246000fd5b6000601f19601f8301169050919050565b7f4552433732313a207472616e7366657220746f206e6f6e20455243373231526560008201527f63656976657220696d706c656d656e7465720000000000000000000000000000602082015250565b7f4f776e61626c653a206e6577206f776e657220697320746865207a65726f206160008201527f6464726573730000000000000000000000000000000000000000000000000000602082015250565b7f4552433732313a207472616e736665722066726f6d20696e636f72726563742060008201527f6f776e6572000000000000000000000000000000000000000000000000000000602082015250565b7f4552433732313a20746f6b656e20616c7265616479206d696e74656400000000600082015250565b7f4552433732313a207472616e7366657220746f20746865207a65726f2061646460008201527f7265737300000000000000000000000000000000000000000000000000000000602082015250565b7f4552433732313a20617070726f766520746f2063616c6c657200000000000000600082015250565b7f4552433732313a206f70657261746f7220717565727920666f72206e6f6e657860008201527f697374656e7420746f6b656e0000000000000000000000000000000000000000602082015250565b7f4552433732313a20617070726f76652063616c6c6572206973206e6f74206f7760008201527f6e6572206e6f7220617070726f76656420666f7220616c6c0000000000000000602082015250565b7f4552433732313a2062616c616e636520717565727920666f7220746865207a6560008201527f726f206164647265737300000000000000000000000000000000000000000000602082015250565b7f4552433732313a206f776e657220717565727920666f72206e6f6e657869737460008201527f656e7420746f6b656e0000000000000000000000000000000000000000000000602082015250565b7f4552433732313a206d696e7420746f20746865207a65726f2061646472657373600082015250565b7f4552433732313a20617070726f76656420717565727920666f72206e6f6e657860008201527f697374656e7420746f6b656e0000000000000000000000000000000000000000602082015250565b7f4f776e61626c653a2063616c6c6572206973206e6f7420746865206f776e6572600082015250565b7f4552433732314d657461646174613a2055524920717565727920666f72206e6f60008201527f6e6578697374656e7420746f6b656e0000000000000000000000000000000000602082015250565b7f4552433732313a20617070726f76616c20746f2063757272656e74206f776e6560008201527f7200000000000000000000000000000000000000000000000000000000000000602082015250565b7f4552433732313a207472616e736665722063616c6c6572206973206e6f74206f60008201527f776e6572206e6f7220617070726f766564000000000000000000000000000000602082015250565b612da6816126e5565b8114612db157600080fd5b50565b612dbd816126f7565b8114612dc857600080fd5b50565b612dd481612703565b8114612ddf57600080fd5b50565b612deb8161274f565b8114612df657600080fd5b5056fea2646970667358221220d4dadad1ff53b80bd0f94d5d5e01b33fbd015ec8bee55e965c79bb306d2f938f64736f6c63430008010033",
  "linkReferences": {},
  "deployedLinkReferences": {}
}