{
  "_format": "hh-sol-artifact-1",
  "contractName": "SnakeNFT",
  "sourceName": "contracts/SnakeNFT.sol",
  "abi": [
    {
      "inputs": [
        {
          "internalType": "string",
          "name": "_baseTokenURI",
          "type": "string"
        },
        {
          "internalType": "uint256",
          "name": "_totalSupply",
          "type": "uint256"
        }
      ],
      "stateMutability": "nonpayable",
      "type": "constructor"
    },
    {
      "anonymous": false,
      "inputs": [
        {
          "indexed": true,
          "internalType": "address",
          "name": "owner",
          "type": "address"
        },
        {
          "indexed": true,
          "internalType": "address",
          "name": "approved",
          "type": "address"
        },
        {
          "indexed": true,
          "internalType": "uint256",
          "name": "tokenId",
          "type": "uint256"
        }
      ],
      "name": "Approval",
      "type": "event"
    },
    {
      "anonymous": false,
      "inputs": [
        {
          "indexed": true,
          "internalType": "address",
          "name": "owner",
          "type": "address"
        },
        {
          "indexed": true,
          "internalType": "address",
          "name": "operator",
          "type": "address"
        },
        {
          "indexed": false,
          "internalType": "bool",
          "name": "approved",
          "type": "bool"
        }
      ],
      "name": "ApprovalForAll",
      "type": "event"
    },
    {
      "anonymous": false,
      "inputs": [
        {
          "indexed": true,
          "internalType": "address",
          "name": "previousOwner",
          "type": "address"
        },
        {
          "indexed": true,
          "internalType": "address",
          "name": "newOwner",
          "type": "address"
        }
      ],
      "name": "OwnershipTransferred",
      "type": "event"
    },
    {
      "anonymous": false,
      "inputs": [
        {
          "indexed": true,
          "internalType": "address",
          "name": "from",
          "type": "address"
        },
        {
          "indexed": true,
          "internalType": "address",
          "name": "to",
          "type": "address"
        },
        {
          "indexed": true,
          "internalType": "uint256",
          "name": "tokenId",
          "type": "uint256"
        }
      ],
      "name": "Transfer",
      "type": "event"
    },
    {
      "inputs": [
        {
          "internalType": "address",
          "name": "to",
          "type": "address"
        },
        {
          "internalType": "uint256",
          "name": "tokenId",
          "type": "uint256"
        }
      ],
      "name": "approve",
      "outputs": [],
      "stateMutability": "nonpayable",
      "type": "function"
    },
    {
      "inputs": [
        {
          "internalType": "address",
          "name": "owner",
          "type": "address"
        }
      ],
      "name": "balanceOf",
      "outputs": [
        {
          "internalType": "uint256",
          "name": "",
          "type": "uint256"
        }
      ],
      "stateMutability": "view",
      "type": "function"
    },
    {
      "inputs": [
        {
          "internalType": "uint256",
          "name": "tokenId",
          "type": "uint256"
        }
      ],
      "name": "getApproved",
      "outputs": [
        {
          "internalType": "address",
          "name": "",
          "type": "address"
        }
      ],
      "stateMutability": "view",
      "type": "function"
    },
    {
      "inputs": [
        {
          "internalType": "address",
          "name": "owner",
          "type": "address"
        },
        {
          "internalType": "address",
          "name": "operator",
          "type": "address"
        }
      ],
      "name": "isApprovedForAll",
      "outputs": [
        {
          "internalType": "bool",
          "name": "",
          "type": "bool"
        }
      ],
      "stateMutability": "view",
      "type": "function"
    },
    {
      "inputs": [
        {
          "internalType": "address",
          "name": "to",
          "type": "address"
        }
      ],
      "name": "mint",
      "outputs": [
        {
          "internalType": "uint256",
          "name": "",
          "type": "uint256"
        }
      ],
      "stateMutability": "nonpayable",
      "type": "function"
    },
    {
      "inputs": [],
      "name": "name",
      "outputs": [
        {
          "internalType": "string",
          "name": "",
          "type": "string"
        }
      ],
      "stateMutability": "view",
      "type": "function"
    },
    {
      "inputs": [],
      "name": "owner",
      "outputs": [
        {
          "internalType": "address",
          "name": "",
          "type": "address"
        }
      ],
      "stateMutability": "view",
      "type": "function"
    },
    {
      "inputs": [
        {
          "internalType": "uint256",
          "name": "tokenId",
          "type": "uint256"
        }
      ],
      "name": "ownerOf",
      "outputs": [
        {
          "internalType": "address",
          "name": "",
          "type": "address"
        }
      ],
      "stateMutability": "view",
      "type": "function"
    },
    {
      "inputs": [],
      "name": "renounceOwnership",
      "outputs": [],
      "stateMutability": "nonpayable",
      "type": "function"
    },
    {
      "inputs": [
        {
          "internalType": "address",
          "name": "from",
          "type": "address"
        },
        {
          "internalType": "address",
          "name": "to",
          "type": "address"
        },
        {
          "internalType": "uint256",
          "name": "tokenId",
          "type": "uint256"
        }
      ],
      "name": "safeTransferFrom",
      "outputs": [],
      "stateMutability": "nonpayable",
      "type": "function"
    },
    {
      "inputs": [
        {
          "internalType": "address",
          "name": "from",
          "type": "address"
        },
        {
          "internalType": "address",
          "name": "to",
          "type": "address"
        },
        {
          "internalType": "uint256",
          "name": "tokenId",
          "type": "uint256"
        },
        {
          "internalType": "bytes",
          "name": "_data",
          "type": "bytes"
        }
      ],
      "name": "safeTransferFrom",
      "outputs": [],
      "stateMutability": "nonpayable",
      "type": "function"
    },
    {
      "inputs": [
        {
          "internalType": "address",
          "name": "operator",
          "type": "address"
        },
        {
          "internalType": "bool",
          "name": "approved",
          "type": "bool"
        }
      ],
      "name": "setApprovalForAll",
      "outputs": [],
      "stateMutability": "nonpayable",
      "type": "function"
    },
    {
      "inputs": [
        {
          "internalType": "string",
          "name": "_baseTokenURI",
          "type": "string"
        }
      ],
      "name": "setBaseTokenURI",
      "outputs": [],
      "stateMutability": "nonpayable",
      "type": "function"
    },
    {
      "inputs": [
        {
          "internalType": "bytes4",
          "name": "interfaceId",
          "type": "bytes4"
        }
      ],
      "name": "supportsInterface",
      "outputs": [
        {
          "internalType": "bool",
          "name": "",
          "type": "bool"
        }
      ],
      "stateMutability": "view",
      "type": "function"
    },
    {
      "inputs": [],
      "name": "symbol",
      "outputs": [
        {
          "internalType": "string",
          "name": "",
          "type": "string"
        }
      ],
      "stateMutability": "view",
      "type": "function"
    },
    {
      "inputs": [
        {
          "internalType": "uint256",
          "name": "tokenId",
          "type": "uint256"
        }
      ],
      "name": "tokenURI",
      "outputs": [
        {
          "internalType": "string",
          "name": "",
          "type": "string"
        }
      ],
      "stateMutability": "view",
      "type": "function"
    },
    {
      "inputs": [],
      "name": "totalMinted",
      "outputs": [
        {
          "internalType": "uint256",
          "name": "",
          "type": "uint256"
        }
      ],
      "stateMutability": "view",
      "type": "function"
    },
    {
      "inputs": [],
      "name": "totalSupply",
      "outputs": [
        {
          "internalType": "uint256",
          "name": "",
          "type": "uint256"
        }
      ],
      "stateMutability": "view",
      "type": "function"
    },
    {
      "inputs": [
        {
          "internalType": "address",
          "name": "from",
          "type": "address"
        },
        {
          "internalType": "address",
          "name": "to",
          "type": "address"
        },
        {
          "internalType": "uint256",
          "name": "tokenId",
          "type": "uint256"
        }
      ],
      "name": "transferFrom",
      "outputs": [],
      "stateMutability": "nonpayable",
      "type": "function"
    },
    {
      "inputs": [
        {
          "internalType": "address",
          "name": "newOwner",
          "type": "address"
        }
      ],
      "name": "transferOwnership",
      "outputs": [],
      "stateMutability": "nonpayable",
      "type": "function"
    }
  ],
  "bytecode": "0x60806040526000600a553480156200001657600080fd5b50604051620034903803806200349083398181016040528101906200003c91906200032b565b6040518060400160405280600881526020017f536e616b654e46540000000000000000000000000000000000000000000000008152506040518060400160405280600581526020017f534e414b450000000000000000000000000000000000000000000000000000008152508160009080519060200190620000c0929190620001f2565b508060019080519060200190620000d9929190620001f2565b505050620000fc620000f06200012460201b60201c565b6200012c60201b60201c565b816008908051906020019062000114929190620001f2565b5080600981905550505062000519565b600033905090565b6000600660009054906101000a900473ffffffffffffffffffffffffffffffffffffffff16905081600660006101000a81548173ffffffffffffffffffffffffffffffffffffffff021916908373ffffffffffffffffffffffffffffffffffffffff1602179055508173ffffffffffffffffffffffffffffffffffffffff168173ffffffffffffffffffffffffffffffffffffffff167f8be0079c531659141344cd1fd0a4f28419497f9722a3daafe3b4186f6b6457e060405160405180910390a35050565b828054620002009062000424565b90600052602060002090601f01602090048101928262000224576000855562000270565b82601f106200023f57805160ff191683800117855562000270565b8280016001018555821562000270579182015b828111156200026f57825182559160200191906001019062000252565b5b5090506200027f919062000283565b5090565b5b808211156200029e57600081600090555060010162000284565b5090565b6000620002b9620002b384620003ae565b62000385565b905082815260208101848484011115620002d257600080fd5b620002df848285620003ee565b509392505050565b600082601f830112620002f957600080fd5b81516200030b848260208601620002a2565b91505092915050565b6000815190506200032581620004ff565b92915050565b600080604083850312156200033f57600080fd5b600083015167ffffffffffffffff8111156200035a57600080fd5b6200036885828601620002e7565b92505060206200037b8582860162000314565b9150509250929050565b600062000391620003a4565b90506200039f82826200045a565b919050565b6000604051905090565b600067ffffffffffffffff821115620003cc57620003cb620004bf565b5b620003d782620004ee565b9050602081019050919050565b6000819050919050565b60005b838110156200040e578082015181840152602081019050620003f1565b838111156200041e576000848401525b50505050565b600060028204905060018216806200043d57607f821691505b6020821081141562000454576200045362000490565b5b50919050565b6200046582620004ee565b810181811067ffffffffffffffff82111715620004875762000486620004bf565b5b80604052505050565b7f4e487b7100000000000000000000000000000000000000000000000000000000600052602260045260246000fd5b7f4e487b7100000000000000000000000000000000000000000000000000000000600052604160045260246000fd5b6000601f19601f8301169050919050565b6200050a81620003e4565b81146200051657600080fd5b50565b612f6780620005296000396000f3fe608060405234801561001057600080fd5b506004361061012c5760003560e01c806370a08231116100ad578063a2309ff811610071578063a2309ff81461032f578063b88d4fde1461034d578063c87b56dd14610369578063e985e9c514610399578063f2fde38b146103c95761012c565b806370a082311461029d578063715018a6146102cd5780638da5cb5b146102d757806395d89b41146102f5578063a22cb465146103135761012c565b806323b872dd116100f457806323b872dd146101e957806330176e131461020557806342842e0e146102215780636352211e1461023d5780636a6278421461026d5761012c565b806301ffc9a71461013157806306fdde0314610161578063081812fc1461017f578063095ea7b3146101af57806318160ddd146101cb575b600080fd5b61014b60048036038101906101469190611f67565b6103e5565b60405161015891906123d1565b60405180910390f35b6101696104c7565b60405161017691906123ec565b60405180910390f35b61019960048036038101906101949190611ffa565b610559565b6040516101a6919061236a565b60405180910390f35b6101c960048036038101906101c49190611f2b565b6105de565b005b6101d36106f6565b6040516101e0919061262e565b60405180910390f35b61020360048036038101906101fe9190611e25565b6106fc565b005b61021f600480360381019061021a9190611fb9565b61075c565b005b61023b60048036038101906102369190611e25565b6107f2565b005b61025760048036038101906102529190611ffa565b610812565b604051610264919061236a565b60405180910390f35b61028760048036038101906102829190611dc0565b6108c4565b604051610294919061262e565b60405180910390f35b6102b760048036038101906102b29190611dc0565b610952565b6040516102c4919061262e565b60405180910390f35b6102d5610a0a565b005b6102df610a92565b6040516102ec919061236a565b60405180910390f35b6102fd610abc565b60405161030a91906123ec565b60405180910390f35b61032d60048036038101906103289190611eef565b610b4e565b005b610337610b64565b604051610344919061262e565b60405180910390f35b61036760048036038101906103629190611e74565b610b6a565b005b610383600480360381019061037e9190611ffa565b610bcc565b60405161039091906123ec565b60405180910390f35b6103b360048036038101906103ae9190611de9565b610c73565b6040516103c091906123d1565b60405180910390f35b6103e360048036038101906103de9190611dc0565b610d07565b005b60007f80ac58cd000000000000000000000000000000000000000000000000000000007bffffffffffffffffffffffffffffffffffffffffffffffffffffffff1916827bffffffffffffffffffffffffffffffffffffffffffffffffffffffff191614806104b057507f5b5e139f000000000000000000000000000000000000000000000000000000007bffffffffffffffffffffffffffffffffffffffffffffffffffffffff1916827bffffffffffffffffffffffffffffffffffffffffffffffffffffffff1916145b806104c057506104bf82610dff565b5b9050919050565b6060600080546104d690612884565b80601f016020809104026020016040519081016040528092919081815260200182805461050290612884565b801561054f5780601f106105245761010080835404028352916020019161054f565b820191906000526020600020905b81548152906001019060200180831161053257829003601f168201915b5050505050905090565b600061056482610e69565b6105a3576040517f08c379a000000000000000000000000000000000000000000000000000000000815260040161059a9061258e565b60405180910390fd5b6004600083815260200190815260200160002060009054906101000a900473ffffffffffffffffffffffffffffffffffffffff169050919050565b60006105e982610812565b90508073ffffffffffffffffffffffffffffffffffffffff168373ffffffffffffffffffffffffffffffffffffffff16141561065a576040517f08c379a0000000000000000000000000000000000000000000000000000000008152600401610651906125ee565b60405180910390fd5b8073ffffffffffffffffffffffffffffffffffffffff16610679610ed5565b73ffffffffffffffffffffffffffffffffffffffff1614806106a857506106a7816106a2610ed5565b610c73565b5b6106e7576040517f08c379a00000000000000000000000000000000000000000000000000000000081526004016106de9061250e565b60405180910390fd5b6106f18383610edd565b505050565b60095481565b61070d610707610ed5565b82610f96565b61074c576040517f08c379a00000000000000000000000000000000000000000000000000000000081526004016107439061260e565b60405180910390fd5b610757838383611074565b505050565b610764610ed5565b73ffffffffffffffffffffffffffffffffffffffff16610782610a92565b73ffffffffffffffffffffffffffffffffffffffff16146107d8576040517f08c379a00000000000000000000000000000000000000000000000000000000081526004016107cf906125ae565b60405180910390fd5b80600890805190602001906107ee929190611be4565b5050565b61080d83838360405180602001604052806000815250610b6a565b505050565b6000806002600084815260200190815260200160002060009054906101000a900473ffffffffffffffffffffffffffffffffffffffff169050600073ffffffffffffffffffffffffffffffffffffffff168173ffffffffffffffffffffffffffffffffffffffff1614156108bb576040517f08c379a00000000000000000000000000000000000000000000000000000000081526004016108b29061254e565b60405180910390fd5b80915050919050565b6000600954600a541061090c576040517f08c379a0000000000000000000000000000000000000000000000000000000008152600401610903906124ee565b60405180910390fd5b61091660076112db565b6109298261092460076112f1565b6112ff565b600a600081548092919061093c906128e7565b919050555061094b60076112f1565b9050919050565b60008073ffffffffffffffffffffffffffffffffffffffff168273ffffffffffffffffffffffffffffffffffffffff1614156109c3576040517f08c379a00000000000000000000000000000000000000000000000000000000081526004016109ba9061252e565b60405180910390fd5b600360008373ffffffffffffffffffffffffffffffffffffffff1673ffffffffffffffffffffffffffffffffffffffff168152602001908152602001600020549050919050565b610a12610ed5565b73ffffffffffffffffffffffffffffffffffffffff16610a30610a92565b73ffffffffffffffffffffffffffffffffffffffff1614610a86576040517f08c379a0000000000000000000000000000000000000000000000000000000008152600401610a7d906125ae565b60405180910390fd5b610a90600061131d565b565b6000600660009054906101000a900473ffffffffffffffffffffffffffffffffffffffff16905090565b606060018054610acb90612884565b80601f0160208091040260200160405190810160405280929190818152602001828054610af790612884565b8015610b445780601f10610b1957610100808354040283529160200191610b44565b820191906000526020600020905b815481529060010190602001808311610b2757829003601f168201915b5050505050905090565b610b60610b59610ed5565b83836113e3565b5050565b600a5481565b610b7b610b75610ed5565b83610f96565b610bba576040517f08c379a0000000000000000000000000000000000000000000000000000000008152600401610bb19061260e565b60405180910390fd5b610bc684848484611550565b50505050565b6060610bd782610e69565b610c16576040517f08c379a0000000000000000000000000000000000000000000000000000000008152600401610c0d906125ce565b60405180910390fd5b6000610c206115ac565b90506000815111610c405760405180602001604052806000815250610c6b565b80610c4a8461163e565b604051602001610c5b929190612346565b6040516020818303038152906040525b915050919050565b6000600560008473ffffffffffffffffffffffffffffffffffffffff1673ffffffffffffffffffffffffffffffffffffffff16815260200190815260200160002060008373ffffffffffffffffffffffffffffffffffffffff1673ffffffffffffffffffffffffffffffffffffffff16815260200190815260200160002060009054906101000a900460ff16905092915050565b610d0f610ed5565b73ffffffffffffffffffffffffffffffffffffffff16610d2d610a92565b73ffffffffffffffffffffffffffffffffffffffff1614610d83576040517f08c379a0000000000000000000000000000000000000000000000000000000008152600401610d7a906125ae565b60405180910390fd5b600073ffffffffffffffffffffffffffffffffffffffff168173ffffffffffffffffffffffffffffffffffffffff161415610df3576040517f08c379a0000000000000000000000000000000000000000000000000000000008152600401610dea9061242e565b60405180910390fd5b610dfc8161131d565b50565b60007f01ffc9a7000000000000000000000000000000000000000000000000000000007bffffffffffffffffffffffffffffffffffffffffffffffffffffffff1916827bffffffffffffffffffffffffffffffffffffffffffffffffffffffff1916149050919050565b60008073ffffffffffffffffffffffffffffffffffffffff166002600084815260200190815260200160002060009054906101000a900473ffffffffffffffffffffffffffffffffffffffff1673ffffffffffffffffffffffffffffffffffffffff1614159050919050565b600033905090565b816004600083815260200190815260200160002060006101000a81548173ffffffffffffffffffffffffffffffffffffffff021916908373ffffffffffffffffffffffffffffffffffffffff160217905550808273ffffffffffffffffffffffffffffffffffffffff16610f5083610812565b73ffffffffffffffffffffffffffffffffffffffff167f8c5be1e5ebec7d5bd14f71427d1e84f3dd0314c0f7b2291e5b200ac8c7c3b92560405160405180910390a45050565b6000610fa182610e69565b610fe0576040517f08c379a0000000000000000000000000000000000000000000000000000000008152600401610fd7906124ce565b60405180910390fd5b6000610feb83610812565b90508073ffffffffffffffffffffffffffffffffffffffff168473ffffffffffffffffffffffffffffffffffffffff16148061105a57508373ffffffffffffffffffffffffffffffffffffffff1661104284610559565b73ffffffffffffffffffffffffffffffffffffffff16145b8061106b575061106a8185610c73565b5b91505092915050565b8273ffffffffffffffffffffffffffffffffffffffff1661109482610812565b73ffffffffffffffffffffffffffffffffffffffff16146110ea576040517f08c379a00000000000000000000000000000000000000000000000000000000081526004016110e19061244e565b60405180910390fd5b600073ffffffffffffffffffffffffffffffffffffffff168273ffffffffffffffffffffffffffffffffffffffff16141561115a576040517f08c379a00000000000000000000000000000000000000000000000000000000081526004016111519061248e565b60405180910390fd5b6111658383836117eb565b611170600082610edd565b6001600360008573ffffffffffffffffffffffffffffffffffffffff1673ffffffffffffffffffffffffffffffffffffffff16815260200190815260200160002060008282546111c0919061279a565b925050819055506001600360008473ffffffffffffffffffffffffffffffffffffffff1673ffffffffffffffffffffffffffffffffffffffff16815260200190815260200160002060008282546112179190612713565b92505081905550816002600083815260200190815260200160002060006101000a81548173ffffffffffffffffffffffffffffffffffffffff021916908373ffffffffffffffffffffffffffffffffffffffff160217905550808273ffffffffffffffffffffffffffffffffffffffff168473ffffffffffffffffffffffffffffffffffffffff167fddf252ad1be2c89b69c2b068fc378daa952ba7f163c4a11628f55a4df523b3ef60405160405180910390a46112d68383836117f0565b505050565b6001816000016000828254019250508190555050565b600081600001549050919050565b6113198282604051806020016040528060008152506117f5565b5050565b6000600660009054906101000a900473ffffffffffffffffffffffffffffffffffffffff16905081600660006101000a81548173ffffffffffffffffffffffffffffffffffffffff021916908373ffffffffffffffffffffffffffffffffffffffff1602179055508173ffffffffffffffffffffffffffffffffffffffff168173ffffffffffffffffffffffffffffffffffffffff167f8be0079c531659141344cd1fd0a4f28419497f9722a3daafe3b4186f6b6457e060405160405180910390a35050565b8173ffffffffffffffffffffffffffffffffffffffff168373ffffffffffffffffffffffffffffffffffffffff161415611452576040517f08c379a0000000000000000000000000000000000000000000000000000000008152600401611449906124ae565b60405180910390fd5b80600560008573ffffffffffffffffffffffffffffffffffffffff1673ffffffffffffffffffffffffffffffffffffffff16815260200190815260200160002060008473ffffffffffffffffffffffffffffffffffffffff1673ffffffffffffffffffffffffffffffffffffffff16815260200190815260200160002060006101000a81548160ff0219169083151502179055508173ffffffffffffffffffffffffffffffffffffffff168373ffffffffffffffffffffffffffffffffffffffff167f17307eab39ab6107e8899845ad3d59bd9653f200f220920489ca2b5937696c318360405161154391906123d1565b60405180910390a3505050565b61155b848484611074565b61156784848484611850565b6115a6576040517f08c379a000000000000000000000000000000000000000000000000000000000815260040161159d9061240e565b60405180910390fd5b50505050565b6060600880546115bb90612884565b80601f01602080910402602001604051908101604052809291908181526020018280546115e790612884565b80156116345780601f1061160957610100808354040283529160200191611634565b820191906000526020600020905b81548152906001019060200180831161161757829003601f168201915b5050505050905090565b60606000821415611686576040518060400160405280600181526020017f300000000000000000000000000000000000000000000000000000000000000081525090506117e6565b600082905060005b600082146116b85780806116a1906128e7565b915050600a826116b19190612769565b915061168e565b60008167ffffffffffffffff8111156116fa577f4e487b7100000000000000000000000000000000000000000000000000000000600052604160045260246000fd5b6040519080825280601f01601f19166020018201604052801561172c5781602001600182028036833780820191505090505b5090505b600085146117df57600182611745919061279a565b9150600a856117549190612930565b60306117609190612713565b60f81b81838151811061179c577f4e487b7100000000000000000000000000000000000000000000000000000000600052603260045260246000fd5b60200101907effffffffffffffffffffffffffffffffffffffffffffffffffffffffffffff1916908160001a905350600a856117d89190612769565b9450611730565b8093505050505b919050565b505050565b505050565b6117ff83836119e7565b61180c6000848484611850565b61184b576040517f08c379a00000000000000000000000000000000000000000000000000000000081526004016118429061240e565b60405180910390fd5b505050565b60006118718473ffffffffffffffffffffffffffffffffffffffff16611bc1565b156119da578373ffffffffffffffffffffffffffffffffffffffff1663150b7a0261189a610ed5565b8786866040518563ffffffff1660e01b81526004016118bc9493929190612385565b602060405180830381600087803b1580156118d657600080fd5b505af192505050801561190757506040513d601f19601f820116820180604052508101906119049190611f90565b60015b61198a573d8060008114611937576040519150601f19603f3d011682016040523d82523d6000602084013e61193c565b606091505b50600081511415611982576040517f08c379a00000000000000000000000000000000000000000000000000000000081526004016119799061240e565b60405180910390fd5b805181602001fd5b63150b7a0260e01b7bffffffffffffffffffffffffffffffffffffffffffffffffffffffff1916817bffffffffffffffffffffffffffffffffffffffffffffffffffffffff1916149150506119df565b600190505b949350505050565b600073ffffffffffffffffffffffffffffffffffffffff168273ffffffffffffffffffffffffffffffffffffffff161415611a57576040517f08c379a0000000000000000000000000000000000000000000000000000000008152600401611a4e9061256e565b60405180910390fd5b611a6081610e69565b15611aa0576040517f08c379a0000000000000000000000000000000000000000000000000000000008152600401611a979061246e565b60405180910390fd5b611aac600083836117eb565b6001600360008473ffffffffffffffffffffffffffffffffffffffff1673ffffffffffffffffffffffffffffffffffffffff1681526020019081526020016000206000828254611afc9190612713565b92505081905550816002600083815260200190815260200160002060006101000a81548173ffffffffffffffffffffffffffffffffffffffff021916908373ffffffffffffffffffffffffffffffffffffffff160217905550808273ffffffffffffffffffffffffffffffffffffffff16600073ffffffffffffffffffffffffffffffffffffffff167fddf252ad1be2c89b69c2b068fc378daa952ba7f163c4a11628f55a4df523b3ef60405160405180910390a4611bbd600083836117f0565b5050565b6000808273ffffffffffffffffffffffffffffffffffffffff163b119050919050565b828054611bf090612884565b90600052602060002090601f016020900481019282611c125760008555611c59565b82601f10611c2b57805160ff1916838001178555611c59565b82800160010185558215611c59579182015b82811115611c58578251825591602001919060010190611c3d565b5b509050611c669190611c6a565b5090565b5b80821115611c83576000816000905550600101611c6b565b5090565b6000611c9a611c958461266e565b612649565b905082815260208101848484011115611cb257600080fd5b611cbd848285612842565b509392505050565b6000611cd8611cd38461269f565b612649565b905082815260208101848484011115611cf057600080fd5b611cfb848285612842565b509392505050565b600081359050611d1281612ed5565b92915050565b600081359050611d2781612eec565b92915050565b600081359050611d3c81612f03565b92915050565b600081519050611d5181612f03565b92915050565b600082601f830112611d6857600080fd5b8135611d78848260208601611c87565b91505092915050565b600082601f830112611d9257600080fd5b8135611da2848260208601611cc5565b91505092915050565b600081359050611dba81612f1a565b92915050565b600060208284031215611dd257600080fd5b6000611de084828501611d03565b91505092915050565b60008060408385031215611dfc57600080fd5b6000611e0a85828601611d03565b9250506020611e1b85828601611d03565b9150509250929050565b600080600060608486031215611e3a57600080fd5b6000611e4886828701611d03565b9350506020611e5986828701611d03565b9250506040611e6a86828701611dab565b9150509250925092565b60008060008060808587031215611e8a57600080fd5b6000611e9887828801611d03565b9450506020611ea987828801611d03565b9350506040611eba87828801611dab565b925050606085013567ffffffffffffffff811115611ed757600080fd5b611ee387828801611d57565b91505092959194509250565b60008060408385031215611f0257600080fd5b6000611f1085828601611d03565b9250506020611f2185828601611d18565b9150509250929050565b60008060408385031215611f3e57600080fd5b6000611f4c85828601611d03565b9250506020611f5d85828601611dab565b9150509250929050565b600060208284031215611f7957600080fd5b6000611f8784828501611d2d565b91505092915050565b600060208284031215611fa257600080fd5b6000611fb084828501611d42565b91505092915050565b600060208284031215611fcb57600080fd5b600082013567ffffffffffffffff811115611fe557600080fd5b611ff184828501611d81565b91505092915050565b60006020828403121561200c57600080fd5b600061201a84828501611dab565b91505092915050565b61202c816127ce565b82525050565b61203b816127e0565b82525050565b600061204c826126d0565b61205681856126e6565b9350612066818560208601612851565b61206f81612a1d565b840191505092915050565b6000612085826126db565b61208f81856126f7565b935061209f818560208601612851565b6120a881612a1d565b840191505092915050565b60006120be826126db565b6120c88185612708565b93506120d8818560208601612851565b80840191505092915050565b60006120f16032836126f7565b91506120fc82612a2e565b604082019050919050565b60006121146026836126f7565b915061211f82612a7d565b604082019050919050565b60006121376025836126f7565b915061214282612acc565b604082019050919050565b600061215a601c836126f7565b915061216582612b1b565b602082019050919050565b600061217d6024836126f7565b915061218882612b44565b604082019050919050565b60006121a06019836126f7565b91506121ab82612b93565b602082019050919050565b60006121c3602c836126f7565b91506121ce82612bbc565b604082019050919050565b60006121e6602f836126f7565b91506121f182612c0b565b604082019050919050565b60006122096038836126f7565b915061221482612c5a565b604082019050919050565b600061222c602a836126f7565b915061223782612ca9565b604082019050919050565b600061224f6029836126f7565b915061225a82612cf8565b604082019050919050565b60006122726020836126f7565b915061227d82612d47565b602082019050919050565b6000612295602c836126f7565b91506122a082612d70565b604082019050919050565b60006122b86020836126f7565b91506122c382612dbf565b602082019050919050565b60006122db602f836126f7565b91506122e682612de8565b604082019050919050565b60006122fe6021836126f7565b915061230982612e37565b604082019050919050565b60006123216031836126f7565b915061232c82612e86565b604082019050919050565b61234081612838565b82525050565b600061235282856120b3565b915061235e82846120b3565b91508190509392505050565b600060208201905061237f6000830184612023565b92915050565b600060808201905061239a6000830187612023565b6123a76020830186612023565b6123b46040830185612337565b81810360608301526123c68184612041565b905095945050505050565b60006020820190506123e66000830184612032565b92915050565b60006020820190508181036000830152612406818461207a565b905092915050565b60006020820190508181036000830152612427816120e4565b9050919050565b6000602082019050818103600083015261244781612107565b9050919050565b600060208201905081810360008301526124678161212a565b9050919050565b600060208201905081810360008301526124878161214d565b9050919050565b600060208201905081810360008301526124a781612170565b9050919050565b600060208201905081810360008301526124c781612193565b9050919050565b600060208201905081810360008301526124e7816121b6565b9050919050565b60006020820190508181036000830152612507816121d9565b9050919050565b60006020820190508181036000830152612527816121fc565b9050919050565b600060208201905081810360008301526125478161221f565b9050919050565b6000602082019050818103600083015261256781612242565b9050919050565b6000602082019050818103600083015261258781612265565b9050919050565b600060208201905081810360008301526125a781612288565b9050919050565b600060208201905081810360008301526125c7816122ab565b9050919050565b600060208201905081810360008301526125e7816122ce565b9050919050565b60006020820190508181036000830152612607816122f1565b9050919050565b6000602082019050818103600083015261262781612314565b9050919050565b60006020820190506126436000830184612337565b92915050565b6000612653612664565b905061265f82826128b6565b919050565b6000604051905090565b600067ffffffffffffffff821115612689576126886129ee565b5b61269282612a1d565b9050602081019050919050565b600067ffffffffffffffff8211156126ba576126b96129ee565b5b6126c382612a1d565b9050602081019050919050565b600081519050919050565b600081519050919050565b600082825260208201905092915050565b600082825260208201905092915050565b600081905092915050565b600061271e82612838565b915061272983612838565b9250827fffffffffffffffffffffffffffffffffffffffffffffffffffffffffffffffff0382111561275e5761275d612961565b5b828201905092915050565b600061277482612838565b915061277f83612838565b92508261278f5761278e612990565b5b828204905092915050565b60006127a582612838565b91506127b083612838565b9250828210156127c3576127c2612961565b5b828203905092915050565b60006127d982612818565b9050919050565b60008115159050919050565b60007fffffffff0000000000000000000000000000000000000000000000000000000082169050919050565b600073ffffffffffffffffffffffffffffffffffffffff82169050919050565b6000819050919050565b82818337600083830152505050565b60005b8381101561286f578082015181840152602081019050612854565b8381111561287e576000848401525b50505050565b6000600282049050600182168061289c57607f821691505b602082108114156128b0576128af6129bf565b5b50919050565b6128bf82612a1d565b810181811067ffffffffffffffff821117156128de576128dd6129ee565b5b80604052505050565b60006128f282612838565b91507fffffffffffffffffffffffffffffffffffffffffffffffffffffffffffffffff82141561292557612924612961565b5b600182019050919050565b600061293b82612838565b915061294683612838565b92508261295657612955612990565b5b828206905092915050565b7f4e487b7100000000000000000000000000000000000000000000000000000000600052601160045260246000fd5b7f4e487b7100000000000000000000000000000000000000000000000000000000600052601260045260246000fd5b7f4e487b7100000000000000000000000000000000000000000000000000000000600052602260045260246000fd5b7f4e487b7100000000000000000000000000000000000000000000000000000000600052604160045260246000fd5b6000601f19601f8301169050919050565b7f4552433732313a207472616e7366657220746f206e6f6e20455243373231526560008201527f63656976657220696d706c656d656e7465720000000000000000000000000000602082015250565b7f4f776e61626c653a206e6577206f776e657220697320746865207a65726f206160008201527f6464726573730000000000000000000000000000000000000000000000000000602082015250565b7f4552433732313a207472616e736665722066726f6d20696e636f72726563742060008201527f6f776e6572000000000000000000000000000000000000000000000000000000602082015250565b7f4552433732313a20746f6b656e20616c7265616479206d696e74656400000000600082015250565b7f4552433732313a207472616e7366657220746f20746865207a65726f2061646460008201527f7265737300000000000000000000000000000000000000000000000000000000602082015250565b7f4552433732313a20617070726f766520746f2063616c6c657200000000000000600082015250565b7f4552433732313a206f70657261746f7220717565727920666f72206e6f6e657860008201527f697374656e7420746f6b656e0000000000000000000000000000000000000000602082015250565b7f546f74616c20737570706c792065786365656465642c206e6f206d6f7265206160008201527f7661696c61626c6520746f6b656e730000000000000000000000000000000000602082015250565b7f4552433732313a20617070726f76652063616c6c6572206973206e6f74206f7760008201527f6e6572206e6f7220617070726f76656420666f7220616c6c0000000000000000602082015250565b7f4552433732313a2062616c616e636520717565727920666f7220746865207a6560008201527f726f206164647265737300000000000000000000000000000000000000000000602082015250565b7f4552433732313a206f776e657220717565727920666f72206e6f6e657869737460008201527f656e7420746f6b656e0000000000000000000000000000000000000000000000602082015250565b7f4552433732313a206d696e7420746f20746865207a65726f2061646472657373600082015250565b7f4552433732313a20617070726f76656420717565727920666f72206e6f6e657860008201527f697374656e7420746f6b656e0000000000000000000000000000000000000000602082015250565b7f4f776e61626c653a2063616c6c6572206973206e6f7420746865206f776e6572600082015250565b7f4552433732314d657461646174613a2055524920717565727920666f72206e6f60008201527f6e6578697374656e7420746f6b656e0000000000000000000000000000000000602082015250565b7f4552433732313a20617070726f76616c20746f2063757272656e74206f776e6560008201527f7200000000000000000000000000000000000000000000000000000000000000602082015250565b7f4552433732313a207472616e736665722063616c6c6572206973206e6f74206f60008201527f776e6572206e6f7220617070726f766564000000000000000000000000000000602082015250565b612ede816127ce565b8114612ee957600080fd5b50565b612ef5816127e0565b8114612f0057600080fd5b50565b612f0c816127ec565b8114612f1757600080fd5b50565b612f2381612838565b8114612f2e57600080fd5b5056fea264697066735822122057f7c81b06466135026f61b7f736e4467ece777ee97a3e7f6af1605ce12998d264736f6c63430008010033",
  "linkReferences": {},
  "deployedLinkReferences": {}
}