{
  "_format": "hh-sol-artifact-1",
  "contractName": "SnakeNFT",
  "sourceName": "contracts/SnakeNFT.sol",
  "abi": [
    {
      "inputs": [
        {
          "internalType": "string",
          "name": "_baseTokenURI",
          "type": "string"
        },
        {
          "internalType": "uint256",
          "name": "_totalSupply",
          "type": "uint256"
        }
      ],
      "stateMutability": "nonpayable",
      "type": "constructor"
    },
    {
      "anonymous": false,
      "inputs": [
        {
          "indexed": true,
          "internalType": "address",
          "name": "owner",
          "type": "address"
        },
        {
          "indexed": true,
          "internalType": "address",
          "name": "approved",
          "type": "address"
        },
        {
          "indexed": true,
          "internalType": "uint256",
          "name": "tokenId",
          "type": "uint256"
        }
      ],
      "name": "Approval",
      "type": "event"
    },
    {
      "anonymous": false,
      "inputs": [
        {
          "indexed": true,
          "internalType": "address",
          "name": "owner",
          "type": "address"
        },
        {
          "indexed": true,
          "internalType": "address",
          "name": "operator",
          "type": "address"
        },
        {
          "indexed": false,
          "internalType": "bool",
          "name": "approved",
          "type": "bool"
        }
      ],
      "name": "ApprovalForAll",
      "type": "event"
    },
    {
      "anonymous": false,
      "inputs": [
        {
          "indexed": true,
          "internalType": "address",
          "name": "previousOwner",
          "type": "address"
        },
        {
          "indexed": true,
          "internalType": "address",
          "name": "newOwner",
          "type": "address"
        }
      ],
      "name": "OwnershipTransferred",
      "type": "event"
    },
    {
      "anonymous": false,
      "inputs": [
        {
          "indexed": false,
          "internalType": "address",
          "name": "account",
          "type": "address"
        }
      ],
      "name": "Paused",
      "type": "event"
    },
    {
      "anonymous": false,
      "inputs": [
        {
          "indexed": true,
          "internalType": "address",
          "name": "from",
          "type": "address"
        },
        {
          "indexed": true,
          "internalType": "address",
          "name": "to",
          "type": "address"
        },
        {
          "indexed": true,
          "internalType": "uint256",
          "name": "tokenId",
          "type": "uint256"
        }
      ],
      "name": "Transfer",
      "type": "event"
    },
    {
      "anonymous": false,
      "inputs": [
        {
          "indexed": false,
          "internalType": "address",
          "name": "account",
          "type": "address"
        }
      ],
      "name": "Unpaused",
      "type": "event"
    },
    {
      "inputs": [
        {
          "internalType": "address",
          "name": "to",
          "type": "address"
        },
        {
          "internalType": "uint256",
          "name": "tokenId",
          "type": "uint256"
        }
      ],
      "name": "approve",
      "outputs": [],
      "stateMutability": "nonpayable",
      "type": "function"
    },
    {
      "inputs": [
        {
          "internalType": "address",
          "name": "owner",
          "type": "address"
        }
      ],
      "name": "balanceOf",
      "outputs": [
        {
          "internalType": "uint256",
          "name": "",
          "type": "uint256"
        }
      ],
      "stateMutability": "view",
      "type": "function"
    },
    {
      "inputs": [
        {
          "internalType": "uint256",
          "name": "tokenId",
          "type": "uint256"
        }
      ],
      "name": "burn",
      "outputs": [],
      "stateMutability": "nonpayable",
      "type": "function"
    },
    {
      "inputs": [
        {
          "internalType": "uint256",
          "name": "tokenId",
          "type": "uint256"
        }
      ],
      "name": "getApproved",
      "outputs": [
        {
          "internalType": "address",
          "name": "",
          "type": "address"
        }
      ],
      "stateMutability": "view",
      "type": "function"
    },
    {
      "inputs": [
        {
          "internalType": "address",
          "name": "owner",
          "type": "address"
        },
        {
          "internalType": "address",
          "name": "operator",
          "type": "address"
        }
      ],
      "name": "isApprovedForAll",
      "outputs": [
        {
          "internalType": "bool",
          "name": "",
          "type": "bool"
        }
      ],
      "stateMutability": "view",
      "type": "function"
    },
    {
      "inputs": [
        {
          "internalType": "address",
          "name": "to",
          "type": "address"
        }
      ],
      "name": "mint",
      "outputs": [
        {
          "internalType": "uint256",
          "name": "",
          "type": "uint256"
        }
      ],
      "stateMutability": "nonpayable",
      "type": "function"
    },
    {
      "inputs": [],
      "name": "name",
      "outputs": [
        {
          "internalType": "string",
          "name": "",
          "type": "string"
        }
      ],
      "stateMutability": "view",
      "type": "function"
    },
    {
      "inputs": [],
      "name": "owner",
      "outputs": [
        {
          "internalType": "address",
          "name": "",
          "type": "address"
        }
      ],
      "stateMutability": "view",
      "type": "function"
    },
    {
      "inputs": [
        {
          "internalType": "uint256",
          "name": "tokenId",
          "type": "uint256"
        }
      ],
      "name": "ownerOf",
      "outputs": [
        {
          "internalType": "address",
          "name": "",
          "type": "address"
        }
      ],
      "stateMutability": "view",
      "type": "function"
    },
    {
      "inputs": [],
      "name": "pause",
      "outputs": [],
      "stateMutability": "nonpayable",
      "type": "function"
    },
    {
      "inputs": [],
      "name": "paused",
      "outputs": [
        {
          "internalType": "bool",
          "name": "",
          "type": "bool"
        }
      ],
      "stateMutability": "view",
      "type": "function"
    },
    {
      "inputs": [],
      "name": "renounceOwnership",
      "outputs": [],
      "stateMutability": "nonpayable",
      "type": "function"
    },
    {
      "inputs": [
        {
          "internalType": "address",
          "name": "from",
          "type": "address"
        },
        {
          "internalType": "address",
          "name": "to",
          "type": "address"
        },
        {
          "internalType": "uint256",
          "name": "tokenId",
          "type": "uint256"
        }
      ],
      "name": "safeTransferFrom",
      "outputs": [],
      "stateMutability": "nonpayable",
      "type": "function"
    },
    {
      "inputs": [
        {
          "internalType": "address",
          "name": "from",
          "type": "address"
        },
        {
          "internalType": "address",
          "name": "to",
          "type": "address"
        },
        {
          "internalType": "uint256",
          "name": "tokenId",
          "type": "uint256"
        },
        {
          "internalType": "bytes",
          "name": "_data",
          "type": "bytes"
        }
      ],
      "name": "safeTransferFrom",
      "outputs": [],
      "stateMutability": "nonpayable",
      "type": "function"
    },
    {
      "inputs": [
        {
          "internalType": "address",
          "name": "operator",
          "type": "address"
        },
        {
          "internalType": "bool",
          "name": "approved",
          "type": "bool"
        }
      ],
      "name": "setApprovalForAll",
      "outputs": [],
      "stateMutability": "nonpayable",
      "type": "function"
    },
    {
      "inputs": [
        {
          "internalType": "string",
          "name": "_baseTokenURI",
          "type": "string"
        }
      ],
      "name": "setBaseTokenURI",
      "outputs": [],
      "stateMutability": "nonpayable",
      "type": "function"
    },
    {
      "inputs": [
        {
          "internalType": "bytes4",
          "name": "interfaceId",
          "type": "bytes4"
        }
      ],
      "name": "supportsInterface",
      "outputs": [
        {
          "internalType": "bool",
          "name": "",
          "type": "bool"
        }
      ],
      "stateMutability": "view",
      "type": "function"
    },
    {
      "inputs": [],
      "name": "symbol",
      "outputs": [
        {
          "internalType": "string",
          "name": "",
          "type": "string"
        }
      ],
      "stateMutability": "view",
      "type": "function"
    },
    {
      "inputs": [
        {
          "internalType": "uint256",
          "name": "tokenId",
          "type": "uint256"
        }
      ],
      "name": "tokenURI",
      "outputs": [
        {
          "internalType": "string",
          "name": "",
          "type": "string"
        }
      ],
      "stateMutability": "view",
      "type": "function"
    },
    {
      "inputs": [],
      "name": "totalMinted",
      "outputs": [
        {
          "internalType": "uint256",
          "name": "",
          "type": "uint256"
        }
      ],
      "stateMutability": "view",
      "type": "function"
    },
    {
      "inputs": [],
      "name": "totalSupply",
      "outputs": [
        {
          "internalType": "uint256",
          "name": "",
          "type": "uint256"
        }
      ],
      "stateMutability": "view",
      "type": "function"
    },
    {
      "inputs": [
        {
          "internalType": "address",
          "name": "from",
          "type": "address"
        },
        {
          "internalType": "address",
          "name": "to",
          "type": "address"
        },
        {
          "internalType": "uint256",
          "name": "tokenId",
          "type": "uint256"
        }
      ],
      "name": "transferFrom",
      "outputs": [],
      "stateMutability": "nonpayable",
      "type": "function"
    },
    {
      "inputs": [
        {
          "internalType": "address",
          "name": "newOwner",
          "type": "address"
        }
      ],
      "name": "transferOwnership",
      "outputs": [],
      "stateMutability": "nonpayable",
      "type": "function"
    },
    {
      "inputs": [],
      "name": "unpause",
      "outputs": [],
      "stateMutability": "nonpayable",
      "type": "function"
    }
  ],
  "bytecode": "0x60806040526000600a553480156200001657600080fd5b5060405162003af138038062003af183398181016040528101906200003c919062000346565b6040518060400160405280600881526020017f536e616b654e46540000000000000000000000000000000000000000000000008152506040518060400160405280600581526020017f534e414b450000000000000000000000000000000000000000000000000000008152508160009080519060200190620000c09291906200020d565b508060019080519060200190620000d99291906200020d565b5050506000600660006101000a81548160ff021916908315150217905550620001176200010b6200013f60201b60201c565b6200014760201b60201c565b81600890805190602001906200012f9291906200020d565b5080600981905550505062000534565b600033905090565b6000600660019054906101000a900473ffffffffffffffffffffffffffffffffffffffff16905081600660016101000a81548173ffffffffffffffffffffffffffffffffffffffff021916908373ffffffffffffffffffffffffffffffffffffffff1602179055508173ffffffffffffffffffffffffffffffffffffffff168173ffffffffffffffffffffffffffffffffffffffff167f8be0079c531659141344cd1fd0a4f28419497f9722a3daafe3b4186f6b6457e060405160405180910390a35050565b8280546200021b906200043f565b90600052602060002090601f0160209004810192826200023f57600085556200028b565b82601f106200025a57805160ff19168380011785556200028b565b828001600101855582156200028b579182015b828111156200028a5782518255916020019190600101906200026d565b5b5090506200029a91906200029e565b5090565b5b80821115620002b95760008160009055506001016200029f565b5090565b6000620002d4620002ce84620003c9565b620003a0565b905082815260208101848484011115620002ed57600080fd5b620002fa84828562000409565b509392505050565b600082601f8301126200031457600080fd5b815162000326848260208601620002bd565b91505092915050565b60008151905062000340816200051a565b92915050565b600080604083850312156200035a57600080fd5b600083015167ffffffffffffffff8111156200037557600080fd5b620003838582860162000302565b925050602062000396858286016200032f565b9150509250929050565b6000620003ac620003bf565b9050620003ba828262000475565b919050565b6000604051905090565b600067ffffffffffffffff821115620003e757620003e6620004da565b5b620003f28262000509565b9050602081019050919050565b6000819050919050565b60005b83811015620004295780820151818401526020810190506200040c565b8381111562000439576000848401525b50505050565b600060028204905060018216806200045857607f821691505b602082108114156200046f576200046e620004ab565b5b50919050565b620004808262000509565b810181811067ffffffffffffffff82111715620004a257620004a1620004da565b5b80604052505050565b7f4e487b7100000000000000000000000000000000000000000000000000000000600052602260045260246000fd5b7f4e487b7100000000000000000000000000000000000000000000000000000000600052604160045260246000fd5b6000601f19601f8301169050919050565b6200052581620003ff565b81146200053157600080fd5b50565b6135ad80620005446000396000f3fe608060405234801561001057600080fd5b50600436106101585760003560e01c80636a627842116100c3578063a22cb4651161007c578063a22cb4651461038d578063a2309ff8146103a9578063b88d4fde146103c7578063c87b56dd146103e3578063e985e9c514610413578063f2fde38b1461044357610158565b80636a627842146102dd57806370a082311461030d578063715018a61461033d5780638456cb59146103475780638da5cb5b1461035157806395d89b411461036f57610158565b806330176e131161011557806330176e13146102315780633f4ba83a1461024d57806342842e0e1461025757806342966c68146102735780635c975abb1461028f5780636352211e146102ad57610158565b806301ffc9a71461015d57806306fdde031461018d578063081812fc146101ab578063095ea7b3146101db57806318160ddd146101f757806323b872dd14610215575b600080fd5b610177600480360381019061017291906123b1565b61045f565b60405161018491906128a7565b60405180910390f35b610195610541565b6040516101a291906128c2565b60405180910390f35b6101c560048036038101906101c09190612444565b6105d3565b6040516101d29190612840565b60405180910390f35b6101f560048036038101906101f09190612375565b610658565b005b6101ff610770565b60405161020c9190612b84565b60405180910390f35b61022f600480360381019061022a919061226f565b610776565b005b61024b60048036038101906102469190612403565b6107d6565b005b61025561086c565b005b610271600480360381019061026c919061226f565b6108f2565b005b61028d60048036038101906102889190612444565b610912565b005b61029761096e565b6040516102a491906128a7565b60405180910390f35b6102c760048036038101906102c29190612444565b610985565b6040516102d49190612840565b60405180910390f35b6102f760048036038101906102f2919061220a565b610a37565b6040516103049190612b84565b60405180910390f35b6103276004803603810190610322919061220a565b610ac5565b6040516103349190612b84565b60405180910390f35b610345610b7d565b005b61034f610c05565b005b610359610c8b565b6040516103669190612840565b60405180910390f35b610377610cb5565b60405161038491906128c2565b60405180910390f35b6103a760048036038101906103a29190612339565b610d47565b005b6103b1610d5d565b6040516103be9190612b84565b60405180910390f35b6103e160048036038101906103dc91906122be565b610d63565b005b6103fd60048036038101906103f89190612444565b610dc5565b60405161040a91906128c2565b60405180910390f35b61042d60048036038101906104289190612233565b610e6c565b60405161043a91906128a7565b60405180910390f35b61045d6004803603810190610458919061220a565b610f00565b005b60007f80ac58cd000000000000000000000000000000000000000000000000000000007bffffffffffffffffffffffffffffffffffffffffffffffffffffffff1916827bffffffffffffffffffffffffffffffffffffffffffffffffffffffff1916148061052a57507f5b5e139f000000000000000000000000000000000000000000000000000000007bffffffffffffffffffffffffffffffffffffffffffffffffffffffff1916827bffffffffffffffffffffffffffffffffffffffffffffffffffffffff1916145b8061053a575061053982610ff8565b5b9050919050565b60606000805461055090612dda565b80601f016020809104026020016040519081016040528092919081815260200182805461057c90612dda565b80156105c95780601f1061059e576101008083540402835291602001916105c9565b820191906000526020600020905b8154815290600101906020018083116105ac57829003601f168201915b5050505050905090565b60006105de82611062565b61061d576040517f08c379a000000000000000000000000000000000000000000000000000000000815260040161061490612ac4565b60405180910390fd5b6004600083815260200190815260200160002060009054906101000a900473ffffffffffffffffffffffffffffffffffffffff169050919050565b600061066382610985565b90508073ffffffffffffffffffffffffffffffffffffffff168373ffffffffffffffffffffffffffffffffffffffff1614156106d4576040517f08c379a00000000000000000000000000000000000000000000000000000000081526004016106cb90612b24565b60405180910390fd5b8073ffffffffffffffffffffffffffffffffffffffff166106f36110ce565b73ffffffffffffffffffffffffffffffffffffffff16148061072257506107218161071c6110ce565b610e6c565b5b610761576040517f08c379a000000000000000000000000000000000000000000000000000000000815260040161075890612a44565b60405180910390fd5b61076b83836110d6565b505050565b60095481565b6107876107816110ce565b8261118f565b6107c6576040517f08c379a00000000000000000000000000000000000000000000000000000000081526004016107bd90612b44565b60405180910390fd5b6107d183838361126d565b505050565b6107de6110ce565b73ffffffffffffffffffffffffffffffffffffffff166107fc610c8b565b73ffffffffffffffffffffffffffffffffffffffff1614610852576040517f08c379a000000000000000000000000000000000000000000000000000000000815260040161084990612ae4565b60405180910390fd5b806008908051906020019061086892919061202e565b5050565b6108746110ce565b73ffffffffffffffffffffffffffffffffffffffff16610892610c8b565b73ffffffffffffffffffffffffffffffffffffffff16146108e8576040517f08c379a00000000000000000000000000000000000000000000000000000000081526004016108df90612ae4565b60405180910390fd5b6108f06114d4565b565b61090d83838360405180602001604052806000815250610d63565b505050565b61092361091d6110ce565b8261118f565b610962576040517f08c379a000000000000000000000000000000000000000000000000000000000815260040161095990612b64565b60405180910390fd5b61096b81611576565b50565b6000600660009054906101000a900460ff16905090565b6000806002600084815260200190815260200160002060009054906101000a900473ffffffffffffffffffffffffffffffffffffffff169050600073ffffffffffffffffffffffffffffffffffffffff168173ffffffffffffffffffffffffffffffffffffffff161415610a2e576040517f08c379a0000000000000000000000000000000000000000000000000000000008152600401610a2590612a84565b60405180910390fd5b80915050919050565b6000600954600a5410610a7f576040517f08c379a0000000000000000000000000000000000000000000000000000000008152600401610a7690612a04565b60405180910390fd5b610a896007611693565b610a9c82610a9760076116a9565b6116b7565b600a6000815480929190610aaf90612e3d565b9190505550610abe60076116a9565b9050919050565b60008073ffffffffffffffffffffffffffffffffffffffff168273ffffffffffffffffffffffffffffffffffffffff161415610b36576040517f08c379a0000000000000000000000000000000000000000000000000000000008152600401610b2d90612a64565b60405180910390fd5b600360008373ffffffffffffffffffffffffffffffffffffffff1673ffffffffffffffffffffffffffffffffffffffff168152602001908152602001600020549050919050565b610b856110ce565b73ffffffffffffffffffffffffffffffffffffffff16610ba3610c8b565b73ffffffffffffffffffffffffffffffffffffffff1614610bf9576040517f08c379a0000000000000000000000000000000000000000000000000000000008152600401610bf090612ae4565b60405180910390fd5b610c036000611891565b565b610c0d6110ce565b73ffffffffffffffffffffffffffffffffffffffff16610c2b610c8b565b73ffffffffffffffffffffffffffffffffffffffff1614610c81576040517f08c379a0000000000000000000000000000000000000000000000000000000008152600401610c7890612ae4565b60405180910390fd5b610c89611957565b565b6000600660019054906101000a900473ffffffffffffffffffffffffffffffffffffffff16905090565b606060018054610cc490612dda565b80601f0160208091040260200160405190810160405280929190818152602001828054610cf090612dda565b8015610d3d5780601f10610d1257610100808354040283529160200191610d3d565b820191906000526020600020905b815481529060010190602001808311610d2057829003601f168201915b5050505050905090565b610d59610d526110ce565b83836119fa565b5050565b600a5481565b610d74610d6e6110ce565b8361118f565b610db3576040517f08c379a0000000000000000000000000000000000000000000000000000000008152600401610daa90612b44565b60405180910390fd5b610dbf84848484611b67565b50505050565b6060610dd082611062565b610e0f576040517f08c379a0000000000000000000000000000000000000000000000000000000008152600401610e0690612b04565b60405180910390fd5b6000610e19611bc3565b90506000815111610e395760405180602001604052806000815250610e64565b80610e4384611c55565b604051602001610e5492919061281c565b6040516020818303038152906040525b915050919050565b6000600560008473ffffffffffffffffffffffffffffffffffffffff1673ffffffffffffffffffffffffffffffffffffffff16815260200190815260200160002060008373ffffffffffffffffffffffffffffffffffffffff1673ffffffffffffffffffffffffffffffffffffffff16815260200190815260200160002060009054906101000a900460ff16905092915050565b610f086110ce565b73ffffffffffffffffffffffffffffffffffffffff16610f26610c8b565b73ffffffffffffffffffffffffffffffffffffffff1614610f7c576040517f08c379a0000000000000000000000000000000000000000000000000000000008152600401610f7390612ae4565b60405180910390fd5b600073ffffffffffffffffffffffffffffffffffffffff168173ffffffffffffffffffffffffffffffffffffffff161415610fec576040517f08c379a0000000000000000000000000000000000000000000000000000000008152600401610fe390612944565b60405180910390fd5b610ff581611891565b50565b60007f01ffc9a7000000000000000000000000000000000000000000000000000000007bffffffffffffffffffffffffffffffffffffffffffffffffffffffff1916827bffffffffffffffffffffffffffffffffffffffffffffffffffffffff1916149050919050565b60008073ffffffffffffffffffffffffffffffffffffffff166002600084815260200190815260200160002060009054906101000a900473ffffffffffffffffffffffffffffffffffffffff1673ffffffffffffffffffffffffffffffffffffffff1614159050919050565b600033905090565b816004600083815260200190815260200160002060006101000a81548173ffffffffffffffffffffffffffffffffffffffff021916908373ffffffffffffffffffffffffffffffffffffffff160217905550808273ffffffffffffffffffffffffffffffffffffffff1661114983610985565b73ffffffffffffffffffffffffffffffffffffffff167f8c5be1e5ebec7d5bd14f71427d1e84f3dd0314c0f7b2291e5b200ac8c7c3b92560405160405180910390a45050565b600061119a82611062565b6111d9576040517f08c379a00000000000000000000000000000000000000000000000000000000081526004016111d0906129e4565b60405180910390fd5b60006111e483610985565b90508073ffffffffffffffffffffffffffffffffffffffff168473ffffffffffffffffffffffffffffffffffffffff16148061125357508373ffffffffffffffffffffffffffffffffffffffff1661123b846105d3565b73ffffffffffffffffffffffffffffffffffffffff16145b8061126457506112638185610e6c565b5b91505092915050565b8273ffffffffffffffffffffffffffffffffffffffff1661128d82610985565b73ffffffffffffffffffffffffffffffffffffffff16146112e3576040517f08c379a00000000000000000000000000000000000000000000000000000000081526004016112da90612964565b60405180910390fd5b600073ffffffffffffffffffffffffffffffffffffffff168273ffffffffffffffffffffffffffffffffffffffff161415611353576040517f08c379a000000000000000000000000000000000000000000000000000000000815260040161134a906129a4565b60405180910390fd5b61135e838383611e02565b6113696000826110d6565b6001600360008573ffffffffffffffffffffffffffffffffffffffff1673ffffffffffffffffffffffffffffffffffffffff16815260200190815260200160002060008282546113b99190612cf0565b925050819055506001600360008473ffffffffffffffffffffffffffffffffffffffff1673ffffffffffffffffffffffffffffffffffffffff16815260200190815260200160002060008282546114109190612c69565b92505081905550816002600083815260200190815260200160002060006101000a81548173ffffffffffffffffffffffffffffffffffffffff021916908373ffffffffffffffffffffffffffffffffffffffff160217905550808273ffffffffffffffffffffffffffffffffffffffff168473ffffffffffffffffffffffffffffffffffffffff167fddf252ad1be2c89b69c2b068fc378daa952ba7f163c4a11628f55a4df523b3ef60405160405180910390a46114cf838383611e12565b505050565b6114dc61096e565b61151b576040517f08c379a000000000000000000000000000000000000000000000000000000000815260040161151290612904565b60405180910390fd5b6000600660006101000a81548160ff0219169083151502179055507f5db9ee0a495bf2e6ff9c91a7834c1ba4fdd244a5e8aa4e537bd38aeae4b073aa61155f6110ce565b60405161156c9190612840565b60405180910390a1565b600061158182610985565b905061158f81600084611e02565b61159a6000836110d6565b6001600360008373ffffffffffffffffffffffffffffffffffffffff1673ffffffffffffffffffffffffffffffffffffffff16815260200190815260200160002060008282546115ea9190612cf0565b925050819055506002600083815260200190815260200160002060006101000a81549073ffffffffffffffffffffffffffffffffffffffff021916905581600073ffffffffffffffffffffffffffffffffffffffff168273ffffffffffffffffffffffffffffffffffffffff167fddf252ad1be2c89b69c2b068fc378daa952ba7f163c4a11628f55a4df523b3ef60405160405180910390a461168f81600084611e12565b5050565b6001816000016000828254019250508190555050565b600081600001549050919050565b600073ffffffffffffffffffffffffffffffffffffffff168273ffffffffffffffffffffffffffffffffffffffff161415611727576040517f08c379a000000000000000000000000000000000000000000000000000000000815260040161171e90612aa4565b60405180910390fd5b61173081611062565b15611770576040517f08c379a000000000000000000000000000000000000000000000000000000000815260040161176790612984565b60405180910390fd5b61177c60008383611e02565b6001600360008473ffffffffffffffffffffffffffffffffffffffff1673ffffffffffffffffffffffffffffffffffffffff16815260200190815260200160002060008282546117cc9190612c69565b92505081905550816002600083815260200190815260200160002060006101000a81548173ffffffffffffffffffffffffffffffffffffffff021916908373ffffffffffffffffffffffffffffffffffffffff160217905550808273ffffffffffffffffffffffffffffffffffffffff16600073ffffffffffffffffffffffffffffffffffffffff167fddf252ad1be2c89b69c2b068fc378daa952ba7f163c4a11628f55a4df523b3ef60405160405180910390a461188d60008383611e12565b5050565b6000600660019054906101000a900473ffffffffffffffffffffffffffffffffffffffff16905081600660016101000a81548173ffffffffffffffffffffffffffffffffffffffff021916908373ffffffffffffffffffffffffffffffffffffffff1602179055508173ffffffffffffffffffffffffffffffffffffffff168173ffffffffffffffffffffffffffffffffffffffff167f8be0079c531659141344cd1fd0a4f28419497f9722a3daafe3b4186f6b6457e060405160405180910390a35050565b61195f61096e565b1561199f576040517f08c379a000000000000000000000000000000000000000000000000000000000815260040161199690612a24565b60405180910390fd5b6001600660006101000a81548160ff0219169083151502179055507f62e78cea01bee320cd4e420270b5ea74000d11b0c9f74754ebdbfc544b05a2586119e36110ce565b6040516119f09190612840565b60405180910390a1565b8173ffffffffffffffffffffffffffffffffffffffff168373ffffffffffffffffffffffffffffffffffffffff161415611a69576040517f08c379a0000000000000000000000000000000000000000000000000000000008152600401611a60906129c4565b60405180910390fd5b80600560008573ffffffffffffffffffffffffffffffffffffffff1673ffffffffffffffffffffffffffffffffffffffff16815260200190815260200160002060008473ffffffffffffffffffffffffffffffffffffffff1673ffffffffffffffffffffffffffffffffffffffff16815260200190815260200160002060006101000a81548160ff0219169083151502179055508173ffffffffffffffffffffffffffffffffffffffff168373ffffffffffffffffffffffffffffffffffffffff167f17307eab39ab6107e8899845ad3d59bd9653f200f220920489ca2b5937696c3183604051611b5a91906128a7565b60405180910390a3505050565b611b7284848461126d565b611b7e84848484611e17565b611bbd576040517f08c379a0000000000000000000000000000000000000000000000000000000008152600401611bb490612924565b60405180910390fd5b50505050565b606060088054611bd290612dda565b80601f0160208091040260200160405190810160405280929190818152602001828054611bfe90612dda565b8015611c4b5780601f10611c2057610100808354040283529160200191611c4b565b820191906000526020600020905b815481529060010190602001808311611c2e57829003601f168201915b5050505050905090565b60606000821415611c9d576040518060400160405280600181526020017f30000000000000000000000000000000000000000000000000000000000000008152509050611dfd565b600082905060005b60008214611ccf578080611cb890612e3d565b915050600a82611cc89190612cbf565b9150611ca5565b60008167ffffffffffffffff811115611d11577f4e487b7100000000000000000000000000000000000000000000000000000000600052604160045260246000fd5b6040519080825280601f01601f191660200182016040528015611d435781602001600182028036833780820191505090505b5090505b60008514611df657600182611d5c9190612cf0565b9150600a85611d6b9190612e86565b6030611d779190612c69565b60f81b818381518110611db3577f4e487b7100000000000000000000000000000000000000000000000000000000600052603260045260246000fd5b60200101907effffffffffffffffffffffffffffffffffffffffffffffffffffffffffffff1916908160001a905350600a85611def9190612cbf565b9450611d47565b8093505050505b919050565b611e0d838383611fae565b505050565b505050565b6000611e388473ffffffffffffffffffffffffffffffffffffffff16612006565b15611fa1578373ffffffffffffffffffffffffffffffffffffffff1663150b7a02611e616110ce565b8786866040518563ffffffff1660e01b8152600401611e83949392919061285b565b602060405180830381600087803b158015611e9d57600080fd5b505af1925050508015611ece57506040513d601f19601f82011682018060405250810190611ecb91906123da565b60015b611f51573d8060008114611efe576040519150601f19603f3d011682016040523d82523d6000602084013e611f03565b606091505b50600081511415611f49576040517f08c379a0000000000000000000000000000000000000000000000000000000008152600401611f4090612924565b60405180910390fd5b805181602001fd5b63150b7a0260e01b7bffffffffffffffffffffffffffffffffffffffffffffffffffffffff1916817bffffffffffffffffffffffffffffffffffffffffffffffffffffffff191614915050611fa6565b600190505b949350505050565b611fb9838383612029565b611fc161096e565b15612001576040517f08c379a0000000000000000000000000000000000000000000000000000000008152600401611ff8906128e4565b60405180910390fd5b505050565b6000808273ffffffffffffffffffffffffffffffffffffffff163b119050919050565b505050565b82805461203a90612dda565b90600052602060002090601f01602090048101928261205c57600085556120a3565b82601f1061207557805160ff19168380011785556120a3565b828001600101855582156120a3579182015b828111156120a2578251825591602001919060010190612087565b5b5090506120b091906120b4565b5090565b5b808211156120cd5760008160009055506001016120b5565b5090565b60006120e46120df84612bc4565b612b9f565b9050828152602081018484840111156120fc57600080fd5b612107848285612d98565b509392505050565b600061212261211d84612bf5565b612b9f565b90508281526020810184848401111561213a57600080fd5b612145848285612d98565b509392505050565b60008135905061215c8161351b565b92915050565b60008135905061217181613532565b92915050565b60008135905061218681613549565b92915050565b60008151905061219b81613549565b92915050565b600082601f8301126121b257600080fd5b81356121c28482602086016120d1565b91505092915050565b600082601f8301126121dc57600080fd5b81356121ec84826020860161210f565b91505092915050565b60008135905061220481613560565b92915050565b60006020828403121561221c57600080fd5b600061222a8482850161214d565b91505092915050565b6000806040838503121561224657600080fd5b60006122548582860161214d565b92505060206122658582860161214d565b9150509250929050565b60008060006060848603121561228457600080fd5b60006122928682870161214d565b93505060206122a38682870161214d565b92505060406122b4868287016121f5565b9150509250925092565b600080600080608085870312156122d457600080fd5b60006122e28782880161214d565b94505060206122f38782880161214d565b9350506040612304878288016121f5565b925050606085013567ffffffffffffffff81111561232157600080fd5b61232d878288016121a1565b91505092959194509250565b6000806040838503121561234c57600080fd5b600061235a8582860161214d565b925050602061236b85828601612162565b9150509250929050565b6000806040838503121561238857600080fd5b60006123968582860161214d565b92505060206123a7858286016121f5565b9150509250929050565b6000602082840312156123c357600080fd5b60006123d184828501612177565b91505092915050565b6000602082840312156123ec57600080fd5b60006123fa8482850161218c565b91505092915050565b60006020828403121561241557600080fd5b600082013567ffffffffffffffff81111561242f57600080fd5b61243b848285016121cb565b91505092915050565b60006020828403121561245657600080fd5b6000612464848285016121f5565b91505092915050565b61247681612d24565b82525050565b61248581612d36565b82525050565b600061249682612c26565b6124a08185612c3c565b93506124b0818560208601612da7565b6124b981612f73565b840191505092915050565b60006124cf82612c31565b6124d98185612c4d565b93506124e9818560208601612da7565b6124f281612f73565b840191505092915050565b600061250882612c31565b6125128185612c5e565b9350612522818560208601612da7565b80840191505092915050565b600061253b602b83612c4d565b915061254682612f84565b604082019050919050565b600061255e601483612c4d565b915061256982612fd3565b602082019050919050565b6000612581603283612c4d565b915061258c82612ffc565b604082019050919050565b60006125a4602683612c4d565b91506125af8261304b565b604082019050919050565b60006125c7602583612c4d565b91506125d28261309a565b604082019050919050565b60006125ea601c83612c4d565b91506125f5826130e9565b602082019050919050565b600061260d602483612c4d565b915061261882613112565b604082019050919050565b6000612630601983612c4d565b915061263b82613161565b602082019050919050565b6000612653602c83612c4d565b915061265e8261318a565b604082019050919050565b6000612676602f83612c4d565b9150612681826131d9565b604082019050919050565b6000612699601083612c4d565b91506126a482613228565b602082019050919050565b60006126bc603883612c4d565b91506126c782613251565b604082019050919050565b60006126df602a83612c4d565b91506126ea826132a0565b604082019050919050565b6000612702602983612c4d565b915061270d826132ef565b604082019050919050565b6000612725602083612c4d565b91506127308261333e565b602082019050919050565b6000612748602c83612c4d565b915061275382613367565b604082019050919050565b600061276b602083612c4d565b9150612776826133b6565b602082019050919050565b600061278e602f83612c4d565b9150612799826133df565b604082019050919050565b60006127b1602183612c4d565b91506127bc8261342e565b604082019050919050565b60006127d4603183612c4d565b91506127df8261347d565b604082019050919050565b60006127f7603083612c4d565b9150612802826134cc565b604082019050919050565b61281681612d8e565b82525050565b600061282882856124fd565b915061283482846124fd565b91508190509392505050565b6000602082019050612855600083018461246d565b92915050565b6000608082019050612870600083018761246d565b61287d602083018661246d565b61288a604083018561280d565b818103606083015261289c818461248b565b905095945050505050565b60006020820190506128bc600083018461247c565b92915050565b600060208201905081810360008301526128dc81846124c4565b905092915050565b600060208201905081810360008301526128fd8161252e565b9050919050565b6000602082019050818103600083015261291d81612551565b9050919050565b6000602082019050818103600083015261293d81612574565b9050919050565b6000602082019050818103600083015261295d81612597565b9050919050565b6000602082019050818103600083015261297d816125ba565b9050919050565b6000602082019050818103600083015261299d816125dd565b9050919050565b600060208201905081810360008301526129bd81612600565b9050919050565b600060208201905081810360008301526129dd81612623565b9050919050565b600060208201905081810360008301526129fd81612646565b9050919050565b60006020820190508181036000830152612a1d81612669565b9050919050565b60006020820190508181036000830152612a3d8161268c565b9050919050565b60006020820190508181036000830152612a5d816126af565b9050919050565b60006020820190508181036000830152612a7d816126d2565b9050919050565b60006020820190508181036000830152612a9d816126f5565b9050919050565b60006020820190508181036000830152612abd81612718565b9050919050565b60006020820190508181036000830152612add8161273b565b9050919050565b60006020820190508181036000830152612afd8161275e565b9050919050565b60006020820190508181036000830152612b1d81612781565b9050919050565b60006020820190508181036000830152612b3d816127a4565b9050919050565b60006020820190508181036000830152612b5d816127c7565b9050919050565b60006020820190508181036000830152612b7d816127ea565b9050919050565b6000602082019050612b99600083018461280d565b92915050565b6000612ba9612bba565b9050612bb58282612e0c565b919050565b6000604051905090565b600067ffffffffffffffff821115612bdf57612bde612f44565b5b612be882612f73565b9050602081019050919050565b600067ffffffffffffffff821115612c1057612c0f612f44565b5b612c1982612f73565b9050602081019050919050565b600081519050919050565b600081519050919050565b600082825260208201905092915050565b600082825260208201905092915050565b600081905092915050565b6000612c7482612d8e565b9150612c7f83612d8e565b9250827fffffffffffffffffffffffffffffffffffffffffffffffffffffffffffffffff03821115612cb457612cb3612eb7565b5b828201905092915050565b6000612cca82612d8e565b9150612cd583612d8e565b925082612ce557612ce4612ee6565b5b828204905092915050565b6000612cfb82612d8e565b9150612d0683612d8e565b925082821015612d1957612d18612eb7565b5b828203905092915050565b6000612d2f82612d6e565b9050919050565b60008115159050919050565b60007fffffffff0000000000000000000000000000000000000000000000000000000082169050919050565b600073ffffffffffffffffffffffffffffffffffffffff82169050919050565b6000819050919050565b82818337600083830152505050565b60005b83811015612dc5578082015181840152602081019050612daa565b83811115612dd4576000848401525b50505050565b60006002820490506001821680612df257607f821691505b60208210811415612e0657612e05612f15565b5b50919050565b612e1582612f73565b810181811067ffffffffffffffff82111715612e3457612e33612f44565b5b80604052505050565b6000612e4882612d8e565b91507fffffffffffffffffffffffffffffffffffffffffffffffffffffffffffffffff821415612e7b57612e7a612eb7565b5b600182019050919050565b6000612e9182612d8e565b9150612e9c83612d8e565b925082612eac57612eab612ee6565b5b828206905092915050565b7f4e487b7100000000000000000000000000000000000000000000000000000000600052601160045260246000fd5b7f4e487b7100000000000000000000000000000000000000000000000000000000600052601260045260246000fd5b7f4e487b7100000000000000000000000000000000000000000000000000000000600052602260045260246000fd5b7f4e487b7100000000000000000000000000000000000000000000000000000000600052604160045260246000fd5b6000601f19601f8301169050919050565b7f4552433732315061757361626c653a20746f6b656e207472616e73666572207760008201527f68696c6520706175736564000000000000000000000000000000000000000000602082015250565b7f5061757361626c653a206e6f7420706175736564000000000000000000000000600082015250565b7f4552433732313a207472616e7366657220746f206e6f6e20455243373231526560008201527f63656976657220696d706c656d656e7465720000000000000000000000000000602082015250565b7f4f776e61626c653a206e6577206f776e657220697320746865207a65726f206160008201527f6464726573730000000000000000000000000000000000000000000000000000602082015250565b7f4552433732313a207472616e736665722066726f6d20696e636f72726563742060008201527f6f776e6572000000000000000000000000000000000000000000000000000000602082015250565b7f4552433732313a20746f6b656e20616c7265616479206d696e74656400000000600082015250565b7f4552433732313a207472616e7366657220746f20746865207a65726f2061646460008201527f7265737300000000000000000000000000000000000000000000000000000000602082015250565b7f4552433732313a20617070726f766520746f2063616c6c657200000000000000600082015250565b7f4552433732313a206f70657261746f7220717565727920666f72206e6f6e657860008201527f697374656e7420746f6b656e0000000000000000000000000000000000000000602082015250565b7f546f74616c20737570706c792065786365656465642c206e6f206d6f7265206160008201527f7661696c61626c6520746f6b656e730000000000000000000000000000000000602082015250565b7f5061757361626c653a2070617573656400000000000000000000000000000000600082015250565b7f4552433732313a20617070726f76652063616c6c6572206973206e6f74206f7760008201527f6e6572206e6f7220617070726f76656420666f7220616c6c0000000000000000602082015250565b7f4552433732313a2062616c616e636520717565727920666f7220746865207a6560008201527f726f206164647265737300000000000000000000000000000000000000000000602082015250565b7f4552433732313a206f776e657220717565727920666f72206e6f6e657869737460008201527f656e7420746f6b656e0000000000000000000000000000000000000000000000602082015250565b7f4552433732313a206d696e7420746f20746865207a65726f2061646472657373600082015250565b7f4552433732313a20617070726f76656420717565727920666f72206e6f6e657860008201527f697374656e7420746f6b656e0000000000000000000000000000000000000000602082015250565b7f4f776e61626c653a2063616c6c6572206973206e6f7420746865206f776e6572600082015250565b7f4552433732314d657461646174613a2055524920717565727920666f72206e6f60008201527f6e6578697374656e7420746f6b656e0000000000000000000000000000000000602082015250565b7f4552433732313a20617070726f76616c20746f2063757272656e74206f776e6560008201527f7200000000000000000000000000000000000000000000000000000000000000602082015250565b7f4552433732313a207472616e736665722063616c6c6572206973206e6f74206f60008201527f776e6572206e6f7220617070726f766564000000000000000000000000000000602082015250565b7f4552433732314275726e61626c653a2063616c6c6572206973206e6f74206f7760008201527f6e6572206e6f7220617070726f76656400000000000000000000000000000000602082015250565b61352481612d24565b811461352f57600080fd5b50565b61353b81612d36565b811461354657600080fd5b50565b61355281612d42565b811461355d57600080fd5b50565b61356981612d8e565b811461357457600080fd5b5056fea2646970667358221220f5b731069e6fb0cd41af0801f2ede177a3c3e2591dde068726b34a1ca985addb64736f6c63430008010033",
  "linkReferences": {},
  "deployedLinkReferences": {}
}