{
  "_format": "hh-sol-artifact-1",
  "contractName": "SnakeNFT",
  "sourceName": "contracts/SnakeNFT.sol",
  "abi": [
    {
      "inputs": [
        {
          "internalType": "string",
          "name": "_baseTokenURI",
          "type": "string"
        },
        {
          "internalType": "uint256",
          "name": "_totalSupply",
          "type": "uint256"
        }
      ],
      "stateMutability": "nonpayable",
      "type": "constructor"
    },
    {
      "anonymous": false,
      "inputs": [
        {
          "indexed": true,
          "internalType": "address",
          "name": "owner",
          "type": "address"
        },
        {
          "indexed": true,
          "internalType": "address",
          "name": "approved",
          "type": "address"
        },
        {
          "indexed": true,
          "internalType": "uint256",
          "name": "tokenId",
          "type": "uint256"
        }
      ],
      "name": "Approval",
      "type": "event"
    },
    {
      "anonymous": false,
      "inputs": [
        {
          "indexed": true,
          "internalType": "address",
          "name": "owner",
          "type": "address"
        },
        {
          "indexed": true,
          "internalType": "address",
          "name": "operator",
          "type": "address"
        },
        {
          "indexed": false,
          "internalType": "bool",
          "name": "approved",
          "type": "bool"
        }
      ],
      "name": "ApprovalForAll",
      "type": "event"
    },
    {
      "anonymous": false,
      "inputs": [
        {
          "indexed": true,
          "internalType": "address",
          "name": "previousOwner",
          "type": "address"
        },
        {
          "indexed": true,
          "internalType": "address",
          "name": "newOwner",
          "type": "address"
        }
      ],
      "name": "OwnershipTransferred",
      "type": "event"
    },
    {
      "anonymous": false,
      "inputs": [
        {
          "indexed": false,
          "internalType": "address",
          "name": "account",
          "type": "address"
        }
      ],
      "name": "Paused",
      "type": "event"
    },
    {
      "anonymous": false,
      "inputs": [
        {
          "indexed": true,
          "internalType": "address",
          "name": "from",
          "type": "address"
        },
        {
          "indexed": true,
          "internalType": "address",
          "name": "to",
          "type": "address"
        },
        {
          "indexed": true,
          "internalType": "uint256",
          "name": "tokenId",
          "type": "uint256"
        }
      ],
      "name": "Transfer",
      "type": "event"
    },
    {
      "anonymous": false,
      "inputs": [
        {
          "indexed": false,
          "internalType": "address",
          "name": "account",
          "type": "address"
        }
      ],
      "name": "Unpaused",
      "type": "event"
    },
    {
      "inputs": [
        {
          "internalType": "address",
          "name": "to",
          "type": "address"
        },
        {
          "internalType": "uint256",
          "name": "tokenId",
          "type": "uint256"
        }
      ],
      "name": "approve",
      "outputs": [],
      "stateMutability": "nonpayable",
      "type": "function"
    },
    {
      "inputs": [
        {
          "internalType": "address",
          "name": "owner",
          "type": "address"
        }
      ],
      "name": "balanceOf",
      "outputs": [
        {
          "internalType": "uint256",
          "name": "",
          "type": "uint256"
        }
      ],
      "stateMutability": "view",
      "type": "function"
    },
    {
      "inputs": [
        {
          "internalType": "uint256",
          "name": "tokenId",
          "type": "uint256"
        }
      ],
      "name": "burn",
      "outputs": [],
      "stateMutability": "nonpayable",
      "type": "function"
    },
    {
      "inputs": [
        {
          "internalType": "uint256",
          "name": "tokenId",
          "type": "uint256"
        }
      ],
      "name": "getApproved",
      "outputs": [
        {
          "internalType": "address",
          "name": "",
          "type": "address"
        }
      ],
      "stateMutability": "view",
      "type": "function"
    },
    {
      "inputs": [
        {
          "internalType": "address",
          "name": "owner",
          "type": "address"
        },
        {
          "internalType": "address",
          "name": "operator",
          "type": "address"
        }
      ],
      "name": "isApprovedForAll",
      "outputs": [
        {
          "internalType": "bool",
          "name": "",
          "type": "bool"
        }
      ],
      "stateMutability": "view",
      "type": "function"
    },
    {
      "inputs": [
        {
          "internalType": "address",
          "name": "to",
          "type": "address"
        }
      ],
      "name": "mint",
      "outputs": [
        {
          "internalType": "uint256",
          "name": "",
          "type": "uint256"
        }
      ],
      "stateMutability": "nonpayable",
      "type": "function"
    },
    {
      "inputs": [],
      "name": "name",
      "outputs": [
        {
          "internalType": "string",
          "name": "",
          "type": "string"
        }
      ],
      "stateMutability": "view",
      "type": "function"
    },
    {
      "inputs": [],
      "name": "owner",
      "outputs": [
        {
          "internalType": "address",
          "name": "",
          "type": "address"
        }
      ],
      "stateMutability": "view",
      "type": "function"
    },
    {
      "inputs": [
        {
          "internalType": "uint256",
          "name": "tokenId",
          "type": "uint256"
        }
      ],
      "name": "ownerOf",
      "outputs": [
        {
          "internalType": "address",
          "name": "",
          "type": "address"
        }
      ],
      "stateMutability": "view",
      "type": "function"
    },
    {
      "inputs": [],
      "name": "pause",
      "outputs": [],
      "stateMutability": "nonpayable",
      "type": "function"
    },
    {
      "inputs": [],
      "name": "paused",
      "outputs": [
        {
          "internalType": "bool",
          "name": "",
          "type": "bool"
        }
      ],
      "stateMutability": "view",
      "type": "function"
    },
    {
      "inputs": [],
      "name": "renounceOwnership",
      "outputs": [],
      "stateMutability": "nonpayable",
      "type": "function"
    },
    {
      "inputs": [
        {
          "internalType": "address",
          "name": "from",
          "type": "address"
        },
        {
          "internalType": "address",
          "name": "to",
          "type": "address"
        },
        {
          "internalType": "uint256",
          "name": "tokenId",
          "type": "uint256"
        }
      ],
      "name": "safeTransferFrom",
      "outputs": [],
      "stateMutability": "nonpayable",
      "type": "function"
    },
    {
      "inputs": [
        {
          "internalType": "address",
          "name": "from",
          "type": "address"
        },
        {
          "internalType": "address",
          "name": "to",
          "type": "address"
        },
        {
          "internalType": "uint256",
          "name": "tokenId",
          "type": "uint256"
        },
        {
          "internalType": "bytes",
          "name": "_data",
          "type": "bytes"
        }
      ],
      "name": "safeTransferFrom",
      "outputs": [],
      "stateMutability": "nonpayable",
      "type": "function"
    },
    {
      "inputs": [
        {
          "internalType": "address",
          "name": "operator",
          "type": "address"
        },
        {
          "internalType": "bool",
          "name": "approved",
          "type": "bool"
        }
      ],
      "name": "setApprovalForAll",
      "outputs": [],
      "stateMutability": "nonpayable",
      "type": "function"
    },
    {
      "inputs": [
        {
          "internalType": "string",
          "name": "_baseTokenURI",
          "type": "string"
        }
      ],
      "name": "setBaseTokenURI",
      "outputs": [],
      "stateMutability": "nonpayable",
      "type": "function"
    },
    {
      "inputs": [
        {
          "internalType": "bytes4",
          "name": "interfaceId",
          "type": "bytes4"
        }
      ],
      "name": "supportsInterface",
      "outputs": [
        {
          "internalType": "bool",
          "name": "",
          "type": "bool"
        }
      ],
      "stateMutability": "view",
      "type": "function"
    },
    {
      "inputs": [],
      "name": "symbol",
      "outputs": [
        {
          "internalType": "string",
          "name": "",
          "type": "string"
        }
      ],
      "stateMutability": "view",
      "type": "function"
    },
    {
      "inputs": [
        {
          "internalType": "uint256",
          "name": "tokenId",
          "type": "uint256"
        }
      ],
      "name": "tokenURI",
      "outputs": [
        {
          "internalType": "string",
          "name": "",
          "type": "string"
        }
      ],
      "stateMutability": "view",
      "type": "function"
    },
    {
      "inputs": [],
      "name": "totalMinted",
      "outputs": [
        {
          "internalType": "uint256",
          "name": "",
          "type": "uint256"
        }
      ],
      "stateMutability": "view",
      "type": "function"
    },
    {
      "inputs": [],
      "name": "totalSupply",
      "outputs": [
        {
          "internalType": "uint256",
          "name": "",
          "type": "uint256"
        }
      ],
      "stateMutability": "view",
      "type": "function"
    },
    {
      "inputs": [
        {
          "internalType": "address",
          "name": "from",
          "type": "address"
        },
        {
          "internalType": "address",
          "name": "to",
          "type": "address"
        },
        {
          "internalType": "uint256",
          "name": "tokenId",
          "type": "uint256"
        }
      ],
      "name": "transferFrom",
      "outputs": [],
      "stateMutability": "nonpayable",
      "type": "function"
    },
    {
      "inputs": [
        {
          "internalType": "address",
          "name": "newOwner",
          "type": "address"
        }
      ],
      "name": "transferOwnership",
      "outputs": [],
      "stateMutability": "nonpayable",
      "type": "function"
    },
    {
      "inputs": [],
      "name": "unpause",
      "outputs": [],
      "stateMutability": "nonpayable",
      "type": "function"
    }
  ],
  "bytecode": "0x60806040526000600a553480156200001657600080fd5b5060405162003b6a38038062003b6a83398181016040528101906200003c919062000346565b6040518060400160405280600881526020017f536e616b654e46540000000000000000000000000000000000000000000000008152506040518060400160405280600581526020017f534e414b450000000000000000000000000000000000000000000000000000008152508160009080519060200190620000c09291906200020d565b508060019080519060200190620000d99291906200020d565b5050506000600660006101000a81548160ff021916908315150217905550620001176200010b6200013f60201b60201c565b6200014760201b60201c565b81600890805190602001906200012f9291906200020d565b5080600981905550505062000534565b600033905090565b6000600660019054906101000a900473ffffffffffffffffffffffffffffffffffffffff16905081600660016101000a81548173ffffffffffffffffffffffffffffffffffffffff021916908373ffffffffffffffffffffffffffffffffffffffff1602179055508173ffffffffffffffffffffffffffffffffffffffff168173ffffffffffffffffffffffffffffffffffffffff167f8be0079c531659141344cd1fd0a4f28419497f9722a3daafe3b4186f6b6457e060405160405180910390a35050565b8280546200021b906200043f565b90600052602060002090601f0160209004810192826200023f57600085556200028b565b82601f106200025a57805160ff19168380011785556200028b565b828001600101855582156200028b579182015b828111156200028a5782518255916020019190600101906200026d565b5b5090506200029a91906200029e565b5090565b5b80821115620002b95760008160009055506001016200029f565b5090565b6000620002d4620002ce84620003c9565b620003a0565b905082815260208101848484011115620002ed57600080fd5b620002fa84828562000409565b509392505050565b600082601f8301126200031457600080fd5b815162000326848260208601620002bd565b91505092915050565b60008151905062000340816200051a565b92915050565b600080604083850312156200035a57600080fd5b600083015167ffffffffffffffff8111156200037557600080fd5b620003838582860162000302565b925050602062000396858286016200032f565b9150509250929050565b6000620003ac620003bf565b9050620003ba828262000475565b919050565b6000604051905090565b600067ffffffffffffffff821115620003e757620003e6620004da565b5b620003f28262000509565b9050602081019050919050565b6000819050919050565b60005b83811015620004295780820151818401526020810190506200040c565b8381111562000439576000848401525b50505050565b600060028204905060018216806200045857607f821691505b602082108114156200046f576200046e620004ab565b5b50919050565b620004808262000509565b810181811067ffffffffffffffff82111715620004a257620004a1620004da565b5b80604052505050565b7f4e487b7100000000000000000000000000000000000000000000000000000000600052602260045260246000fd5b7f4e487b7100000000000000000000000000000000000000000000000000000000600052604160045260246000fd5b6000601f19601f8301169050919050565b6200052581620003ff565b81146200053157600080fd5b50565b61362680620005446000396000f3fe608060405234801561001057600080fd5b50600436106101585760003560e01c80636a627842116100c3578063a22cb4651161007c578063a22cb4651461038d578063a2309ff8146103a9578063b88d4fde146103c7578063c87b56dd146103e3578063e985e9c514610413578063f2fde38b1461044357610158565b80636a627842146102dd57806370a082311461030d578063715018a61461033d5780638456cb59146103475780638da5cb5b1461035157806395d89b411461036f57610158565b806330176e131161011557806330176e13146102315780633f4ba83a1461024d57806342842e0e1461025757806342966c68146102735780635c975abb1461028f5780636352211e146102ad57610158565b806301ffc9a71461015d57806306fdde031461018d578063081812fc146101ab578063095ea7b3146101db57806318160ddd146101f757806323b872dd14610215575b600080fd5b6101776004803603810190610172919061242a565b61045f565b6040516101849190612920565b60405180910390f35b610195610541565b6040516101a2919061293b565b60405180910390f35b6101c560048036038101906101c091906124bd565b6105d3565b6040516101d291906128b9565b60405180910390f35b6101f560048036038101906101f091906123ee565b610658565b005b6101ff610770565b60405161020c9190612bfd565b60405180910390f35b61022f600480360381019061022a91906122e8565b610776565b005b61024b6004803603810190610246919061247c565b6107d6565b005b61025561086c565b005b610271600480360381019061026c91906122e8565b6108f2565b005b61028d600480360381019061028891906124bd565b610912565b005b61029761096e565b6040516102a49190612920565b60405180910390f35b6102c760048036038101906102c291906124bd565b610985565b6040516102d491906128b9565b60405180910390f35b6102f760048036038101906102f29190612283565b610a37565b6040516103049190612bfd565b60405180910390f35b61032760048036038101906103229190612283565b610ac5565b6040516103349190612bfd565b60405180910390f35b610345610b7d565b005b61034f610c05565b005b610359610c8b565b60405161036691906128b9565b60405180910390f35b610377610cb5565b604051610384919061293b565b60405180910390f35b6103a760048036038101906103a291906123b2565b610d47565b005b6103b1610d5d565b6040516103be9190612bfd565b60405180910390f35b6103e160048036038101906103dc9190612337565b610d63565b005b6103fd60048036038101906103f891906124bd565b610dc5565b60405161040a919061293b565b60405180910390f35b61042d600480360381019061042891906122ac565b610e6c565b60405161043a9190612920565b60405180910390f35b61045d60048036038101906104589190612283565b610f00565b005b60007f80ac58cd000000000000000000000000000000000000000000000000000000007bffffffffffffffffffffffffffffffffffffffffffffffffffffffff1916827bffffffffffffffffffffffffffffffffffffffffffffffffffffffff1916148061052a57507f5b5e139f000000000000000000000000000000000000000000000000000000007bffffffffffffffffffffffffffffffffffffffffffffffffffffffff1916827bffffffffffffffffffffffffffffffffffffffffffffffffffffffff1916145b8061053a575061053982610ff8565b5b9050919050565b60606000805461055090612e53565b80601f016020809104026020016040519081016040528092919081815260200182805461057c90612e53565b80156105c95780601f1061059e576101008083540402835291602001916105c9565b820191906000526020600020905b8154815290600101906020018083116105ac57829003601f168201915b5050505050905090565b60006105de82611062565b61061d576040517f08c379a000000000000000000000000000000000000000000000000000000000815260040161061490612b3d565b60405180910390fd5b6004600083815260200190815260200160002060009054906101000a900473ffffffffffffffffffffffffffffffffffffffff169050919050565b600061066382610985565b90508073ffffffffffffffffffffffffffffffffffffffff168373ffffffffffffffffffffffffffffffffffffffff1614156106d4576040517f08c379a00000000000000000000000000000000000000000000000000000000081526004016106cb90612b9d565b60405180910390fd5b8073ffffffffffffffffffffffffffffffffffffffff166106f36110ce565b73ffffffffffffffffffffffffffffffffffffffff16148061072257506107218161071c6110ce565b610e6c565b5b610761576040517f08c379a000000000000000000000000000000000000000000000000000000000815260040161075890612abd565b60405180910390fd5b61076b83836110d6565b505050565b60095481565b6107876107816110ce565b8261118f565b6107c6576040517f08c379a00000000000000000000000000000000000000000000000000000000081526004016107bd90612bbd565b60405180910390fd5b6107d183838361126d565b505050565b6107de6110ce565b73ffffffffffffffffffffffffffffffffffffffff166107fc610c8b565b73ffffffffffffffffffffffffffffffffffffffff1614610852576040517f08c379a000000000000000000000000000000000000000000000000000000000815260040161084990612b5d565b60405180910390fd5b80600890805190602001906108689291906120a7565b5050565b6108746110ce565b73ffffffffffffffffffffffffffffffffffffffff16610892610c8b565b73ffffffffffffffffffffffffffffffffffffffff16146108e8576040517f08c379a00000000000000000000000000000000000000000000000000000000081526004016108df90612b5d565b60405180910390fd5b6108f06114d4565b565b61090d83838360405180602001604052806000815250610d63565b505050565b61092361091d6110ce565b8261118f565b610962576040517f08c379a000000000000000000000000000000000000000000000000000000000815260040161095990612bdd565b60405180910390fd5b61096b81611576565b50565b6000600660009054906101000a900460ff16905090565b6000806002600084815260200190815260200160002060009054906101000a900473ffffffffffffffffffffffffffffffffffffffff169050600073ffffffffffffffffffffffffffffffffffffffff168173ffffffffffffffffffffffffffffffffffffffff161415610a2e576040517f08c379a0000000000000000000000000000000000000000000000000000000008152600401610a2590612afd565b60405180910390fd5b80915050919050565b6000600954600a5410610a7f576040517f08c379a0000000000000000000000000000000000000000000000000000000008152600401610a7690612a7d565b60405180910390fd5b610a896007611693565b610a9c82610a9760076116a9565b6116b7565b600a6000815480929190610aaf90612eb6565b9190505550610abe60076116a9565b9050919050565b60008073ffffffffffffffffffffffffffffffffffffffff168273ffffffffffffffffffffffffffffffffffffffff161415610b36576040517f08c379a0000000000000000000000000000000000000000000000000000000008152600401610b2d90612add565b60405180910390fd5b600360008373ffffffffffffffffffffffffffffffffffffffff1673ffffffffffffffffffffffffffffffffffffffff168152602001908152602001600020549050919050565b610b856110ce565b73ffffffffffffffffffffffffffffffffffffffff16610ba3610c8b565b73ffffffffffffffffffffffffffffffffffffffff1614610bf9576040517f08c379a0000000000000000000000000000000000000000000000000000000008152600401610bf090612b5d565b60405180910390fd5b610c0360006116d5565b565b610c0d6110ce565b73ffffffffffffffffffffffffffffffffffffffff16610c2b610c8b565b73ffffffffffffffffffffffffffffffffffffffff1614610c81576040517f08c379a0000000000000000000000000000000000000000000000000000000008152600401610c7890612b5d565b60405180910390fd5b610c8961179b565b565b6000600660019054906101000a900473ffffffffffffffffffffffffffffffffffffffff16905090565b606060018054610cc490612e53565b80601f0160208091040260200160405190810160405280929190818152602001828054610cf090612e53565b8015610d3d5780601f10610d1257610100808354040283529160200191610d3d565b820191906000526020600020905b815481529060010190602001808311610d2057829003601f168201915b5050505050905090565b610d59610d526110ce565b838361183e565b5050565b600a5481565b610d74610d6e6110ce565b8361118f565b610db3576040517f08c379a0000000000000000000000000000000000000000000000000000000008152600401610daa90612bbd565b60405180910390fd5b610dbf848484846119ab565b50505050565b6060610dd082611062565b610e0f576040517f08c379a0000000000000000000000000000000000000000000000000000000008152600401610e0690612b7d565b60405180910390fd5b6000610e19611a07565b90506000815111610e395760405180602001604052806000815250610e64565b80610e4384611a99565b604051602001610e54929190612895565b6040516020818303038152906040525b915050919050565b6000600560008473ffffffffffffffffffffffffffffffffffffffff1673ffffffffffffffffffffffffffffffffffffffff16815260200190815260200160002060008373ffffffffffffffffffffffffffffffffffffffff1673ffffffffffffffffffffffffffffffffffffffff16815260200190815260200160002060009054906101000a900460ff16905092915050565b610f086110ce565b73ffffffffffffffffffffffffffffffffffffffff16610f26610c8b565b73ffffffffffffffffffffffffffffffffffffffff1614610f7c576040517f08c379a0000000000000000000000000000000000000000000000000000000008152600401610f7390612b5d565b60405180910390fd5b600073ffffffffffffffffffffffffffffffffffffffff168173ffffffffffffffffffffffffffffffffffffffff161415610fec576040517f08c379a0000000000000000000000000000000000000000000000000000000008152600401610fe3906129bd565b60405180910390fd5b610ff5816116d5565b50565b60007f01ffc9a7000000000000000000000000000000000000000000000000000000007bffffffffffffffffffffffffffffffffffffffffffffffffffffffff1916827bffffffffffffffffffffffffffffffffffffffffffffffffffffffff1916149050919050565b60008073ffffffffffffffffffffffffffffffffffffffff166002600084815260200190815260200160002060009054906101000a900473ffffffffffffffffffffffffffffffffffffffff1673ffffffffffffffffffffffffffffffffffffffff1614159050919050565b600033905090565b816004600083815260200190815260200160002060006101000a81548173ffffffffffffffffffffffffffffffffffffffff021916908373ffffffffffffffffffffffffffffffffffffffff160217905550808273ffffffffffffffffffffffffffffffffffffffff1661114983610985565b73ffffffffffffffffffffffffffffffffffffffff167f8c5be1e5ebec7d5bd14f71427d1e84f3dd0314c0f7b2291e5b200ac8c7c3b92560405160405180910390a45050565b600061119a82611062565b6111d9576040517f08c379a00000000000000000000000000000000000000000000000000000000081526004016111d090612a5d565b60405180910390fd5b60006111e483610985565b90508073ffffffffffffffffffffffffffffffffffffffff168473ffffffffffffffffffffffffffffffffffffffff16148061125357508373ffffffffffffffffffffffffffffffffffffffff1661123b846105d3565b73ffffffffffffffffffffffffffffffffffffffff16145b8061126457506112638185610e6c565b5b91505092915050565b8273ffffffffffffffffffffffffffffffffffffffff1661128d82610985565b73ffffffffffffffffffffffffffffffffffffffff16146112e3576040517f08c379a00000000000000000000000000000000000000000000000000000000081526004016112da906129dd565b60405180910390fd5b600073ffffffffffffffffffffffffffffffffffffffff168273ffffffffffffffffffffffffffffffffffffffff161415611353576040517f08c379a000000000000000000000000000000000000000000000000000000000815260040161134a90612a1d565b60405180910390fd5b61135e838383611c46565b6113696000826110d6565b6001600360008573ffffffffffffffffffffffffffffffffffffffff1673ffffffffffffffffffffffffffffffffffffffff16815260200190815260200160002060008282546113b99190612d69565b925050819055506001600360008473ffffffffffffffffffffffffffffffffffffffff1673ffffffffffffffffffffffffffffffffffffffff16815260200190815260200160002060008282546114109190612ce2565b92505081905550816002600083815260200190815260200160002060006101000a81548173ffffffffffffffffffffffffffffffffffffffff021916908373ffffffffffffffffffffffffffffffffffffffff160217905550808273ffffffffffffffffffffffffffffffffffffffff168473ffffffffffffffffffffffffffffffffffffffff167fddf252ad1be2c89b69c2b068fc378daa952ba7f163c4a11628f55a4df523b3ef60405160405180910390a46114cf838383611c56565b505050565b6114dc61096e565b61151b576040517f08c379a00000000000000000000000000000000000000000000000000000000081526004016115129061297d565b60405180910390fd5b6000600660006101000a81548160ff0219169083151502179055507f5db9ee0a495bf2e6ff9c91a7834c1ba4fdd244a5e8aa4e537bd38aeae4b073aa61155f6110ce565b60405161156c91906128b9565b60405180910390a1565b600061158182610985565b905061158f81600084611c46565b61159a6000836110d6565b6001600360008373ffffffffffffffffffffffffffffffffffffffff1673ffffffffffffffffffffffffffffffffffffffff16815260200190815260200160002060008282546115ea9190612d69565b925050819055506002600083815260200190815260200160002060006101000a81549073ffffffffffffffffffffffffffffffffffffffff021916905581600073ffffffffffffffffffffffffffffffffffffffff168273ffffffffffffffffffffffffffffffffffffffff167fddf252ad1be2c89b69c2b068fc378daa952ba7f163c4a11628f55a4df523b3ef60405160405180910390a461168f81600084611c56565b5050565b6001816000016000828254019250508190555050565b600081600001549050919050565b6116d1828260405180602001604052806000815250611c5b565b5050565b6000600660019054906101000a900473ffffffffffffffffffffffffffffffffffffffff16905081600660016101000a81548173ffffffffffffffffffffffffffffffffffffffff021916908373ffffffffffffffffffffffffffffffffffffffff1602179055508173ffffffffffffffffffffffffffffffffffffffff168173ffffffffffffffffffffffffffffffffffffffff167f8be0079c531659141344cd1fd0a4f28419497f9722a3daafe3b4186f6b6457e060405160405180910390a35050565b6117a361096e565b156117e3576040517f08c379a00000000000000000000000000000000000000000000000000000000081526004016117da90612a9d565b60405180910390fd5b6001600660006101000a81548160ff0219169083151502179055507f62e78cea01bee320cd4e420270b5ea74000d11b0c9f74754ebdbfc544b05a2586118276110ce565b60405161183491906128b9565b60405180910390a1565b8173ffffffffffffffffffffffffffffffffffffffff168373ffffffffffffffffffffffffffffffffffffffff1614156118ad576040517f08c379a00000000000000000000000000000000000000000000000000000000081526004016118a490612a3d565b60405180910390fd5b80600560008573ffffffffffffffffffffffffffffffffffffffff1673ffffffffffffffffffffffffffffffffffffffff16815260200190815260200160002060008473ffffffffffffffffffffffffffffffffffffffff1673ffffffffffffffffffffffffffffffffffffffff16815260200190815260200160002060006101000a81548160ff0219169083151502179055508173ffffffffffffffffffffffffffffffffffffffff168373ffffffffffffffffffffffffffffffffffffffff167f17307eab39ab6107e8899845ad3d59bd9653f200f220920489ca2b5937696c318360405161199e9190612920565b60405180910390a3505050565b6119b684848461126d565b6119c284848484611cb6565b611a01576040517f08c379a00000000000000000000000000000000000000000000000000000000081526004016119f89061299d565b60405180910390fd5b50505050565b606060088054611a1690612e53565b80601f0160208091040260200160405190810160405280929190818152602001828054611a4290612e53565b8015611a8f5780601f10611a6457610100808354040283529160200191611a8f565b820191906000526020600020905b815481529060010190602001808311611a7257829003601f168201915b5050505050905090565b60606000821415611ae1576040518060400160405280600181526020017f30000000000000000000000000000000000000000000000000000000000000008152509050611c41565b600082905060005b60008214611b13578080611afc90612eb6565b915050600a82611b0c9190612d38565b9150611ae9565b60008167ffffffffffffffff811115611b55577f4e487b7100000000000000000000000000000000000000000000000000000000600052604160045260246000fd5b6040519080825280601f01601f191660200182016040528015611b875781602001600182028036833780820191505090505b5090505b60008514611c3a57600182611ba09190612d69565b9150600a85611baf9190612eff565b6030611bbb9190612ce2565b60f81b818381518110611bf7577f4e487b7100000000000000000000000000000000000000000000000000000000600052603260045260246000fd5b60200101907effffffffffffffffffffffffffffffffffffffffffffffffffffffffffffff1916908160001a905350600a85611c339190612d38565b9450611b8b565b8093505050505b919050565b611c51838383611e4d565b505050565b505050565b611c658383611ea5565b611c726000848484611cb6565b611cb1576040517f08c379a0000000000000000000000000000000000000000000000000000000008152600401611ca89061299d565b60405180910390fd5b505050565b6000611cd78473ffffffffffffffffffffffffffffffffffffffff1661207f565b15611e40578373ffffffffffffffffffffffffffffffffffffffff1663150b7a02611d006110ce565b8786866040518563ffffffff1660e01b8152600401611d2294939291906128d4565b602060405180830381600087803b158015611d3c57600080fd5b505af1925050508015611d6d57506040513d601f19601f82011682018060405250810190611d6a9190612453565b60015b611df0573d8060008114611d9d576040519150601f19603f3d011682016040523d82523d6000602084013e611da2565b606091505b50600081511415611de8576040517f08c379a0000000000000000000000000000000000000000000000000000000008152600401611ddf9061299d565b60405180910390fd5b805181602001fd5b63150b7a0260e01b7bffffffffffffffffffffffffffffffffffffffffffffffffffffffff1916817bffffffffffffffffffffffffffffffffffffffffffffffffffffffff191614915050611e45565b600190505b949350505050565b611e588383836120a2565b611e6061096e565b15611ea0576040517f08c379a0000000000000000000000000000000000000000000000000000000008152600401611e979061295d565b60405180910390fd5b505050565b600073ffffffffffffffffffffffffffffffffffffffff168273ffffffffffffffffffffffffffffffffffffffff161415611f15576040517f08c379a0000000000000000000000000000000000000000000000000000000008152600401611f0c90612b1d565b60405180910390fd5b611f1e81611062565b15611f5e576040517f08c379a0000000000000000000000000000000000000000000000000000000008152600401611f55906129fd565b60405180910390fd5b611f6a60008383611c46565b6001600360008473ffffffffffffffffffffffffffffffffffffffff1673ffffffffffffffffffffffffffffffffffffffff1681526020019081526020016000206000828254611fba9190612ce2565b92505081905550816002600083815260200190815260200160002060006101000a81548173ffffffffffffffffffffffffffffffffffffffff021916908373ffffffffffffffffffffffffffffffffffffffff160217905550808273ffffffffffffffffffffffffffffffffffffffff16600073ffffffffffffffffffffffffffffffffffffffff167fddf252ad1be2c89b69c2b068fc378daa952ba7f163c4a11628f55a4df523b3ef60405160405180910390a461207b60008383611c56565b5050565b6000808273ffffffffffffffffffffffffffffffffffffffff163b119050919050565b505050565b8280546120b390612e53565b90600052602060002090601f0160209004810192826120d5576000855561211c565b82601f106120ee57805160ff191683800117855561211c565b8280016001018555821561211c579182015b8281111561211b578251825591602001919060010190612100565b5b509050612129919061212d565b5090565b5b8082111561214657600081600090555060010161212e565b5090565b600061215d61215884612c3d565b612c18565b90508281526020810184848401111561217557600080fd5b612180848285612e11565b509392505050565b600061219b61219684612c6e565b612c18565b9050828152602081018484840111156121b357600080fd5b6121be848285612e11565b509392505050565b6000813590506121d581613594565b92915050565b6000813590506121ea816135ab565b92915050565b6000813590506121ff816135c2565b92915050565b600081519050612214816135c2565b92915050565b600082601f83011261222b57600080fd5b813561223b84826020860161214a565b91505092915050565b600082601f83011261225557600080fd5b8135612265848260208601612188565b91505092915050565b60008135905061227d816135d9565b92915050565b60006020828403121561229557600080fd5b60006122a3848285016121c6565b91505092915050565b600080604083850312156122bf57600080fd5b60006122cd858286016121c6565b92505060206122de858286016121c6565b9150509250929050565b6000806000606084860312156122fd57600080fd5b600061230b868287016121c6565b935050602061231c868287016121c6565b925050604061232d8682870161226e565b9150509250925092565b6000806000806080858703121561234d57600080fd5b600061235b878288016121c6565b945050602061236c878288016121c6565b935050604061237d8782880161226e565b925050606085013567ffffffffffffffff81111561239a57600080fd5b6123a68782880161221a565b91505092959194509250565b600080604083850312156123c557600080fd5b60006123d3858286016121c6565b92505060206123e4858286016121db565b9150509250929050565b6000806040838503121561240157600080fd5b600061240f858286016121c6565b92505060206124208582860161226e565b9150509250929050565b60006020828403121561243c57600080fd5b600061244a848285016121f0565b91505092915050565b60006020828403121561246557600080fd5b600061247384828501612205565b91505092915050565b60006020828403121561248e57600080fd5b600082013567ffffffffffffffff8111156124a857600080fd5b6124b484828501612244565b91505092915050565b6000602082840312156124cf57600080fd5b60006124dd8482850161226e565b91505092915050565b6124ef81612d9d565b82525050565b6124fe81612daf565b82525050565b600061250f82612c9f565b6125198185612cb5565b9350612529818560208601612e20565b61253281612fec565b840191505092915050565b600061254882612caa565b6125528185612cc6565b9350612562818560208601612e20565b61256b81612fec565b840191505092915050565b600061258182612caa565b61258b8185612cd7565b935061259b818560208601612e20565b80840191505092915050565b60006125b4602b83612cc6565b91506125bf82612ffd565b604082019050919050565b60006125d7601483612cc6565b91506125e28261304c565b602082019050919050565b60006125fa603283612cc6565b915061260582613075565b604082019050919050565b600061261d602683612cc6565b9150612628826130c4565b604082019050919050565b6000612640602583612cc6565b915061264b82613113565b604082019050919050565b6000612663601c83612cc6565b915061266e82613162565b602082019050919050565b6000612686602483612cc6565b91506126918261318b565b604082019050919050565b60006126a9601983612cc6565b91506126b4826131da565b602082019050919050565b60006126cc602c83612cc6565b91506126d782613203565b604082019050919050565b60006126ef602f83612cc6565b91506126fa82613252565b604082019050919050565b6000612712601083612cc6565b915061271d826132a1565b602082019050919050565b6000612735603883612cc6565b9150612740826132ca565b604082019050919050565b6000612758602a83612cc6565b915061276382613319565b604082019050919050565b600061277b602983612cc6565b915061278682613368565b604082019050919050565b600061279e602083612cc6565b91506127a9826133b7565b602082019050919050565b60006127c1602c83612cc6565b91506127cc826133e0565b604082019050919050565b60006127e4602083612cc6565b91506127ef8261342f565b602082019050919050565b6000612807602f83612cc6565b915061281282613458565b604082019050919050565b600061282a602183612cc6565b9150612835826134a7565b604082019050919050565b600061284d603183612cc6565b9150612858826134f6565b604082019050919050565b6000612870603083612cc6565b915061287b82613545565b604082019050919050565b61288f81612e07565b82525050565b60006128a18285612576565b91506128ad8284612576565b91508190509392505050565b60006020820190506128ce60008301846124e6565b92915050565b60006080820190506128e960008301876124e6565b6128f660208301866124e6565b6129036040830185612886565b81810360608301526129158184612504565b905095945050505050565b600060208201905061293560008301846124f5565b92915050565b60006020820190508181036000830152612955818461253d565b905092915050565b60006020820190508181036000830152612976816125a7565b9050919050565b60006020820190508181036000830152612996816125ca565b9050919050565b600060208201905081810360008301526129b6816125ed565b9050919050565b600060208201905081810360008301526129d681612610565b9050919050565b600060208201905081810360008301526129f681612633565b9050919050565b60006020820190508181036000830152612a1681612656565b9050919050565b60006020820190508181036000830152612a3681612679565b9050919050565b60006020820190508181036000830152612a568161269c565b9050919050565b60006020820190508181036000830152612a76816126bf565b9050919050565b60006020820190508181036000830152612a96816126e2565b9050919050565b60006020820190508181036000830152612ab681612705565b9050919050565b60006020820190508181036000830152612ad681612728565b9050919050565b60006020820190508181036000830152612af68161274b565b9050919050565b60006020820190508181036000830152612b168161276e565b9050919050565b60006020820190508181036000830152612b3681612791565b9050919050565b60006020820190508181036000830152612b56816127b4565b9050919050565b60006020820190508181036000830152612b76816127d7565b9050919050565b60006020820190508181036000830152612b96816127fa565b9050919050565b60006020820190508181036000830152612bb68161281d565b9050919050565b60006020820190508181036000830152612bd681612840565b9050919050565b60006020820190508181036000830152612bf681612863565b9050919050565b6000602082019050612c126000830184612886565b92915050565b6000612c22612c33565b9050612c2e8282612e85565b919050565b6000604051905090565b600067ffffffffffffffff821115612c5857612c57612fbd565b5b612c6182612fec565b9050602081019050919050565b600067ffffffffffffffff821115612c8957612c88612fbd565b5b612c9282612fec565b9050602081019050919050565b600081519050919050565b600081519050919050565b600082825260208201905092915050565b600082825260208201905092915050565b600081905092915050565b6000612ced82612e07565b9150612cf883612e07565b9250827fffffffffffffffffffffffffffffffffffffffffffffffffffffffffffffffff03821115612d2d57612d2c612f30565b5b828201905092915050565b6000612d4382612e07565b9150612d4e83612e07565b925082612d5e57612d5d612f5f565b5b828204905092915050565b6000612d7482612e07565b9150612d7f83612e07565b925082821015612d9257612d91612f30565b5b828203905092915050565b6000612da882612de7565b9050919050565b60008115159050919050565b60007fffffffff0000000000000000000000000000000000000000000000000000000082169050919050565b600073ffffffffffffffffffffffffffffffffffffffff82169050919050565b6000819050919050565b82818337600083830152505050565b60005b83811015612e3e578082015181840152602081019050612e23565b83811115612e4d576000848401525b50505050565b60006002820490506001821680612e6b57607f821691505b60208210811415612e7f57612e7e612f8e565b5b50919050565b612e8e82612fec565b810181811067ffffffffffffffff82111715612ead57612eac612fbd565b5b80604052505050565b6000612ec182612e07565b91507fffffffffffffffffffffffffffffffffffffffffffffffffffffffffffffffff821415612ef457612ef3612f30565b5b600182019050919050565b6000612f0a82612e07565b9150612f1583612e07565b925082612f2557612f24612f5f565b5b828206905092915050565b7f4e487b7100000000000000000000000000000000000000000000000000000000600052601160045260246000fd5b7f4e487b7100000000000000000000000000000000000000000000000000000000600052601260045260246000fd5b7f4e487b7100000000000000000000000000000000000000000000000000000000600052602260045260246000fd5b7f4e487b7100000000000000000000000000000000000000000000000000000000600052604160045260246000fd5b6000601f19601f8301169050919050565b7f4552433732315061757361626c653a20746f6b656e207472616e73666572207760008201527f68696c6520706175736564000000000000000000000000000000000000000000602082015250565b7f5061757361626c653a206e6f7420706175736564000000000000000000000000600082015250565b7f4552433732313a207472616e7366657220746f206e6f6e20455243373231526560008201527f63656976657220696d706c656d656e7465720000000000000000000000000000602082015250565b7f4f776e61626c653a206e6577206f776e657220697320746865207a65726f206160008201527f6464726573730000000000000000000000000000000000000000000000000000602082015250565b7f4552433732313a207472616e736665722066726f6d20696e636f72726563742060008201527f6f776e6572000000000000000000000000000000000000000000000000000000602082015250565b7f4552433732313a20746f6b656e20616c7265616479206d696e74656400000000600082015250565b7f4552433732313a207472616e7366657220746f20746865207a65726f2061646460008201527f7265737300000000000000000000000000000000000000000000000000000000602082015250565b7f4552433732313a20617070726f766520746f2063616c6c657200000000000000600082015250565b7f4552433732313a206f70657261746f7220717565727920666f72206e6f6e657860008201527f697374656e7420746f6b656e0000000000000000000000000000000000000000602082015250565b7f546f74616c20737570706c792065786365656465642c206e6f206d6f7265206160008201527f7661696c61626c6520746f6b656e730000000000000000000000000000000000602082015250565b7f5061757361626c653a2070617573656400000000000000000000000000000000600082015250565b7f4552433732313a20617070726f76652063616c6c6572206973206e6f74206f7760008201527f6e6572206e6f7220617070726f76656420666f7220616c6c0000000000000000602082015250565b7f4552433732313a2062616c616e636520717565727920666f7220746865207a6560008201527f726f206164647265737300000000000000000000000000000000000000000000602082015250565b7f4552433732313a206f776e657220717565727920666f72206e6f6e657869737460008201527f656e7420746f6b656e0000000000000000000000000000000000000000000000602082015250565b7f4552433732313a206d696e7420746f20746865207a65726f2061646472657373600082015250565b7f4552433732313a20617070726f76656420717565727920666f72206e6f6e657860008201527f697374656e7420746f6b656e0000000000000000000000000000000000000000602082015250565b7f4f776e61626c653a2063616c6c6572206973206e6f7420746865206f776e6572600082015250565b7f4552433732314d657461646174613a2055524920717565727920666f72206e6f60008201527f6e6578697374656e7420746f6b656e0000000000000000000000000000000000602082015250565b7f4552433732313a20617070726f76616c20746f2063757272656e74206f776e6560008201527f7200000000000000000000000000000000000000000000000000000000000000602082015250565b7f4552433732313a207472616e736665722063616c6c6572206973206e6f74206f60008201527f776e6572206e6f7220617070726f766564000000000000000000000000000000602082015250565b7f4552433732314275726e61626c653a2063616c6c6572206973206e6f74206f7760008201527f6e6572206e6f7220617070726f76656400000000000000000000000000000000602082015250565b61359d81612d9d565b81146135a857600080fd5b50565b6135b481612daf565b81146135bf57600080fd5b50565b6135cb81612dbb565b81146135d657600080fd5b50565b6135e281612e07565b81146135ed57600080fd5b5056fea26469706673582212203225e33716e6e95241ac4d3db552a18fbefe9c56535d249745ba0842b6d5c6cd64736f6c63430008010033",
  "linkReferences": {},
  "deployedLinkReferences": {}
}