{
  "_format": "hh-sol-artifact-1",
  "contractName": "SnakeNFT",
  "sourceName": "contracts/SnakeNFT.sol",
  "abi": [
    {
      "inputs": [
        {
          "internalType": "string",
          "name": "baseTokenURI",
          "type": "string"
        },
        {
          "internalType": "uint256",
          "name": "totalSupply",
          "type": "uint256"
        }
      ],
      "stateMutability": "nonpayable",
      "type": "constructor"
    },
    {
      "anonymous": false,
      "inputs": [
        {
          "indexed": true,
          "internalType": "address",
          "name": "owner",
          "type": "address"
        },
        {
          "indexed": true,
          "internalType": "address",
          "name": "approved",
          "type": "address"
        },
        {
          "indexed": true,
          "internalType": "uint256",
          "name": "tokenId",
          "type": "uint256"
        }
      ],
      "name": "Approval",
      "type": "event"
    },
    {
      "anonymous": false,
      "inputs": [
        {
          "indexed": true,
          "internalType": "address",
          "name": "owner",
          "type": "address"
        },
        {
          "indexed": true,
          "internalType": "address",
          "name": "operator",
          "type": "address"
        },
        {
          "indexed": false,
          "internalType": "bool",
          "name": "approved",
          "type": "bool"
        }
      ],
      "name": "ApprovalForAll",
      "type": "event"
    },
    {
      "anonymous": false,
      "inputs": [
        {
          "indexed": false,
          "internalType": "address",
          "name": "account",
          "type": "address"
        }
      ],
      "name": "Paused",
      "type": "event"
    },
    {
      "anonymous": false,
      "inputs": [
        {
          "indexed": true,
          "internalType": "bytes32",
          "name": "role",
          "type": "bytes32"
        },
        {
          "indexed": true,
          "internalType": "bytes32",
          "name": "previousAdminRole",
          "type": "bytes32"
        },
        {
          "indexed": true,
          "internalType": "bytes32",
          "name": "newAdminRole",
          "type": "bytes32"
        }
      ],
      "name": "RoleAdminChanged",
      "type": "event"
    },
    {
      "anonymous": false,
      "inputs": [
        {
          "indexed": true,
          "internalType": "bytes32",
          "name": "role",
          "type": "bytes32"
        },
        {
          "indexed": true,
          "internalType": "address",
          "name": "account",
          "type": "address"
        },
        {
          "indexed": true,
          "internalType": "address",
          "name": "sender",
          "type": "address"
        }
      ],
      "name": "RoleGranted",
      "type": "event"
    },
    {
      "anonymous": false,
      "inputs": [
        {
          "indexed": true,
          "internalType": "bytes32",
          "name": "role",
          "type": "bytes32"
        },
        {
          "indexed": true,
          "internalType": "address",
          "name": "account",
          "type": "address"
        },
        {
          "indexed": true,
          "internalType": "address",
          "name": "sender",
          "type": "address"
        }
      ],
      "name": "RoleRevoked",
      "type": "event"
    },
    {
      "anonymous": false,
      "inputs": [
        {
          "indexed": true,
          "internalType": "address",
          "name": "from",
          "type": "address"
        },
        {
          "indexed": true,
          "internalType": "address",
          "name": "to",
          "type": "address"
        },
        {
          "indexed": true,
          "internalType": "uint256",
          "name": "tokenId",
          "type": "uint256"
        }
      ],
      "name": "Transfer",
      "type": "event"
    },
    {
      "anonymous": false,
      "inputs": [
        {
          "indexed": false,
          "internalType": "address",
          "name": "account",
          "type": "address"
        }
      ],
      "name": "Unpaused",
      "type": "event"
    },
    {
      "inputs": [],
      "name": "DEFAULT_ADMIN_ROLE",
      "outputs": [
        {
          "internalType": "bytes32",
          "name": "",
          "type": "bytes32"
        }
      ],
      "stateMutability": "view",
      "type": "function"
    },
    {
      "inputs": [],
      "name": "PAUSER_ROLE",
      "outputs": [
        {
          "internalType": "bytes32",
          "name": "",
          "type": "bytes32"
        }
      ],
      "stateMutability": "view",
      "type": "function"
    },
    {
      "inputs": [],
      "name": "_totalMinted",
      "outputs": [
        {
          "internalType": "uint256",
          "name": "",
          "type": "uint256"
        }
      ],
      "stateMutability": "view",
      "type": "function"
    },
    {
      "inputs": [],
      "name": "_totalSupply",
      "outputs": [
        {
          "internalType": "uint256",
          "name": "",
          "type": "uint256"
        }
      ],
      "stateMutability": "view",
      "type": "function"
    },
    {
      "inputs": [
        {
          "internalType": "address",
          "name": "to",
          "type": "address"
        },
        {
          "internalType": "uint256",
          "name": "tokenId",
          "type": "uint256"
        }
      ],
      "name": "approve",
      "outputs": [],
      "stateMutability": "nonpayable",
      "type": "function"
    },
    {
      "inputs": [
        {
          "internalType": "address",
          "name": "owner",
          "type": "address"
        }
      ],
      "name": "balanceOf",
      "outputs": [
        {
          "internalType": "uint256",
          "name": "",
          "type": "uint256"
        }
      ],
      "stateMutability": "view",
      "type": "function"
    },
    {
      "inputs": [
        {
          "internalType": "uint256",
          "name": "tokenId",
          "type": "uint256"
        }
      ],
      "name": "burn",
      "outputs": [],
      "stateMutability": "nonpayable",
      "type": "function"
    },
    {
      "inputs": [
        {
          "internalType": "uint256",
          "name": "tokenId",
          "type": "uint256"
        }
      ],
      "name": "getApproved",
      "outputs": [
        {
          "internalType": "address",
          "name": "",
          "type": "address"
        }
      ],
      "stateMutability": "view",
      "type": "function"
    },
    {
      "inputs": [
        {
          "internalType": "bytes32",
          "name": "role",
          "type": "bytes32"
        }
      ],
      "name": "getRoleAdmin",
      "outputs": [
        {
          "internalType": "bytes32",
          "name": "",
          "type": "bytes32"
        }
      ],
      "stateMutability": "view",
      "type": "function"
    },
    {
      "inputs": [
        {
          "internalType": "bytes32",
          "name": "role",
          "type": "bytes32"
        },
        {
          "internalType": "uint256",
          "name": "index",
          "type": "uint256"
        }
      ],
      "name": "getRoleMember",
      "outputs": [
        {
          "internalType": "address",
          "name": "",
          "type": "address"
        }
      ],
      "stateMutability": "view",
      "type": "function"
    },
    {
      "inputs": [
        {
          "internalType": "bytes32",
          "name": "role",
          "type": "bytes32"
        }
      ],
      "name": "getRoleMemberCount",
      "outputs": [
        {
          "internalType": "uint256",
          "name": "",
          "type": "uint256"
        }
      ],
      "stateMutability": "view",
      "type": "function"
    },
    {
      "inputs": [
        {
          "internalType": "bytes32",
          "name": "role",
          "type": "bytes32"
        },
        {
          "internalType": "address",
          "name": "account",
          "type": "address"
        }
      ],
      "name": "grantRole",
      "outputs": [],
      "stateMutability": "nonpayable",
      "type": "function"
    },
    {
      "inputs": [
        {
          "internalType": "bytes32",
          "name": "role",
          "type": "bytes32"
        },
        {
          "internalType": "address",
          "name": "account",
          "type": "address"
        }
      ],
      "name": "hasRole",
      "outputs": [
        {
          "internalType": "bool",
          "name": "",
          "type": "bool"
        }
      ],
      "stateMutability": "view",
      "type": "function"
    },
    {
      "inputs": [
        {
          "internalType": "address",
          "name": "owner",
          "type": "address"
        },
        {
          "internalType": "address",
          "name": "operator",
          "type": "address"
        }
      ],
      "name": "isApprovedForAll",
      "outputs": [
        {
          "internalType": "bool",
          "name": "",
          "type": "bool"
        }
      ],
      "stateMutability": "view",
      "type": "function"
    },
    {
      "inputs": [
        {
          "internalType": "address",
          "name": "to",
          "type": "address"
        }
      ],
      "name": "mint",
      "outputs": [
        {
          "internalType": "uint256",
          "name": "",
          "type": "uint256"
        }
      ],
      "stateMutability": "nonpayable",
      "type": "function"
    },
    {
      "inputs": [],
      "name": "name",
      "outputs": [
        {
          "internalType": "string",
          "name": "",
          "type": "string"
        }
      ],
      "stateMutability": "view",
      "type": "function"
    },
    {
      "inputs": [
        {
          "internalType": "uint256",
          "name": "tokenId",
          "type": "uint256"
        }
      ],
      "name": "ownerOf",
      "outputs": [
        {
          "internalType": "address",
          "name": "",
          "type": "address"
        }
      ],
      "stateMutability": "view",
      "type": "function"
    },
    {
      "inputs": [],
      "name": "pause",
      "outputs": [],
      "stateMutability": "nonpayable",
      "type": "function"
    },
    {
      "inputs": [],
      "name": "paused",
      "outputs": [
        {
          "internalType": "bool",
          "name": "",
          "type": "bool"
        }
      ],
      "stateMutability": "view",
      "type": "function"
    },
    {
      "inputs": [
        {
          "internalType": "bytes32",
          "name": "role",
          "type": "bytes32"
        },
        {
          "internalType": "address",
          "name": "account",
          "type": "address"
        }
      ],
      "name": "renounceRole",
      "outputs": [],
      "stateMutability": "nonpayable",
      "type": "function"
    },
    {
      "inputs": [
        {
          "internalType": "bytes32",
          "name": "role",
          "type": "bytes32"
        },
        {
          "internalType": "address",
          "name": "account",
          "type": "address"
        }
      ],
      "name": "revokeRole",
      "outputs": [],
      "stateMutability": "nonpayable",
      "type": "function"
    },
    {
      "inputs": [
        {
          "internalType": "address",
          "name": "from",
          "type": "address"
        },
        {
          "internalType": "address",
          "name": "to",
          "type": "address"
        },
        {
          "internalType": "uint256",
          "name": "tokenId",
          "type": "uint256"
        }
      ],
      "name": "safeTransferFrom",
      "outputs": [],
      "stateMutability": "nonpayable",
      "type": "function"
    },
    {
      "inputs": [
        {
          "internalType": "address",
          "name": "from",
          "type": "address"
        },
        {
          "internalType": "address",
          "name": "to",
          "type": "address"
        },
        {
          "internalType": "uint256",
          "name": "tokenId",
          "type": "uint256"
        },
        {
          "internalType": "bytes",
          "name": "_data",
          "type": "bytes"
        }
      ],
      "name": "safeTransferFrom",
      "outputs": [],
      "stateMutability": "nonpayable",
      "type": "function"
    },
    {
      "inputs": [
        {
          "internalType": "address",
          "name": "operator",
          "type": "address"
        },
        {
          "internalType": "bool",
          "name": "approved",
          "type": "bool"
        }
      ],
      "name": "setApprovalForAll",
      "outputs": [],
      "stateMutability": "nonpayable",
      "type": "function"
    },
    {
      "inputs": [
        {
          "internalType": "string",
          "name": "baseTokenURI",
          "type": "string"
        }
      ],
      "name": "setBaseTokenURI",
      "outputs": [],
      "stateMutability": "nonpayable",
      "type": "function"
    },
    {
      "inputs": [
        {
          "internalType": "bytes4",
          "name": "interfaceId",
          "type": "bytes4"
        }
      ],
      "name": "supportsInterface",
      "outputs": [
        {
          "internalType": "bool",
          "name": "",
          "type": "bool"
        }
      ],
      "stateMutability": "view",
      "type": "function"
    },
    {
      "inputs": [],
      "name": "symbol",
      "outputs": [
        {
          "internalType": "string",
          "name": "",
          "type": "string"
        }
      ],
      "stateMutability": "view",
      "type": "function"
    },
    {
      "inputs": [
        {
          "internalType": "uint256",
          "name": "index",
          "type": "uint256"
        }
      ],
      "name": "tokenByIndex",
      "outputs": [
        {
          "internalType": "uint256",
          "name": "",
          "type": "uint256"
        }
      ],
      "stateMutability": "view",
      "type": "function"
    },
    {
      "inputs": [
        {
          "internalType": "address",
          "name": "owner",
          "type": "address"
        },
        {
          "internalType": "uint256",
          "name": "index",
          "type": "uint256"
        }
      ],
      "name": "tokenOfOwnerByIndex",
      "outputs": [
        {
          "internalType": "uint256",
          "name": "",
          "type": "uint256"
        }
      ],
      "stateMutability": "view",
      "type": "function"
    },
    {
      "inputs": [
        {
          "internalType": "uint256",
          "name": "tokenId",
          "type": "uint256"
        }
      ],
      "name": "tokenURI",
      "outputs": [
        {
          "internalType": "string",
          "name": "",
          "type": "string"
        }
      ],
      "stateMutability": "view",
      "type": "function"
    },
    {
      "inputs": [],
      "name": "totalSupply",
      "outputs": [
        {
          "internalType": "uint256",
          "name": "",
          "type": "uint256"
        }
      ],
      "stateMutability": "view",
      "type": "function"
    },
    {
      "inputs": [
        {
          "internalType": "address",
          "name": "from",
          "type": "address"
        },
        {
          "internalType": "address",
          "name": "to",
          "type": "address"
        },
        {
          "internalType": "uint256",
          "name": "tokenId",
          "type": "uint256"
        }
      ],
      "name": "transferFrom",
      "outputs": [],
      "stateMutability": "nonpayable",
      "type": "function"
    },
    {
      "inputs": [],
      "name": "unpause",
      "outputs": [],
      "stateMutability": "nonpayable",
      "type": "function"
    }
  ],
  "bytecode": "0x608060405260006010553480156200001657600080fd5b50604051620053a6380380620053a683398181016040528101906200003c919062000553565b6040518060400160405280600881526020017f536e616b654e46540000000000000000000000000000000000000000000000008152506040518060400160405280600581526020017f534e414b450000000000000000000000000000000000000000000000000000008152508160029080519060200190620000c09291906200041a565b508060039080519060200190620000d99291906200041a565b5050506000600c60006101000a81548160ff02191690831515021790555081600e90805190602001906200010f9291906200041a565b5080600f819055506200013b6000801b6200012f6200018460201b60201c565b6200018c60201b60201c565b6200017c7f65d7a28e3265b37a6474929f336521b332c1681b933f6cb9f3376673440d862a620001706200018460201b60201c565b6200018c60201b60201c565b505062000741565b600033905090565b6200019e8282620001a260201b60201c565b5050565b620001b98282620001ea60201b6200128f1760201c565b620001e58160016000858152602001908152602001600020620002db60201b6200136f1790919060201c565b505050565b620001fc82826200031360201b60201c565b620002d757600160008084815260200190815260200160002060000160008373ffffffffffffffffffffffffffffffffffffffff1673ffffffffffffffffffffffffffffffffffffffff16815260200190815260200160002060006101000a81548160ff0219169083151502179055506200027c6200018460201b60201c565b73ffffffffffffffffffffffffffffffffffffffff168173ffffffffffffffffffffffffffffffffffffffff16837f2f8788117e7eff1d82e926ec794901d17c78024a50270940304540a733656f0d60405160405180910390a45b5050565b60006200030b836000018373ffffffffffffffffffffffffffffffffffffffff1660001b6200037d60201b60201c565b905092915050565b600080600084815260200190815260200160002060000160008373ffffffffffffffffffffffffffffffffffffffff1673ffffffffffffffffffffffffffffffffffffffff16815260200190815260200160002060009054906101000a900460ff16905092915050565b6000620003918383620003f760201b60201c565b620003ec578260000182908060018154018082558091505060019003906000526020600020016000909190919091505582600001805490508360010160008481526020019081526020016000208190555060019050620003f1565b600090505b92915050565b600080836001016000848152602001908152602001600020541415905092915050565b82805462000428906200064c565b90600052602060002090601f0160209004810192826200044c576000855562000498565b82601f106200046757805160ff191683800117855562000498565b8280016001018555821562000498579182015b82811115620004975782518255916020019190600101906200047a565b5b509050620004a79190620004ab565b5090565b5b80821115620004c6576000816000905550600101620004ac565b5090565b6000620004e1620004db84620005d6565b620005ad565b905082815260208101848484011115620004fa57600080fd5b6200050784828562000616565b509392505050565b600082601f8301126200052157600080fd5b815162000533848260208601620004ca565b91505092915050565b6000815190506200054d8162000727565b92915050565b600080604083850312156200056757600080fd5b600083015167ffffffffffffffff8111156200058257600080fd5b62000590858286016200050f565b9250506020620005a3858286016200053c565b9150509250929050565b6000620005b9620005cc565b9050620005c7828262000682565b919050565b6000604051905090565b600067ffffffffffffffff821115620005f457620005f3620006e7565b5b620005ff8262000716565b9050602081019050919050565b6000819050919050565b60005b838110156200063657808201518184015260208101905062000619565b8381111562000646576000848401525b50505050565b600060028204905060018216806200066557607f821691505b602082108114156200067c576200067b620006b8565b5b50919050565b6200068d8262000716565b810181811067ffffffffffffffff82111715620006af57620006ae620006e7565b5b80604052505050565b7f4e487b7100000000000000000000000000000000000000000000000000000000600052602260045260246000fd5b7f4e487b7100000000000000000000000000000000000000000000000000000000600052604160045260246000fd5b6000601f19601f8301169050919050565b62000732816200060c565b81146200073e57600080fd5b50565b614c5580620007516000396000f3fe608060405234801561001057600080fd5b50600436106101fb5760003560e01c80635c975abb1161011a57806395d89b41116100ad578063c87b56dd1161007c578063c87b56dd146105c2578063ca15c873146105f2578063d547741f14610622578063e63ab1e91461063e578063e985e9c51461065c576101fb565b806395d89b411461054e578063a217fddf1461056c578063a22cb4651461058a578063b88d4fde146105a6576101fb565b8063736bf591116100e9578063736bf591146104c65780638456cb59146104e45780639010d07c146104ee57806391d148541461051e576101fb565b80635c975abb146104185780636352211e146104365780636a6278421461046657806370a0823114610496576101fb565b80632f745c59116101925780633f4ba83a116101615780633f4ba83a146103a657806342842e0e146103b057806342966c68146103cc5780634f6ccce7146103e8576101fb565b80632f745c591461032057806330176e131461035057806336568abe1461036c5780633eaaf86b14610388576101fb565b806318160ddd116101ce57806318160ddd1461029a57806323b872dd146102b8578063248a9ca3146102d45780632f2ff15d14610304576101fb565b806301ffc9a71461020057806306fdde0314610230578063081812fc1461024e578063095ea7b31461027e575b600080fd5b61021a600480360381019061021591906135de565b61068c565b6040516102279190613c12565b60405180910390f35b61023861069e565b6040516102459190613c48565b60405180910390f35b61026860048036038101906102639190613671565b610730565b6040516102759190613bab565b60405180910390f35b61029860048036038101906102939190613501565b6107b5565b005b6102a26108cd565b6040516102af9190613faa565b60405180910390f35b6102d260048036038101906102cd91906133fb565b6108da565b005b6102ee60048036038101906102e9919061353d565b61093a565b6040516102fb9190613c2d565b60405180910390f35b61031e60048036038101906103199190613566565b610959565b005b61033a60048036038101906103359190613501565b610982565b6040516103479190613faa565b60405180910390f35b61036a60048036038101906103659190613630565b610a27565b005b61038660048036038101906103819190613566565b610a94565b005b610390610b17565b60405161039d9190613faa565b60405180910390f35b6103ae610b1d565b005b6103ca60048036038101906103c591906133fb565b610b97565b005b6103e660048036038101906103e19190613671565b610bb7565b005b61040260048036038101906103fd9190613671565b610c13565b60405161040f9190613faa565b60405180910390f35b610420610caa565b60405161042d9190613c12565b60405180910390f35b610450600480360381019061044b9190613671565b610cc1565b60405161045d9190613bab565b60405180910390f35b610480600480360381019061047b9190613396565b610d73565b60405161048d9190613faa565b60405180910390f35b6104b060048036038101906104ab9190613396565b610e01565b6040516104bd9190613faa565b60405180910390f35b6104ce610eb9565b6040516104db9190613faa565b60405180910390f35b6104ec610ebf565b005b610508600480360381019061050391906135a2565b610f39565b6040516105159190613bab565b60405180910390f35b61053860048036038101906105339190613566565b610f68565b6040516105459190613c12565b60405180910390f35b610556610fd2565b6040516105639190613c48565b60405180910390f35b610574611064565b6040516105819190613c2d565b60405180910390f35b6105a4600480360381019061059f91906134c5565b61106b565b005b6105c060048036038101906105bb919061344a565b611081565b005b6105dc60048036038101906105d79190613671565b6110e3565b6040516105e99190613c48565b60405180910390f35b61060c6004803603810190610607919061353d565b61118a565b6040516106199190613faa565b60405180910390f35b61063c60048036038101906106379190613566565b6111ae565b005b6106466111d7565b6040516106539190613c2d565b60405180910390f35b610676600480360381019061067191906133bf565b6111fb565b6040516106839190613c12565b60405180910390f35b60006106978261139f565b9050919050565b6060600280546106ad9061428e565b80601f01602080910402602001604051908101604052809291908181526020018280546106d99061428e565b80156107265780601f106106fb57610100808354040283529160200191610726565b820191906000526020600020905b81548152906001019060200180831161070957829003601f168201915b5050505050905090565b600061073b82611419565b61077a576040517f08c379a000000000000000000000000000000000000000000000000000000000815260040161077190613e8a565b60405180910390fd5b6006600083815260200190815260200160002060009054906101000a900473ffffffffffffffffffffffffffffffffffffffff169050919050565b60006107c082610cc1565b90508073ffffffffffffffffffffffffffffffffffffffff168373ffffffffffffffffffffffffffffffffffffffff161415610831576040517f08c379a000000000000000000000000000000000000000000000000000000000815260040161082890613eca565b60405180910390fd5b8073ffffffffffffffffffffffffffffffffffffffff16610850611485565b73ffffffffffffffffffffffffffffffffffffffff16148061087f575061087e81610879611485565b6111fb565b5b6108be576040517f08c379a00000000000000000000000000000000000000000000000000000000081526004016108b590613e0a565b60405180910390fd5b6108c8838361148d565b505050565b6000600a80549050905090565b6108eb6108e5611485565b82611546565b61092a576040517f08c379a000000000000000000000000000000000000000000000000000000000815260040161092190613eea565b60405180910390fd5b610935838383611624565b505050565b6000806000838152602001908152602001600020600101549050919050565b6109628261093a565b6109738161096e611485565b61188b565b61097d8383611928565b505050565b600061098d83610e01565b82106109ce576040517f08c379a00000000000000000000000000000000000000000000000000000000081526004016109c590613cca565b60405180910390fd5b600860008473ffffffffffffffffffffffffffffffffffffffff1673ffffffffffffffffffffffffffffffffffffffff168152602001908152602001600020600083815260200190815260200160002054905092915050565b610a3b6000801b610a36611485565b610f68565b610a7a576040517f08c379a0000000000000000000000000000000000000000000000000000000008152600401610a7190613f4a565b60405180910390fd5b80600e9080519060200190610a909291906131a5565b5050565b610a9c611485565b73ffffffffffffffffffffffffffffffffffffffff168173ffffffffffffffffffffffffffffffffffffffff1614610b09576040517f08c379a0000000000000000000000000000000000000000000000000000000008152600401610b0090613f8a565b60405180910390fd5b610b13828261195c565b5050565b600f5481565b610b4e7f65d7a28e3265b37a6474929f336521b332c1681b933f6cb9f3376673440d862a610b49611485565b610f68565b610b8d576040517f08c379a0000000000000000000000000000000000000000000000000000000008152600401610b8490613dca565b60405180910390fd5b610b95611990565b565b610bb283838360405180602001604052806000815250611081565b505050565b610bc8610bc2611485565b82611546565b610c07576040517f08c379a0000000000000000000000000000000000000000000000000000000008152600401610bfe90613f6a565b60405180910390fd5b610c1081611a32565b50565b6000610c1d6108cd565b8210610c5e576040517f08c379a0000000000000000000000000000000000000000000000000000000008152600401610c5590613f0a565b60405180910390fd5b600a8281548110610c98577f4e487b7100000000000000000000000000000000000000000000000000000000600052603260045260246000fd5b90600052602060002001549050919050565b6000600c60009054906101000a900460ff16905090565b6000806004600084815260200190815260200160002060009054906101000a900473ffffffffffffffffffffffffffffffffffffffff169050600073ffffffffffffffffffffffffffffffffffffffff168173ffffffffffffffffffffffffffffffffffffffff161415610d6a576040517f08c379a0000000000000000000000000000000000000000000000000000000008152600401610d6190613e4a565b60405180910390fd5b80915050919050565b6000600f5460105410610dbb576040517f08c379a0000000000000000000000000000000000000000000000000000000008152600401610db290613daa565b60405180910390fd5b610dc5600d611b4f565b610dd882610dd3600d611b65565b611b73565b60106000815480929190610deb906142f1565b9190505550610dfa600d611b65565b9050919050565b60008073ffffffffffffffffffffffffffffffffffffffff168273ffffffffffffffffffffffffffffffffffffffff161415610e72576040517f08c379a0000000000000000000000000000000000000000000000000000000008152600401610e6990613e2a565b60405180910390fd5b600560008373ffffffffffffffffffffffffffffffffffffffff1673ffffffffffffffffffffffffffffffffffffffff168152602001908152602001600020549050919050565b60105481565b610ef07f65d7a28e3265b37a6474929f336521b332c1681b933f6cb9f3376673440d862a610eeb611485565b610f68565b610f2f576040517f08c379a0000000000000000000000000000000000000000000000000000000008152600401610f2690613f2a565b60405180910390fd5b610f37611d4d565b565b6000610f608260016000868152602001908152602001600020611df090919063ffffffff16565b905092915050565b600080600084815260200190815260200160002060000160008373ffffffffffffffffffffffffffffffffffffffff1673ffffffffffffffffffffffffffffffffffffffff16815260200190815260200160002060009054906101000a900460ff16905092915050565b606060038054610fe19061428e565b80601f016020809104026020016040519081016040528092919081815260200182805461100d9061428e565b801561105a5780601f1061102f5761010080835404028352916020019161105a565b820191906000526020600020905b81548152906001019060200180831161103d57829003601f168201915b5050505050905090565b6000801b81565b61107d611076611485565b8383611e0a565b5050565b61109261108c611485565b83611546565b6110d1576040517f08c379a00000000000000000000000000000000000000000000000000000000081526004016110c890613eea565b60405180910390fd5b6110dd84848484611f77565b50505050565b60606110ee82611419565b61112d576040517f08c379a000000000000000000000000000000000000000000000000000000000815260040161112490613eaa565b60405180910390fd5b6000611137611fd3565b905060008151116111575760405180602001604052806000815250611182565b8061116184612065565b604051602001611172929190613b4d565b6040516020818303038152906040525b915050919050565b60006111a760016000848152602001908152602001600020612212565b9050919050565b6111b78261093a565b6111c8816111c3611485565b61188b565b6111d2838361195c565b505050565b7f65d7a28e3265b37a6474929f336521b332c1681b933f6cb9f3376673440d862a81565b6000600760008473ffffffffffffffffffffffffffffffffffffffff1673ffffffffffffffffffffffffffffffffffffffff16815260200190815260200160002060008373ffffffffffffffffffffffffffffffffffffffff1673ffffffffffffffffffffffffffffffffffffffff16815260200190815260200160002060009054906101000a900460ff16905092915050565b6112998282610f68565b61136b57600160008084815260200190815260200160002060000160008373ffffffffffffffffffffffffffffffffffffffff1673ffffffffffffffffffffffffffffffffffffffff16815260200190815260200160002060006101000a81548160ff021916908315150217905550611310611485565b73ffffffffffffffffffffffffffffffffffffffff168173ffffffffffffffffffffffffffffffffffffffff16837f2f8788117e7eff1d82e926ec794901d17c78024a50270940304540a733656f0d60405160405180910390a45b5050565b6000611397836000018373ffffffffffffffffffffffffffffffffffffffff1660001b612227565b905092915050565b60007f780e9d63000000000000000000000000000000000000000000000000000000007bffffffffffffffffffffffffffffffffffffffffffffffffffffffff1916827bffffffffffffffffffffffffffffffffffffffffffffffffffffffff19161480611412575061141182612297565b5b9050919050565b60008073ffffffffffffffffffffffffffffffffffffffff166004600084815260200190815260200160002060009054906101000a900473ffffffffffffffffffffffffffffffffffffffff1673ffffffffffffffffffffffffffffffffffffffff1614159050919050565b600033905090565b816006600083815260200190815260200160002060006101000a81548173ffffffffffffffffffffffffffffffffffffffff021916908373ffffffffffffffffffffffffffffffffffffffff160217905550808273ffffffffffffffffffffffffffffffffffffffff1661150083610cc1565b73ffffffffffffffffffffffffffffffffffffffff167f8c5be1e5ebec7d5bd14f71427d1e84f3dd0314c0f7b2291e5b200ac8c7c3b92560405160405180910390a45050565b600061155182611419565b611590576040517f08c379a000000000000000000000000000000000000000000000000000000000815260040161158790613d8a565b60405180910390fd5b600061159b83610cc1565b90508073ffffffffffffffffffffffffffffffffffffffff168473ffffffffffffffffffffffffffffffffffffffff16148061160a57508373ffffffffffffffffffffffffffffffffffffffff166115f284610730565b73ffffffffffffffffffffffffffffffffffffffff16145b8061161b575061161a81856111fb565b5b91505092915050565b8273ffffffffffffffffffffffffffffffffffffffff1661164482610cc1565b73ffffffffffffffffffffffffffffffffffffffff161461169a576040517f08c379a000000000000000000000000000000000000000000000000000000000815260040161169190613d0a565b60405180910390fd5b600073ffffffffffffffffffffffffffffffffffffffff168273ffffffffffffffffffffffffffffffffffffffff16141561170a576040517f08c379a000000000000000000000000000000000000000000000000000000000815260040161170190613d4a565b60405180910390fd5b611715838383612379565b61172060008261148d565b6001600560008573ffffffffffffffffffffffffffffffffffffffff1673ffffffffffffffffffffffffffffffffffffffff16815260200190815260200160002060008282546117709190614170565b925050819055506001600560008473ffffffffffffffffffffffffffffffffffffffff1673ffffffffffffffffffffffffffffffffffffffff16815260200190815260200160002060008282546117c7919061408f565b92505081905550816004600083815260200190815260200160002060006101000a81548173ffffffffffffffffffffffffffffffffffffffff021916908373ffffffffffffffffffffffffffffffffffffffff160217905550808273ffffffffffffffffffffffffffffffffffffffff168473ffffffffffffffffffffffffffffffffffffffff167fddf252ad1be2c89b69c2b068fc378daa952ba7f163c4a11628f55a4df523b3ef60405160405180910390a4611886838383612389565b505050565b6118958282610f68565b611924576118ba8173ffffffffffffffffffffffffffffffffffffffff16601461238e565b6118c88360001c602061238e565b6040516020016118d9929190613b71565b6040516020818303038152906040526040517f08c379a000000000000000000000000000000000000000000000000000000000815260040161191b9190613c48565b60405180910390fd5b5050565b611932828261128f565b611957816001600085815260200190815260200160002061136f90919063ffffffff16565b505050565b6119668282612688565b61198b816001600085815260200190815260200160002061276990919063ffffffff16565b505050565b611998610caa565b6119d7576040517f08c379a00000000000000000000000000000000000000000000000000000000081526004016119ce90613caa565b60405180910390fd5b6000600c60006101000a81548160ff0219169083151502179055507f5db9ee0a495bf2e6ff9c91a7834c1ba4fdd244a5e8aa4e537bd38aeae4b073aa611a1b611485565b604051611a289190613bab565b60405180910390a1565b6000611a3d82610cc1565b9050611a4b81600084612379565b611a5660008361148d565b6001600560008373ffffffffffffffffffffffffffffffffffffffff1673ffffffffffffffffffffffffffffffffffffffff1681526020019081526020016000206000828254611aa69190614170565b925050819055506004600083815260200190815260200160002060006101000a81549073ffffffffffffffffffffffffffffffffffffffff021916905581600073ffffffffffffffffffffffffffffffffffffffff168273ffffffffffffffffffffffffffffffffffffffff167fddf252ad1be2c89b69c2b068fc378daa952ba7f163c4a11628f55a4df523b3ef60405160405180910390a4611b4b81600084612389565b5050565b6001816000016000828254019250508190555050565b600081600001549050919050565b600073ffffffffffffffffffffffffffffffffffffffff168273ffffffffffffffffffffffffffffffffffffffff161415611be3576040517f08c379a0000000000000000000000000000000000000000000000000000000008152600401611bda90613e6a565b60405180910390fd5b611bec81611419565b15611c2c576040517f08c379a0000000000000000000000000000000000000000000000000000000008152600401611c2390613d2a565b60405180910390fd5b611c3860008383612379565b6001600560008473ffffffffffffffffffffffffffffffffffffffff1673ffffffffffffffffffffffffffffffffffffffff1681526020019081526020016000206000828254611c88919061408f565b92505081905550816004600083815260200190815260200160002060006101000a81548173ffffffffffffffffffffffffffffffffffffffff021916908373ffffffffffffffffffffffffffffffffffffffff160217905550808273ffffffffffffffffffffffffffffffffffffffff16600073ffffffffffffffffffffffffffffffffffffffff167fddf252ad1be2c89b69c2b068fc378daa952ba7f163c4a11628f55a4df523b3ef60405160405180910390a4611d4960008383612389565b5050565b611d55610caa565b15611d95576040517f08c379a0000000000000000000000000000000000000000000000000000000008152600401611d8c90613dea565b60405180910390fd5b6001600c60006101000a81548160ff0219169083151502179055507f62e78cea01bee320cd4e420270b5ea74000d11b0c9f74754ebdbfc544b05a258611dd9611485565b604051611de69190613bab565b60405180910390a1565b6000611dff8360000183612799565b60001c905092915050565b8173ffffffffffffffffffffffffffffffffffffffff168373ffffffffffffffffffffffffffffffffffffffff161415611e79576040517f08c379a0000000000000000000000000000000000000000000000000000000008152600401611e7090613d6a565b60405180910390fd5b80600760008573ffffffffffffffffffffffffffffffffffffffff1673ffffffffffffffffffffffffffffffffffffffff16815260200190815260200160002060008473ffffffffffffffffffffffffffffffffffffffff1673ffffffffffffffffffffffffffffffffffffffff16815260200190815260200160002060006101000a81548160ff0219169083151502179055508173ffffffffffffffffffffffffffffffffffffffff168373ffffffffffffffffffffffffffffffffffffffff167f17307eab39ab6107e8899845ad3d59bd9653f200f220920489ca2b5937696c3183604051611f6a9190613c12565b60405180910390a3505050565b611f82848484611624565b611f8e848484846127ea565b611fcd576040517f08c379a0000000000000000000000000000000000000000000000000000000008152600401611fc490613cea565b60405180910390fd5b50505050565b6060600e8054611fe29061428e565b80601f016020809104026020016040519081016040528092919081815260200182805461200e9061428e565b801561205b5780601f106120305761010080835404028352916020019161205b565b820191906000526020600020905b81548152906001019060200180831161203e57829003601f168201915b5050505050905090565b606060008214156120ad576040518060400160405280600181526020017f3000000000000000000000000000000000000000000000000000000000000000815250905061220d565b600082905060005b600082146120df5780806120c8906142f1565b915050600a826120d891906140e5565b91506120b5565b60008167ffffffffffffffff811115612121577f4e487b7100000000000000000000000000000000000000000000000000000000600052604160045260246000fd5b6040519080825280601f01601f1916602001820160405280156121535781602001600182028036833780820191505090505b5090505b600085146122065760018261216c9190614170565b9150600a8561217b919061433a565b6030612187919061408f565b60f81b8183815181106121c3577f4e487b7100000000000000000000000000000000000000000000000000000000600052603260045260246000fd5b60200101907effffffffffffffffffffffffffffffffffffffffffffffffffffffffffffff1916908160001a905350600a856121ff91906140e5565b9450612157565b8093505050505b919050565b600061222082600001612981565b9050919050565b60006122338383612992565b61228c578260000182908060018154018082558091505060019003906000526020600020016000909190919091505582600001805490508360010160008481526020019081526020016000208190555060019050612291565b600090505b92915050565b60007f80ac58cd000000000000000000000000000000000000000000000000000000007bffffffffffffffffffffffffffffffffffffffffffffffffffffffff1916827bffffffffffffffffffffffffffffffffffffffffffffffffffffffff1916148061236257507f5b5e139f000000000000000000000000000000000000000000000000000000007bffffffffffffffffffffffffffffffffffffffffffffffffffffffff1916827bffffffffffffffffffffffffffffffffffffffffffffffffffffffff1916145b806123725750612371826129b5565b5b9050919050565b612384838383612a2f565b505050565b505050565b6060600060028360026123a19190614116565b6123ab919061408f565b67ffffffffffffffff8111156123ea577f4e487b7100000000000000000000000000000000000000000000000000000000600052604160045260246000fd5b6040519080825280601f01601f19166020018201604052801561241c5781602001600182028036833780820191505090505b5090507f30000000000000000000000000000000000000000000000000000000000000008160008151811061247a577f4e487b7100000000000000000000000000000000000000000000000000000000600052603260045260246000fd5b60200101907effffffffffffffffffffffffffffffffffffffffffffffffffffffffffffff1916908160001a9053507f780000000000000000000000000000000000000000000000000000000000000081600181518110612504577f4e487b7100000000000000000000000000000000000000000000000000000000600052603260045260246000fd5b60200101907effffffffffffffffffffffffffffffffffffffffffffffffffffffffffffff1916908160001a905350600060018460026125449190614116565b61254e919061408f565b90505b600181111561263a577f3031323334353637383961626364656600000000000000000000000000000000600f8616601081106125b6577f4e487b7100000000000000000000000000000000000000000000000000000000600052603260045260246000fd5b1a60f81b8282815181106125f3577f4e487b7100000000000000000000000000000000000000000000000000000000600052603260045260246000fd5b60200101907effffffffffffffffffffffffffffffffffffffffffffffffffffffffffffff1916908160001a905350600485901c94508061263390614264565b9050612551565b506000841461267e576040517f08c379a000000000000000000000000000000000000000000000000000000000815260040161267590613c6a565b60405180910390fd5b8091505092915050565b6126928282610f68565b1561276557600080600084815260200190815260200160002060000160008373ffffffffffffffffffffffffffffffffffffffff1673ffffffffffffffffffffffffffffffffffffffff16815260200190815260200160002060006101000a81548160ff02191690831515021790555061270a611485565b73ffffffffffffffffffffffffffffffffffffffff168173ffffffffffffffffffffffffffffffffffffffff16837ff6391f5c32d9c69d2a47ea670b442974b53935d1edc7fd64eb21e047a839171b60405160405180910390a45b5050565b6000612791836000018373ffffffffffffffffffffffffffffffffffffffff1660001b612a87565b905092915050565b60008260000182815481106127d7577f4e487b7100000000000000000000000000000000000000000000000000000000600052603260045260246000fd5b9060005260206000200154905092915050565b600061280b8473ffffffffffffffffffffffffffffffffffffffff16612c0d565b15612974578373ffffffffffffffffffffffffffffffffffffffff1663150b7a02612834611485565b8786866040518563ffffffff1660e01b81526004016128569493929190613bc6565b602060405180830381600087803b15801561287057600080fd5b505af19250505080156128a157506040513d601f19601f8201168201806040525081019061289e9190613607565b60015b612924573d80600081146128d1576040519150601f19603f3d011682016040523d82523d6000602084013e6128d6565b606091505b5060008151141561291c576040517f08c379a000000000000000000000000000000000000000000000000000000000815260040161291390613cea565b60405180910390fd5b805181602001fd5b63150b7a0260e01b7bffffffffffffffffffffffffffffffffffffffffffffffffffffffff1916817bffffffffffffffffffffffffffffffffffffffffffffffffffffffff191614915050612979565b600190505b949350505050565b600081600001805490509050919050565b600080836001016000848152602001908152602001600020541415905092915050565b60007f5a05180f000000000000000000000000000000000000000000000000000000007bffffffffffffffffffffffffffffffffffffffffffffffffffffffff1916827bffffffffffffffffffffffffffffffffffffffffffffffffffffffff19161480612a285750612a2782612c30565b5b9050919050565b612a3a838383612caa565b612a42610caa565b15612a82576040517f08c379a0000000000000000000000000000000000000000000000000000000008152600401612a7990613c8a565b60405180910390fd5b505050565b60008083600101600084815260200190815260200160002054905060008114612c01576000600182612ab99190614170565b9050600060018660000180549050612ad19190614170565b9050818114612b8c576000866000018281548110612b18577f4e487b7100000000000000000000000000000000000000000000000000000000600052603260045260246000fd5b9060005260206000200154905080876000018481548110612b62577f4e487b7100000000000000000000000000000000000000000000000000000000600052603260045260246000fd5b90600052602060002001819055508387600101600083815260200190815260200160002081905550505b85600001805480612bc6577f4e487b7100000000000000000000000000000000000000000000000000000000600052603160045260246000fd5b600190038181906000526020600020016000905590558560010160008681526020019081526020016000206000905560019350505050612c07565b60009150505b92915050565b6000808273ffffffffffffffffffffffffffffffffffffffff163b119050919050565b60007f7965db0b000000000000000000000000000000000000000000000000000000007bffffffffffffffffffffffffffffffffffffffffffffffffffffffff1916827bffffffffffffffffffffffffffffffffffffffffffffffffffffffff19161480612ca35750612ca282612dbe565b5b9050919050565b612cb5838383612e28565b600073ffffffffffffffffffffffffffffffffffffffff168373ffffffffffffffffffffffffffffffffffffffff161415612cf857612cf381612e2d565b612d37565b8173ffffffffffffffffffffffffffffffffffffffff168373ffffffffffffffffffffffffffffffffffffffff1614612d3657612d358382612e76565b5b5b600073ffffffffffffffffffffffffffffffffffffffff168273ffffffffffffffffffffffffffffffffffffffff161415612d7a57612d7581612fe3565b612db9565b8273ffffffffffffffffffffffffffffffffffffffff168273ffffffffffffffffffffffffffffffffffffffff1614612db857612db78282613126565b5b5b505050565b60007f01ffc9a7000000000000000000000000000000000000000000000000000000007bffffffffffffffffffffffffffffffffffffffffffffffffffffffff1916827bffffffffffffffffffffffffffffffffffffffffffffffffffffffff1916149050919050565b505050565b600a80549050600b600083815260200190815260200160002081905550600a81908060018154018082558091505060019003906000526020600020016000909190919091505550565b60006001612e8384610e01565b612e8d9190614170565b9050600060096000848152602001908152602001600020549050818114612f72576000600860008673ffffffffffffffffffffffffffffffffffffffff1673ffffffffffffffffffffffffffffffffffffffff168152602001908152602001600020600084815260200190815260200160002054905080600860008773ffffffffffffffffffffffffffffffffffffffff1673ffffffffffffffffffffffffffffffffffffffff168152602001908152602001600020600084815260200190815260200160002081905550816009600083815260200190815260200160002081905550505b6009600084815260200190815260200160002060009055600860008573ffffffffffffffffffffffffffffffffffffffff1673ffffffffffffffffffffffffffffffffffffffff16815260200190815260200160002060008381526020019081526020016000206000905550505050565b60006001600a80549050612ff79190614170565b90506000600b60008481526020019081526020016000205490506000600a838154811061304d577f4e487b7100000000000000000000000000000000000000000000000000000000600052603260045260246000fd5b9060005260206000200154905080600a8381548110613095577f4e487b7100000000000000000000000000000000000000000000000000000000600052603260045260246000fd5b906000526020600020018190555081600b600083815260200190815260200160002081905550600b600085815260200190815260200160002060009055600a80548061310a577f4e487b7100000000000000000000000000000000000000000000000000000000600052603160045260246000fd5b6001900381819060005260206000200160009055905550505050565b600061313183610e01565b905081600860008573ffffffffffffffffffffffffffffffffffffffff1673ffffffffffffffffffffffffffffffffffffffff168152602001908152602001600020600083815260200190815260200160002081905550806009600084815260200190815260200160002081905550505050565b8280546131b19061428e565b90600052602060002090601f0160209004810192826131d3576000855561321a565b82601f106131ec57805160ff191683800117855561321a565b8280016001018555821561321a579182015b828111156132195782518255916020019190600101906131fe565b5b509050613227919061322b565b5090565b5b8082111561324457600081600090555060010161322c565b5090565b600061325b61325684613fea565b613fc5565b90508281526020810184848401111561327357600080fd5b61327e848285614222565b509392505050565b60006132996132948461401b565b613fc5565b9050828152602081018484840111156132b157600080fd5b6132bc848285614222565b509392505050565b6000813590506132d381614bac565b92915050565b6000813590506132e881614bc3565b92915050565b6000813590506132fd81614bda565b92915050565b60008135905061331281614bf1565b92915050565b60008151905061332781614bf1565b92915050565b600082601f83011261333e57600080fd5b813561334e848260208601613248565b91505092915050565b600082601f83011261336857600080fd5b8135613378848260208601613286565b91505092915050565b60008135905061339081614c08565b92915050565b6000602082840312156133a857600080fd5b60006133b6848285016132c4565b91505092915050565b600080604083850312156133d257600080fd5b60006133e0858286016132c4565b92505060206133f1858286016132c4565b9150509250929050565b60008060006060848603121561341057600080fd5b600061341e868287016132c4565b935050602061342f868287016132c4565b925050604061344086828701613381565b9150509250925092565b6000806000806080858703121561346057600080fd5b600061346e878288016132c4565b945050602061347f878288016132c4565b935050604061349087828801613381565b925050606085013567ffffffffffffffff8111156134ad57600080fd5b6134b98782880161332d565b91505092959194509250565b600080604083850312156134d857600080fd5b60006134e6858286016132c4565b92505060206134f7858286016132d9565b9150509250929050565b6000806040838503121561351457600080fd5b6000613522858286016132c4565b925050602061353385828601613381565b9150509250929050565b60006020828403121561354f57600080fd5b600061355d848285016132ee565b91505092915050565b6000806040838503121561357957600080fd5b6000613587858286016132ee565b9250506020613598858286016132c4565b9150509250929050565b600080604083850312156135b557600080fd5b60006135c3858286016132ee565b92505060206135d485828601613381565b9150509250929050565b6000602082840312156135f057600080fd5b60006135fe84828501613303565b91505092915050565b60006020828403121561361957600080fd5b600061362784828501613318565b91505092915050565b60006020828403121561364257600080fd5b600082013567ffffffffffffffff81111561365c57600080fd5b61366884828501613357565b91505092915050565b60006020828403121561368357600080fd5b600061369184828501613381565b91505092915050565b6136a3816141a4565b82525050565b6136b2816141b6565b82525050565b6136c1816141c2565b82525050565b60006136d28261404c565b6136dc8185614062565b93506136ec818560208601614231565b6136f581614427565b840191505092915050565b600061370b82614057565b6137158185614073565b9350613725818560208601614231565b61372e81614427565b840191505092915050565b600061374482614057565b61374e8185614084565b935061375e818560208601614231565b80840191505092915050565b6000613777602083614073565b915061378282614438565b602082019050919050565b600061379a602b83614073565b91506137a582614461565b604082019050919050565b60006137bd601483614073565b91506137c8826144b0565b602082019050919050565b60006137e0602b83614073565b91506137eb826144d9565b604082019050919050565b6000613803603283614073565b915061380e82614528565b604082019050919050565b6000613826602583614073565b915061383182614577565b604082019050919050565b6000613849601c83614073565b9150613854826145c6565b602082019050919050565b600061386c602483614073565b9150613877826145ef565b604082019050919050565b600061388f601983614073565b915061389a8261463e565b602082019050919050565b60006138b2602c83614073565b91506138bd82614667565b604082019050919050565b60006138d5602f83614073565b91506138e0826146b6565b604082019050919050565b60006138f8602983614073565b915061390382614705565b604082019050919050565b600061391b601083614073565b915061392682614754565b602082019050919050565b600061393e603883614073565b91506139498261477d565b604082019050919050565b6000613961602a83614073565b915061396c826147cc565b604082019050919050565b6000613984602983614073565b915061398f8261481b565b604082019050919050565b60006139a7602083614073565b91506139b28261486a565b602082019050919050565b60006139ca602c83614073565b91506139d582614893565b604082019050919050565b60006139ed602f83614073565b91506139f8826148e2565b604082019050919050565b6000613a10602183614073565b9150613a1b82614931565b604082019050919050565b6000613a33603183614073565b9150613a3e82614980565b604082019050919050565b6000613a56602c83614073565b9150613a61826149cf565b604082019050919050565b6000613a79601783614084565b9150613a8482614a1e565b601782019050919050565b6000613a9c602583614073565b9150613aa782614a47565b604082019050919050565b6000613abf603b83614073565b9150613aca82614a96565b604082019050919050565b6000613ae2603083614073565b9150613aed82614ae5565b604082019050919050565b6000613b05601183614084565b9150613b1082614b34565b601182019050919050565b6000613b28602f83614073565b9150613b3382614b5d565b604082019050919050565b613b4781614218565b82525050565b6000613b598285613739565b9150613b658284613739565b91508190509392505050565b6000613b7c82613a6c565b9150613b888285613739565b9150613b9382613af8565b9150613b9f8284613739565b91508190509392505050565b6000602082019050613bc0600083018461369a565b92915050565b6000608082019050613bdb600083018761369a565b613be8602083018661369a565b613bf56040830185613b3e565b8181036060830152613c0781846136c7565b905095945050505050565b6000602082019050613c2760008301846136a9565b92915050565b6000602082019050613c4260008301846136b8565b92915050565b60006020820190508181036000830152613c628184613700565b905092915050565b60006020820190508181036000830152613c838161376a565b9050919050565b60006020820190508181036000830152613ca38161378d565b9050919050565b60006020820190508181036000830152613cc3816137b0565b9050919050565b60006020820190508181036000830152613ce3816137d3565b9050919050565b60006020820190508181036000830152613d03816137f6565b9050919050565b60006020820190508181036000830152613d2381613819565b9050919050565b60006020820190508181036000830152613d438161383c565b9050919050565b60006020820190508181036000830152613d638161385f565b9050919050565b60006020820190508181036000830152613d8381613882565b9050919050565b60006020820190508181036000830152613da3816138a5565b9050919050565b60006020820190508181036000830152613dc3816138c8565b9050919050565b60006020820190508181036000830152613de3816138eb565b9050919050565b60006020820190508181036000830152613e038161390e565b9050919050565b60006020820190508181036000830152613e2381613931565b9050919050565b60006020820190508181036000830152613e4381613954565b9050919050565b60006020820190508181036000830152613e6381613977565b9050919050565b60006020820190508181036000830152613e838161399a565b9050919050565b60006020820190508181036000830152613ea3816139bd565b9050919050565b60006020820190508181036000830152613ec3816139e0565b9050919050565b60006020820190508181036000830152613ee381613a03565b9050919050565b60006020820190508181036000830152613f0381613a26565b9050919050565b60006020820190508181036000830152613f2381613a49565b9050919050565b60006020820190508181036000830152613f4381613a8f565b9050919050565b60006020820190508181036000830152613f6381613ab2565b9050919050565b60006020820190508181036000830152613f8381613ad5565b9050919050565b60006020820190508181036000830152613fa381613b1b565b9050919050565b6000602082019050613fbf6000830184613b3e565b92915050565b6000613fcf613fe0565b9050613fdb82826142c0565b919050565b6000604051905090565b600067ffffffffffffffff821115614005576140046143f8565b5b61400e82614427565b9050602081019050919050565b600067ffffffffffffffff821115614036576140356143f8565b5b61403f82614427565b9050602081019050919050565b600081519050919050565b600081519050919050565b600082825260208201905092915050565b600082825260208201905092915050565b600081905092915050565b600061409a82614218565b91506140a583614218565b9250827fffffffffffffffffffffffffffffffffffffffffffffffffffffffffffffffff038211156140da576140d961436b565b5b828201905092915050565b60006140f082614218565b91506140fb83614218565b92508261410b5761410a61439a565b5b828204905092915050565b600061412182614218565b915061412c83614218565b9250817fffffffffffffffffffffffffffffffffffffffffffffffffffffffffffffffff04831182151516156141655761416461436b565b5b828202905092915050565b600061417b82614218565b915061418683614218565b9250828210156141995761419861436b565b5b828203905092915050565b60006141af826141f8565b9050919050565b60008115159050919050565b6000819050919050565b60007fffffffff0000000000000000000000000000000000000000000000000000000082169050919050565b600073ffffffffffffffffffffffffffffffffffffffff82169050919050565b6000819050919050565b82818337600083830152505050565b60005b8381101561424f578082015181840152602081019050614234565b8381111561425e576000848401525b50505050565b600061426f82614218565b915060008214156142835761428261436b565b5b600182039050919050565b600060028204905060018216806142a657607f821691505b602082108114156142ba576142b96143c9565b5b50919050565b6142c982614427565b810181811067ffffffffffffffff821117156142e8576142e76143f8565b5b80604052505050565b60006142fc82614218565b91507fffffffffffffffffffffffffffffffffffffffffffffffffffffffffffffffff82141561432f5761432e61436b565b5b600182019050919050565b600061434582614218565b915061435083614218565b9250826143605761435f61439a565b5b828206905092915050565b7f4e487b7100000000000000000000000000000000000000000000000000000000600052601160045260246000fd5b7f4e487b7100000000000000000000000000000000000000000000000000000000600052601260045260246000fd5b7f4e487b7100000000000000000000000000000000000000000000000000000000600052602260045260246000fd5b7f4e487b7100000000000000000000000000000000000000000000000000000000600052604160045260246000fd5b6000601f19601f8301169050919050565b7f537472696e67733a20686578206c656e67746820696e73756666696369656e74600082015250565b7f4552433732315061757361626c653a20746f6b656e207472616e73666572207760008201527f68696c6520706175736564000000000000000000000000000000000000000000602082015250565b7f5061757361626c653a206e6f7420706175736564000000000000000000000000600082015250565b7f455243373231456e756d657261626c653a206f776e657220696e646578206f7560008201527f74206f6620626f756e6473000000000000000000000000000000000000000000602082015250565b7f4552433732313a207472616e7366657220746f206e6f6e20455243373231526560008201527f63656976657220696d706c656d656e7465720000000000000000000000000000602082015250565b7f4552433732313a207472616e736665722066726f6d20696e636f72726563742060008201527f6f776e6572000000000000000000000000000000000000000000000000000000602082015250565b7f4552433732313a20746f6b656e20616c7265616479206d696e74656400000000600082015250565b7f4552433732313a207472616e7366657220746f20746865207a65726f2061646460008201527f7265737300000000000000000000000000000000000000000000000000000000602082015250565b7f4552433732313a20617070726f766520746f2063616c6c657200000000000000600082015250565b7f4552433732313a206f70657261746f7220717565727920666f72206e6f6e657860008201527f697374656e7420746f6b656e0000000000000000000000000000000000000000602082015250565b7f546f74616c20737570706c792065786365656465642c206e6f206d6f7265206160008201527f7661696c61626c6520746f6b656e730000000000000000000000000000000000602082015250565b7f556e70617573653a206d75737420686176652070617573657220726f6c65207460008201527f6f20756e70617573650000000000000000000000000000000000000000000000602082015250565b7f5061757361626c653a2070617573656400000000000000000000000000000000600082015250565b7f4552433732313a20617070726f76652063616c6c6572206973206e6f74206f7760008201527f6e6572206e6f7220617070726f76656420666f7220616c6c0000000000000000602082015250565b7f4552433732313a2062616c616e636520717565727920666f7220746865207a6560008201527f726f206164647265737300000000000000000000000000000000000000000000602082015250565b7f4552433732313a206f776e657220717565727920666f72206e6f6e657869737460008201527f656e7420746f6b656e0000000000000000000000000000000000000000000000602082015250565b7f4552433732313a206d696e7420746f20746865207a65726f2061646472657373600082015250565b7f4552433732313a20617070726f76656420717565727920666f72206e6f6e657860008201527f697374656e7420746f6b656e0000000000000000000000000000000000000000602082015250565b7f4552433732314d657461646174613a2055524920717565727920666f72206e6f60008201527f6e6578697374656e7420746f6b656e0000000000000000000000000000000000602082015250565b7f4552433732313a20617070726f76616c20746f2063757272656e74206f776e6560008201527f7200000000000000000000000000000000000000000000000000000000000000602082015250565b7f4552433732313a207472616e736665722063616c6c6572206973206e6f74206f60008201527f776e6572206e6f7220617070726f766564000000000000000000000000000000602082015250565b7f455243373231456e756d657261626c653a20676c6f62616c20696e646578206f60008201527f7574206f6620626f756e64730000000000000000000000000000000000000000602082015250565b7f416363657373436f6e74726f6c3a206163636f756e7420000000000000000000600082015250565b7f50617573653a206d75737420686176652070617573657220726f6c6520746f2060008201527f7061757365000000000000000000000000000000000000000000000000000000602082015250565b7f73657442617365546f6b656e5552493a206d75737420686176652061646d696e60008201527f20726f6c6520746f20736574206261736520746f6b656e205552490000000000602082015250565b7f4552433732314275726e61626c653a2063616c6c6572206973206e6f74206f7760008201527f6e6572206e6f7220617070726f76656400000000000000000000000000000000602082015250565b7f206973206d697373696e6720726f6c6520000000000000000000000000000000600082015250565b7f416363657373436f6e74726f6c3a2063616e206f6e6c792072656e6f756e636560008201527f20726f6c657320666f722073656c660000000000000000000000000000000000602082015250565b614bb5816141a4565b8114614bc057600080fd5b50565b614bcc816141b6565b8114614bd757600080fd5b50565b614be3816141c2565b8114614bee57600080fd5b50565b614bfa816141cc565b8114614c0557600080fd5b50565b614c1181614218565b8114614c1c57600080fd5b5056fea2646970667358221220452a275cf86e9a18687964cdf6018af5cc46bbb53aa95b2f0cff24148ff606b664736f6c63430008010033",
  "linkReferences": {},
  "deployedLinkReferences": {}
}